{
  "_format": "hh-sol-artifact-1",
  "contractName": "ERC1155Base",
  "sourceName": "@thirdweb-dev/contracts/base/ERC1155Base.sol",
  "abi": [
    {
      "inputs": [
        {
          "internalType": "string",
          "name": "_name",
          "type": "string"
        },
        {
          "internalType": "string",
          "name": "_symbol",
          "type": "string"
        },
        {
          "internalType": "address",
          "name": "_royaltyRecipient",
          "type": "address"
        },
        {
          "internalType": "uint128",
          "name": "_royaltyBps",
          "type": "uint128"
        }
      ],
      "stateMutability": "nonpayable",
      "type": "constructor"
    },
    {
      "inputs": [
        {
          "internalType": "address",
          "name": "operator",
          "type": "address"
        }
      ],
      "name": "OperatorNotAllowed",
      "type": "error"
    },
    {
      "anonymous": false,
      "inputs": [
        {
          "indexed": true,
          "internalType": "address",
          "name": "_owner",
          "type": "address"
        },
        {
          "indexed": true,
          "internalType": "address",
          "name": "_operator",
          "type": "address"
        },
        {
          "indexed": false,
          "internalType": "bool",
          "name": "_approved",
          "type": "bool"
        }
      ],
      "name": "ApprovalForAll",
      "type": "event"
    },
    {
      "anonymous": false,
      "inputs": [
        {
          "indexed": false,
          "internalType": "string",
          "name": "prevURI",
          "type": "string"
        },
        {
          "indexed": false,
          "internalType": "string",
          "name": "newURI",
          "type": "string"
        }
      ],
      "name": "ContractURIUpdated",
      "type": "event"
    },
    {
      "anonymous": false,
      "inputs": [
        {
          "indexed": true,
          "internalType": "address",
          "name": "newRoyaltyRecipient",
          "type": "address"
        },
        {
          "indexed": false,
          "internalType": "uint256",
          "name": "newRoyaltyBps",
          "type": "uint256"
        }
      ],
      "name": "DefaultRoyalty",
      "type": "event"
    },
    {
      "anonymous": false,
      "inputs": [
        {
          "indexed": false,
          "internalType": "bool",
          "name": "restriction",
          "type": "bool"
        }
      ],
      "name": "OperatorRestriction",
      "type": "event"
    },
    {
      "anonymous": false,
      "inputs": [
        {
          "indexed": true,
          "internalType": "address",
          "name": "prevOwner",
          "type": "address"
        },
        {
          "indexed": true,
          "internalType": "address",
          "name": "newOwner",
          "type": "address"
        }
      ],
      "name": "OwnerUpdated",
      "type": "event"
    },
    {
      "anonymous": false,
      "inputs": [
        {
          "indexed": true,
          "internalType": "uint256",
          "name": "tokenId",
          "type": "uint256"
        },
        {
          "indexed": true,
          "internalType": "address",
          "name": "royaltyRecipient",
          "type": "address"
        },
        {
          "indexed": false,
          "internalType": "uint256",
          "name": "royaltyBps",
          "type": "uint256"
        }
      ],
      "name": "RoyaltyForToken",
      "type": "event"
    },
    {
      "anonymous": false,
      "inputs": [
        {
          "indexed": true,
          "internalType": "address",
          "name": "_operator",
          "type": "address"
        },
        {
          "indexed": true,
          "internalType": "address",
          "name": "_from",
          "type": "address"
        },
        {
          "indexed": true,
          "internalType": "address",
          "name": "_to",
          "type": "address"
        },
        {
          "indexed": false,
          "internalType": "uint256[]",
          "name": "_ids",
          "type": "uint256[]"
        },
        {
          "indexed": false,
          "internalType": "uint256[]",
          "name": "_values",
          "type": "uint256[]"
        }
      ],
      "name": "TransferBatch",
      "type": "event"
    },
    {
      "anonymous": false,
      "inputs": [
        {
          "indexed": true,
          "internalType": "address",
          "name": "_operator",
          "type": "address"
        },
        {
          "indexed": true,
          "internalType": "address",
          "name": "_from",
          "type": "address"
        },
        {
          "indexed": true,
          "internalType": "address",
          "name": "_to",
          "type": "address"
        },
        {
          "indexed": false,
          "internalType": "uint256",
          "name": "_id",
          "type": "uint256"
        },
        {
          "indexed": false,
          "internalType": "uint256",
          "name": "_value",
          "type": "uint256"
        }
      ],
      "name": "TransferSingle",
      "type": "event"
    },
    {
      "anonymous": false,
      "inputs": [
        {
          "indexed": false,
          "internalType": "string",
          "name": "_value",
          "type": "string"
        },
        {
          "indexed": true,
          "internalType": "uint256",
          "name": "_id",
          "type": "uint256"
        }
      ],
      "name": "URI",
      "type": "event"
    },
    {
      "inputs": [],
      "name": "OPERATOR_FILTER_REGISTRY",
      "outputs": [
        {
          "internalType": "contract IOperatorFilterRegistry",
          "name": "",
          "type": "address"
        }
      ],
      "stateMutability": "view",
      "type": "function"
    },
    {
      "inputs": [
        {
          "internalType": "address",
          "name": "",
          "type": "address"
        },
        {
          "internalType": "uint256",
          "name": "",
          "type": "uint256"
        }
      ],
      "name": "balanceOf",
      "outputs": [
        {
          "internalType": "uint256",
          "name": "",
          "type": "uint256"
        }
      ],
      "stateMutability": "view",
      "type": "function"
    },
    {
      "inputs": [
        {
          "internalType": "address[]",
          "name": "accounts",
          "type": "address[]"
        },
        {
          "internalType": "uint256[]",
          "name": "ids",
          "type": "uint256[]"
        }
      ],
      "name": "balanceOfBatch",
      "outputs": [
        {
          "internalType": "uint256[]",
          "name": "",
          "type": "uint256[]"
        }
      ],
      "stateMutability": "view",
      "type": "function"
    },
    {
      "inputs": [
        {
          "internalType": "address",
          "name": "_to",
          "type": "address"
        },
        {
          "internalType": "uint256[]",
          "name": "_tokenIds",
          "type": "uint256[]"
        },
        {
          "internalType": "uint256[]",
          "name": "_amounts",
          "type": "uint256[]"
        },
        {
          "internalType": "string",
          "name": "_baseURI",
          "type": "string"
        }
      ],
      "name": "batchMintTo",
      "outputs": [],
      "stateMutability": "nonpayable",
      "type": "function"
    },
    {
      "inputs": [
        {
          "internalType": "address",
          "name": "_owner",
          "type": "address"
        },
        {
          "internalType": "uint256",
          "name": "_tokenId",
          "type": "uint256"
        },
        {
          "internalType": "uint256",
          "name": "_amount",
          "type": "uint256"
        }
      ],
      "name": "burn",
      "outputs": [],
      "stateMutability": "nonpayable",
      "type": "function"
    },
    {
      "inputs": [
        {
          "internalType": "address",
          "name": "_owner",
          "type": "address"
        },
        {
          "internalType": "uint256[]",
          "name": "_tokenIds",
          "type": "uint256[]"
        },
        {
          "internalType": "uint256[]",
          "name": "_amounts",
          "type": "uint256[]"
        }
      ],
      "name": "burnBatch",
      "outputs": [],
      "stateMutability": "nonpayable",
      "type": "function"
    },
    {
      "inputs": [],
      "name": "contractURI",
      "outputs": [
        {
          "internalType": "string",
          "name": "",
          "type": "string"
        }
      ],
      "stateMutability": "view",
      "type": "function"
    },
    {
      "inputs": [],
      "name": "getBaseURICount",
      "outputs": [
        {
          "internalType": "uint256",
          "name": "",
          "type": "uint256"
        }
      ],
      "stateMutability": "view",
      "type": "function"
    },
    {
      "inputs": [
        {
          "internalType": "uint256",
          "name": "_index",
          "type": "uint256"
        }
      ],
      "name": "getBatchIdAtIndex",
      "outputs": [
        {
          "internalType": "uint256",
          "name": "",
          "type": "uint256"
        }
      ],
      "stateMutability": "view",
      "type": "function"
    },
    {
      "inputs": [],
      "name": "getDefaultRoyaltyInfo",
      "outputs": [
        {
          "internalType": "address",
          "name": "",
          "type": "address"
        },
        {
          "internalType": "uint16",
          "name": "",
          "type": "uint16"
        }
      ],
      "stateMutability": "view",
      "type": "function"
    },
    {
      "inputs": [
        {
          "internalType": "uint256",
          "name": "_tokenId",
          "type": "uint256"
        }
      ],
      "name": "getRoyaltyInfoForToken",
      "outputs": [
        {
          "internalType": "address",
          "name": "",
          "type": "address"
        },
        {
          "internalType": "uint16",
          "name": "",
          "type": "uint16"
        }
      ],
      "stateMutability": "view",
      "type": "function"
    },
    {
      "inputs": [
        {
          "internalType": "address",
          "name": "",
          "type": "address"
        },
        {
          "internalType": "address",
          "name": "",
          "type": "address"
        }
      ],
      "name": "isApprovedForAll",
      "outputs": [
        {
          "internalType": "bool",
          "name": "",
          "type": "bool"
        }
      ],
      "stateMutability": "view",
      "type": "function"
    },
    {
      "inputs": [
        {
          "internalType": "address",
          "name": "_to",
          "type": "address"
        },
        {
          "internalType": "uint256",
          "name": "_tokenId",
          "type": "uint256"
        },
        {
          "internalType": "string",
          "name": "_tokenURI",
          "type": "string"
        },
        {
          "internalType": "uint256",
          "name": "_amount",
          "type": "uint256"
        }
      ],
      "name": "mintTo",
      "outputs": [],
      "stateMutability": "nonpayable",
      "type": "function"
    },
    {
      "inputs": [
        {
          "internalType": "bytes[]",
          "name": "data",
          "type": "bytes[]"
        }
      ],
      "name": "multicall",
      "outputs": [
        {
          "internalType": "bytes[]",
          "name": "results",
          "type": "bytes[]"
        }
      ],
      "stateMutability": "nonpayable",
      "type": "function"
    },
    {
      "inputs": [],
      "name": "name",
      "outputs": [
        {
          "internalType": "string",
          "name": "",
          "type": "string"
        }
      ],
      "stateMutability": "view",
      "type": "function"
    },
    {
      "inputs": [],
      "name": "nextTokenIdToMint",
      "outputs": [
        {
          "internalType": "uint256",
          "name": "",
          "type": "uint256"
        }
      ],
      "stateMutability": "view",
      "type": "function"
    },
    {
      "inputs": [],
      "name": "operatorRestriction",
      "outputs": [
        {
          "internalType": "bool",
          "name": "",
          "type": "bool"
        }
      ],
      "stateMutability": "view",
      "type": "function"
    },
    {
      "inputs": [],
      "name": "owner",
      "outputs": [
        {
          "internalType": "address",
          "name": "",
          "type": "address"
        }
      ],
      "stateMutability": "view",
      "type": "function"
    },
    {
      "inputs": [
        {
          "internalType": "uint256",
          "name": "tokenId",
          "type": "uint256"
        },
        {
          "internalType": "uint256",
          "name": "salePrice",
          "type": "uint256"
        }
      ],
      "name": "royaltyInfo",
      "outputs": [
        {
          "internalType": "address",
          "name": "receiver",
          "type": "address"
        },
        {
          "internalType": "uint256",
          "name": "royaltyAmount",
          "type": "uint256"
        }
      ],
      "stateMutability": "view",
      "type": "function"
    },
    {
      "inputs": [
        {
          "internalType": "address",
          "name": "from",
          "type": "address"
        },
        {
          "internalType": "address",
          "name": "to",
          "type": "address"
        },
        {
          "internalType": "uint256[]",
          "name": "ids",
          "type": "uint256[]"
        },
        {
          "internalType": "uint256[]",
          "name": "amounts",
          "type": "uint256[]"
        },
        {
          "internalType": "bytes",
          "name": "data",
          "type": "bytes"
        }
      ],
      "name": "safeBatchTransferFrom",
      "outputs": [],
      "stateMutability": "nonpayable",
      "type": "function"
    },
    {
      "inputs": [
        {
          "internalType": "address",
          "name": "from",
          "type": "address"
        },
        {
          "internalType": "address",
          "name": "to",
          "type": "address"
        },
        {
          "internalType": "uint256",
          "name": "id",
          "type": "uint256"
        },
        {
          "internalType": "uint256",
          "name": "amount",
          "type": "uint256"
        },
        {
          "internalType": "bytes",
          "name": "data",
          "type": "bytes"
        }
      ],
      "name": "safeTransferFrom",
      "outputs": [],
      "stateMutability": "nonpayable",
      "type": "function"
    },
    {
      "inputs": [
        {
          "internalType": "address",
          "name": "operator",
          "type": "address"
        },
        {
          "internalType": "bool",
          "name": "approved",
          "type": "bool"
        }
      ],
      "name": "setApprovalForAll",
      "outputs": [],
      "stateMutability": "nonpayable",
      "type": "function"
    },
    {
      "inputs": [
        {
          "internalType": "string",
          "name": "_uri",
          "type": "string"
        }
      ],
      "name": "setContractURI",
      "outputs": [],
      "stateMutability": "nonpayable",
      "type": "function"
    },
    {
      "inputs": [
        {
          "internalType": "address",
          "name": "_royaltyRecipient",
          "type": "address"
        },
        {
          "internalType": "uint256",
          "name": "_royaltyBps",
          "type": "uint256"
        }
      ],
      "name": "setDefaultRoyaltyInfo",
      "outputs": [],
      "stateMutability": "nonpayable",
      "type": "function"
    },
    {
      "inputs": [
        {
          "internalType": "bool",
          "name": "_restriction",
          "type": "bool"
        }
      ],
      "name": "setOperatorRestriction",
      "outputs": [],
      "stateMutability": "nonpayable",
      "type": "function"
    },
    {
      "inputs": [
        {
          "internalType": "address",
          "name": "_newOwner",
          "type": "address"
        }
      ],
      "name": "setOwner",
      "outputs": [],
      "stateMutability": "nonpayable",
      "type": "function"
    },
    {
      "inputs": [
        {
          "internalType": "uint256",
          "name": "_tokenId",
          "type": "uint256"
        },
        {
          "internalType": "address",
          "name": "_recipient",
          "type": "address"
        },
        {
          "internalType": "uint256",
          "name": "_bps",
          "type": "uint256"
        }
      ],
      "name": "setRoyaltyInfoForToken",
      "outputs": [],
      "stateMutability": "nonpayable",
      "type": "function"
    },
    {
      "inputs": [
        {
          "internalType": "bytes4",
          "name": "interfaceId",
          "type": "bytes4"
        }
      ],
      "name": "supportsInterface",
      "outputs": [
        {
          "internalType": "bool",
          "name": "",
          "type": "bool"
        }
      ],
      "stateMutability": "view",
      "type": "function"
    },
    {
      "inputs": [],
      "name": "symbol",
      "outputs": [
        {
          "internalType": "string",
          "name": "",
          "type": "string"
        }
      ],
      "stateMutability": "view",
      "type": "function"
    },
    {
      "inputs": [
        {
          "internalType": "uint256",
          "name": "",
          "type": "uint256"
        }
      ],
      "name": "totalSupply",
      "outputs": [
        {
          "internalType": "uint256",
          "name": "",
          "type": "uint256"
        }
      ],
      "stateMutability": "view",
      "type": "function"
    },
    {
      "inputs": [
        {
          "internalType": "uint256",
          "name": "_tokenId",
          "type": "uint256"
        }
      ],
      "name": "uri",
      "outputs": [
        {
          "internalType": "string",
          "name": "",
          "type": "string"
        }
      ],
      "stateMutability": "view",
      "type": "function"
    }
  ],
  "bytecode": "0x60806040523480156200001157600080fd5b5060405162003dbc38038062003dbc8339810160408190526200003491620003f4565b733cc6cdda760b79bafa08df41ecfa224f810dceb66001858560006200005b83826200052f565b5060016200006a82826200052f565b5050506daaeb6d7670e522a718067333cd4e3b15620001b25780156200010057604051633e9f1edf60e11b81523060048201526001600160a01b03831660248201526daaeb6d7670e522a718067333cd4e90637d3e3dbe906044015b600060405180830381600087803b158015620000e157600080fd5b505af1158015620000f6573d6000803e3d6000fd5b50505050620001b2565b6001600160a01b03821615620001515760405163a0af290360e01b81523060048201526001600160a01b03831660248201526daaeb6d7670e522a718067333cd4e9063a0af290390604401620000c6565b604051632210724360e11b81523060048201526daaeb6d7670e522a718067333cd4e90634420e48690602401600060405180830381600087803b1580156200019857600080fd5b505af1158015620001ad573d6000803e3d6000fd5b505050505b50620001c0905033620001eb565b620001d5826001600160801b0383166200023d565b620001e16001620002e8565b50505050620005fb565b600680546001600160a01b038381166001600160a01b0319831681179093556040519116919082907f8292fce18fa69edf4db7b94ea2e58241df0ae57f97e0a6c9b29067028bf92d7690600090a35050565b612710811115620002865760405162461bcd60e51b815260206004820152600f60248201526e45786365656473206d61782062707360881b604482015260640160405180910390fd5b600780546001600160a01b0384166001600160b01b03199091168117600160a01b61ffff851602179091556040518281527f90d7ec04bcb8978719414f82e52e4cb651db41d0e6f8cea6118c2191e6183adb9060200160405180910390a25050565b600b805460ff19168215159081179091556040519081527f38475885990d8dfe9ca01f0ef160a1b5514426eab9ddbc953a3353410ba780969060200160405180910390a150565b634e487b7160e01b600052604160045260246000fd5b600082601f8301126200035757600080fd5b81516001600160401b03808211156200037457620003746200032f565b604051601f8301601f19908116603f011681019082821181831017156200039f576200039f6200032f565b81604052838152602092508683858801011115620003bc57600080fd5b600091505b83821015620003e05785820183015181830184015290820190620003c1565b600093810190920192909252949350505050565b600080600080608085870312156200040b57600080fd5b84516001600160401b03808211156200042357600080fd5b620004318883890162000345565b955060208701519150808211156200044857600080fd5b50620004578782880162000345565b604087015190945090506001600160a01b03811681146200047757600080fd5b60608601519092506001600160801b03811681146200049557600080fd5b939692955090935050565b600181811c90821680620004b557607f821691505b602082108103620004d657634e487b7160e01b600052602260045260246000fd5b50919050565b601f8211156200052a57600081815260208120601f850160051c81016020861015620005055750805b601f850160051c820191505b81811015620005265782815560010162000511565b5050505b505050565b81516001600160401b038111156200054b576200054b6200032f565b62000563816200055c8454620004a0565b84620004dc565b602080601f8311600181146200059b5760008415620005825750858301515b600019600386901b1c1916600185901b17855562000526565b600085815260208120601f198616915b82811015620005cc57888601518255948401946001909101908401620005ab565b5085821015620005eb5787850151600019600388901b60f8161c191681555b5050505050600190811b01905550565b6137b1806200060b6000396000f3fe608060405234801561001057600080fd5b50600436106101e45760003560e01c806363b45e2d1161010f578063ac9650d8116100a2578063e8a3d48511610071578063e8a3d4851461048d578063e985e9c514610495578063f242432a146104c3578063f5298aca146104d657600080fd5b8063ac9650d81461041c578063b03f45281461043c578063b24f2d391461044f578063bd85b0391461046d57600080fd5b8063949c09f7116100de578063949c09f7146103db57806395d89b41146103ee5780639bcf7a15146103f6578063a22cb4651461040957600080fd5b806363b45e2d1461039c5780636b20c454146103a45780638da5cb5b146103b7578063938e3d7b146103c857600080fd5b80632eb2c2d6116101875780634cc157df116101565780634cc157df146103275780634e1273f41461035c578063504c6e011461037c578063600dd5ea1461038957600080fd5b80632eb2c2d6146102cc57806332f0cd64146102df5780633b1475a7146102f257806341f43434146102fa57600080fd5b80630e89341c116101c35780630e89341c1461025f57806313af4035146102725780632419f51b146102875780632a55205a1461029a57600080fd5b8062fdd58e146101e957806301ffc9a71461022757806306fdde031461024a575b600080fd5b6102146101f7366004612ae8565b600260209081526000928352604080842090915290825290205481565b6040519081526020015b60405180910390f35b61023a610235366004612b28565b6104e9565b604051901515815260200161021e565b6102526105ba565b60405161021e9190612b95565b61025261026d366004612ba8565b610648565b610285610280366004612bc1565b610736565b005b610214610295366004612ba8565b61078c565b6102ad6102a8366004612bdc565b61080a565b604080516001600160a01b03909316835260208301919091520161021e565b6102856102da366004612d4a565b610847565b6102856102ed366004612e02565b610876565b600c54610214565b61030f6daaeb6d7670e522a718067333cd4e81565b6040516001600160a01b03909116815260200161021e565b61033a610335366004612ba8565b6108f9565b604080516001600160a01b03909316835261ffff90911660208301520161021e565b61036f61036a366004612e1f565b610964565b60405161021e9190612f25565b600b5461023a9060ff1681565b610285610397366004612ae8565b610a9b565b600954610214565b6102856103b2366004612f38565b610aee565b6006546001600160a01b031661030f565b6102856103d6366004612fac565b610cb0565b6102856103e9366004612fe1565b610cfe565b610252610f15565b61028561040436600461307a565b610f22565b6102856104173660046130af565b610f77565b61042f61042a3660046130e6565b610f8b565b60405161021e919061315b565b61028561044a3660046131bd565b611080565b6007546001600160a01b03811690600160a01b900461ffff1661033a565b61021461047b366004612ba8565b600d6020526000908152604090205481565b610252611171565b61023a6104a336600461321c565b600360209081526000928352604080842090915290825290205460ff1681565b6102856104d136600461324f565b61117e565b6102856104e43660046132b4565b6111a5565b60007f01ffc9a7000000000000000000000000000000000000000000000000000000006001600160e01b03198316148061054c57507fd9b67a26000000000000000000000000000000000000000000000000000000006001600160e01b03198316145b8061058057507f0e89341c000000000000000000000000000000000000000000000000000000006001600160e01b03198316145b806105b457506001600160e01b031982167f2a55205a00000000000000000000000000000000000000000000000000000000145b92915050565b600080546105c7906132e7565b80601f01602080910402602001604051908101604052809291908181526020018280546105f3906132e7565b80156106405780601f1061061557610100808354040283529160200191610640565b820191906000526020600020905b81548152906001019060200180831161062357829003601f168201915b505050505081565b600081815260046020526040812080546060929190610666906132e7565b80601f0160208091040260200160405190810160405280929190818152602001828054610692906132e7565b80156106df5780601f106106b4576101008083540402835291602001916106df565b820191906000526020600020905b8154815290600101906020018083116106c257829003601f168201915b505050505090506000815111156106f65792915050565b6000610701846112ac565b90508061070d85611456565b60405160200161071e929190613321565b60405160208183030381529060405292505050919050565b61073e611593565b6107805760405162461bcd60e51b815260206004820152600e60248201526d139bdd08185d5d1a1bdc9a5e995960921b60448201526064015b60405180910390fd5b610789816115c0565b50565b600061079760095490565b82106107e55760405162461bcd60e51b815260206004820152600d60248201527f496e76616c696420696e646578000000000000000000000000000000000000006044820152606401610777565b600982815481106107f8576107f8613350565b90600052602060002001549050919050565b600080600080610819866108f9565b90945084925061ffff169050612710610832828761337c565b61083c91906133a9565b925050509250929050565b846001600160a01b0381163314610861576108613361161f565b61086e8686868686611715565b505050505050565b61087e611593565b6108f05760405162461bcd60e51b815260206004820152602b60248201527f4e6f7420617574686f72697a656420746f20736574206f70657261746f72207260448201527f65737472696374696f6e2e0000000000000000000000000000000000000000006064820152608401610777565b610789816117af565b6000818152600860209081526040808320815180830190925280546001600160a01b031680835260019091015492820192909252829115610940578051602082015161095a565b6007546001600160a01b03811690600160a01b900461ffff165b9250925050915091565b606081518351146109a95760405162461bcd60e51b815260206004820152600f60248201526e0988a9c8ea890be9a92a69a82a8869608b1b6044820152606401610777565b6000835167ffffffffffffffff8111156109c5576109c5612bfe565b6040519080825280602002602001820160405280156109ee578160200160208202803683370190505b50905060005b8451811015610a935760026000868381518110610a1357610a13613350565b60200260200101516001600160a01b03166001600160a01b031681526020019081526020016000206000858381518110610a4f57610a4f613350565b6020026020010151815260200190815260200160002054828281518110610a7857610a78613350565b6020908102919091010152610a8c816133bd565b90506109f4565b509392505050565b610aa3611593565b610ae05760405162461bcd60e51b815260206004820152600e60248201526d139bdd08185d5d1a1bdc9a5e995960921b6044820152606401610777565b610aea82826117f6565b5050565b336001600160a01b038416811480610b2b57506001600160a01b0380851660009081526003602090815260408083209385168352929052205460ff165b610b775760405162461bcd60e51b815260206004820152601160248201527f556e617070726f7665642063616c6c65720000000000000000000000000000006044820152606401610777565b8151835114610bc85760405162461bcd60e51b815260206004820152600f60248201527f4c656e677468206d69736d6174636800000000000000000000000000000000006044820152606401610777565b60005b8351811015610c9e57828181518110610be657610be6613350565b602002602001015160026000876001600160a01b03166001600160a01b031681526020019081526020016000206000868481518110610c2757610c27613350565b60200260200101518152602001908152602001600020541015610c8c5760405162461bcd60e51b815260206004820152601760248201527f4e6f7420656e6f75676820746f6b656e73206f776e65640000000000000000006044820152606401610777565b610c976001826133d6565b9050610bcb565b50610caa8484846118c2565b50505050565b610cb8611593565b610cf55760405162461bcd60e51b815260206004820152600e60248201526d139bdd08185d5d1a1bdc9a5e995960921b6044820152606401610777565b61078981611acb565b610d06611593565b610d525760405162461bcd60e51b815260206004820152601760248201527f4e6f7420617574686f72697a656420746f206d696e742e0000000000000000006044820152606401610777565b6000825111610da35760405162461bcd60e51b815260206004820152601460248201527f4d696e74696e67207a65726f20746f6b656e732e0000000000000000000000006044820152606401610777565b8151835114610df45760405162461bcd60e51b815260206004820152601060248201527f4c656e677468206d69736d617463682e000000000000000000000000000000006044820152606401610777565b6000610dff600c5490565b9050806000805b8651811015610ed557600019878281518110610e2457610e24613350565b602002602001015103610e6e5783878281518110610e4457610e44613350565b6020908102919091010152610e5a6001856133d6565b9350610e676001836133d6565b9150610ec3565b83878281518110610e8157610e81613350565b602002602001015110610ec35760405162461bcd60e51b815260206004820152600a6024820152691a5b9d985b1a59081a5960b21b6044820152606401610777565b610ece6001826133d6565b9050610e06565b508015610eea57610ee7828286611ba7565b50505b82600c81905550610f0c87878760405180602001604052806000815250611c0b565b50505050505050565b600180546105c7906132e7565b610f2a611593565b610f675760405162461bcd60e51b815260206004820152600e60248201526d139bdd08185d5d1a1bdc9a5e995960921b6044820152606401610777565b610f72838383611da7565b505050565b81610f818161161f565b610f728383611e8c565b60608167ffffffffffffffff811115610fa657610fa6612bfe565b604051908082528060200260200182016040528015610fd957816020015b6060815260200190600190039081610fc45790505b50905060005b828110156110795761104930858584818110610ffd57610ffd613350565b905060200281019061100f91906133e9565b8080601f016020809104026020016040519081016040528093929190818152602001838380828437600092019190915250611f4a92505050565b82828151811061105b5761105b613350565b60200260200101819052508080611071906133bd565b915050610fdf565b5092915050565b611088611593565b6110d45760405162461bcd60e51b815260206004820152601760248201527f4e6f7420617574686f72697a656420746f206d696e742e0000000000000000006044820152606401610777565b6000806110e0600c5490565b90506000198503611116578091506001600c600082825461110191906133d6565b9091555061111190508185611f76565b611156565b8085106111525760405162461bcd60e51b815260206004820152600a6024820152691a5b9d985b1a59081a5960b21b6044820152606401610777565b8491505b61086e86838560405180602001604052806000815250611f8e565b600580546105c7906132e7565b846001600160a01b0381163314611198576111983361161f565b61086e8686868686612086565b336001600160a01b0384168114806111e257506001600160a01b0380851660009081526003602090815260408083209385168352929052205460ff165b61122e5760405162461bcd60e51b815260206004820152601160248201527f556e617070726f7665642063616c6c65720000000000000000000000000000006044820152606401610777565b6001600160a01b03841660009081526002602090815260408083208684529091529020548211156112a15760405162461bcd60e51b815260206004820152601760248201527f4e6f7420656e6f75676820746f6b656e73206f776e65640000000000000000006044820152606401610777565b610caa848484612119565b606060006112b960095490565b90506000600980548060200260200160405190810160405280929190818152602001828054801561130957602002820191906000526020600020905b8154815260200190600101908083116112f5575b5050505050905060005b8281101561140d5781818151811061132d5761132d613350565b60200260200101518510156113fb57600a600083838151811061135257611352613350565b602002602001015181526020019081526020016000208054611373906132e7565b80601f016020809104026020016040519081016040528092919081815260200182805461139f906132e7565b80156113ec5780601f106113c1576101008083540402835291602001916113ec565b820191906000526020600020905b8154815290600101906020018083116113cf57829003601f168201915b50505050509350505050919050565b6114066001826133d6565b9050611313565b5060405162461bcd60e51b815260206004820152600f60248201527f496e76616c696420746f6b656e496400000000000000000000000000000000006044820152606401610777565b60608160000361149957505060408051808201909152600181527f3000000000000000000000000000000000000000000000000000000000000000602082015290565b8160005b81156114c357806114ad816133bd565b91506114bc9050600a836133a9565b915061149d565b60008167ffffffffffffffff8111156114de576114de612bfe565b6040519080825280601f01601f191660200182016040528015611508576020820181803683370190505b5090505b841561158b5761151d600183613437565b915061152a600a8661344a565b6115359060306133d6565b60f81b81838151811061154a5761154a613350565b60200101907effffffffffffffffffffffffffffffffffffffffffffffffffffffffffffff1916908160001a905350611584600a866133a9565b945061150c565b949350505050565b60006115a76006546001600160a01b031690565b6001600160a01b0316336001600160a01b031614905090565b600680546001600160a01b0383811673ffffffffffffffffffffffffffffffffffffffff19831681179093556040519116919082907f8292fce18fa69edf4db7b94ea2e58241df0ae57f97e0a6c9b29067028bf92d7690600090a35050565b600b5460ff1615610789576daaeb6d7670e522a718067333cd4e3b15610789576040517fc61711340000000000000000000000000000000000000000000000000000000081523060048201526001600160a01b03821660248201526daaeb6d7670e522a718067333cd4e9063c617113490604401602060405180830381865afa1580156116b0573d6000803e3d6000fd5b505050506040513d601f19601f820116820180604052508101906116d4919061345e565b610789576040517fede71dcc0000000000000000000000000000000000000000000000000000000081526001600160a01b0382166004820152602401610777565b6001600160a01b03851633148061174f57506001600160a01b038516600090815260036020908152604080832033845290915290205460ff165b61179b5760405162461bcd60e51b815260206004820152601260248201527f214f574e45525f4f525f415050524f56454400000000000000000000000000006044820152606401610777565b6117a88585858585612270565b5050505050565b600b805460ff19168215159081179091556040519081527f38475885990d8dfe9ca01f0ef160a1b5514426eab9ddbc953a3353410ba780969060200160405180910390a150565b6127108111156118485760405162461bcd60e51b815260206004820152600f60248201527f45786365656473206d61782062707300000000000000000000000000000000006044820152606401610777565b600780546001600160a01b0384167fffffffffffffffffffff000000000000000000000000000000000000000000009091168117600160a01b61ffff851602179091556040518281527f90d7ec04bcb8978719414f82e52e4cb651db41d0e6f8cea6118c2191e6183adb9060200160405180910390a25050565b6001600160a01b0383166119185760405162461bcd60e51b815260206004820152600e60248201527f46524f4d5f5a45524f5f414444520000000000000000000000000000000000006044820152606401610777565b805182511461195b5760405162461bcd60e51b815260206004820152600f60248201526e0988a9c8ea890be9a92a69a82a8869608b1b6044820152606401610777565b600033905061197e81856000868660405180602001604052806000815250612487565b60005b8351811015611a6c57600084828151811061199e5761199e613350565b6020026020010151905060008483815181106119bc576119bc613350565b6020908102919091018101516001600160a01b0389166000908152600283526040808220868352909352919091205490915081811015611a315760405162461bcd60e51b815260206004820152601060248201526f125394d551919250d251539517d0905360821b6044820152606401610777565b6001600160a01b0388166000908152600260209081526040808320958352949052929092209103905580611a64816133bd565b915050611981565b5060006001600160a01b0316846001600160a01b0316826001600160a01b03167f4a39dc06d4c0dbc64b70af90fd698a233a518aa5d07e595d983b8c0526c8f7fb8686604051611abd92919061347b565b60405180910390a450505050565b600060058054611ada906132e7565b80601f0160208091040260200160405190810160405280929190818152602001828054611b06906132e7565b8015611b535780601f10611b2857610100808354040283529160200191611b53565b820191906000526020600020905b815481529060010190602001808311611b3657829003601f168201915b505050505090508160059081611b6991906134ef565b507fc9c7c3fe08b88b4df9d4d47ef47d2c43d55c025a0ba88ca442580ed9e7348a168183604051611b9b9291906135af565b60405180910390a15050565b600080611bb484866133d6565b60098054600181019091557f6e1540171b6c0c960b71a7020d9f60077f6af931a8bbf590da0223dacf75c7af018190556000818152600a60205260409020909250829150611c0284826134ef565b50935093915050565b6001600160a01b038416611c505760405162461bcd60e51b815260206004820152600c60248201526b2a27afad22a927afa0a2222960a11b6044820152606401610777565b8151835114611c935760405162461bcd60e51b815260206004820152600f60248201526e0988a9c8ea890be9a92a69a82a8869608b1b6044820152606401610777565b33611ca381600087878787612487565b60005b8451811015611d3f57838181518110611cc157611cc1613350565b602002602001015160026000886001600160a01b03166001600160a01b031681526020019081526020016000206000878481518110611d0257611d02613350565b602002602001015181526020019081526020016000206000828254611d2791906133d6565b90915550819050611d37816133bd565b915050611ca6565b50846001600160a01b031660006001600160a01b0316826001600160a01b03167f4a39dc06d4c0dbc64b70af90fd698a233a518aa5d07e595d983b8c0526c8f7fb8787604051611d9092919061347b565b60405180910390a46117a881600087878787612593565b612710811115611df95760405162461bcd60e51b815260206004820152600f60248201527f45786365656473206d61782062707300000000000000000000000000000000006044820152606401610777565b6040805180820182526001600160a01b0384811680835260208084018681526000898152600883528690209451855473ffffffffffffffffffffffffffffffffffffffff1916941693909317845591516001909301929092559151838152909185917f7365cf4122f072a3365c20d54eff9b38d73c096c28e1892ec8f5b0e403a0f12d91015b60405180910390a3505050565b336001600160a01b0383168103611ee55760405162461bcd60e51b815260206004820152600e60248201527f415050524f56494e475f53454c460000000000000000000000000000000000006044820152606401610777565b6001600160a01b03818116600081815260036020908152604080832094881680845294825291829020805460ff191687151590811790915591519182527f17307eab39ab6107e8899845ad3d59bd9653f200f220920489ca2b5937696c319101611e7f565b6060611f6f838360405180606001604052806027815260200161375560279139612701565b9392505050565b6000828152600460205260409020610f7282826134ef565b6001600160a01b038416611fd35760405162461bcd60e51b815260206004820152600c60248201526b2a27afad22a927afa0a2222960a11b6044820152606401610777565b33611ff381600087611fe4886127f5565b611fed886127f5565b87612487565b6001600160a01b0385166000908152600260209081526040808320878452909152812080548592906120269084906133d6565b909155505060408051858152602081018590526001600160a01b0380881692600092918516917fc3d58168c5ae7397731d063d5bbf3d657854427343f4c083240f7aacaa2d0f62910160405180910390a46117a881600087878787612840565b6001600160a01b0385163314806120c057506001600160a01b038516600090815260036020908152604080832033845290915290205460ff165b61210c5760405162461bcd60e51b815260206004820152601260248201527f214f574e45525f4f525f415050524f56454400000000000000000000000000006044820152606401610777565b6117a8858585858561292b565b6001600160a01b03831661216f5760405162461bcd60e51b815260206004820152600e60248201527f46524f4d5f5a45524f5f414444520000000000000000000000000000000000006044820152606401610777565b3361219e81856000612180876127f5565b612189876127f5565b60405180602001604052806000815250612487565b6001600160a01b0384166000908152600260209081526040808320868452909152902054828110156122055760405162461bcd60e51b815260206004820152601060248201526f125394d551919250d251539517d0905360821b6044820152606401610777565b6001600160a01b03858116600081815260026020908152604080832089845282528083208887039055805189815291820188905291938616917fc3d58168c5ae7397731d063d5bbf3d657854427343f4c083240f7aacaa2d0f62910160405180910390a45050505050565b81518351146122b35760405162461bcd60e51b815260206004820152600f60248201526e0988a9c8ea890be9a92a69a82a8869608b1b6044820152606401610777565b6001600160a01b0384166122f85760405162461bcd60e51b815260206004820152600c60248201526b2a27afad22a927afa0a2222960a11b6044820152606401610777565b33612307818787878787612487565b60005b845181101561242157600085828151811061232757612327613350565b60200260200101519050600085838151811061234557612345613350565b6020908102919091018101516001600160a01b038b1660009081526002835260408082208683529093529190912054909150818110156123ba5760405162461bcd60e51b815260206004820152601060248201526f125394d551919250d251539517d0905360821b6044820152606401610777565b6001600160a01b03808b16600090815260026020818152604080842088855282528084208787039055938d168352908152828220868352905290812080548492906124069084906133d6565b925050819055505050508061241a906133bd565b905061230a565b50846001600160a01b0316866001600160a01b0316826001600160a01b03167f4a39dc06d4c0dbc64b70af90fd698a233a518aa5d07e595d983b8c0526c8f7fb878760405161247192919061347b565b60405180910390a461086e818787878787612593565b6001600160a01b03851661250e5760005b835181101561250c578281815181106124b3576124b3613350565b6020026020010151600d60008684815181106124d1576124d1613350565b6020026020010151815260200190815260200160002060008282546124f691906133d6565b909155506125059050816133bd565b9050612498565b505b6001600160a01b03841661086e5760005b8351811015610f0c5782818151811061253a5761253a613350565b6020026020010151600d600086848151811061255857612558613350565b60200260200101518152602001908152602001600020600082825461257d9190613437565b9091555061258c9050816133bd565b905061251f565b6001600160a01b0384163b1561086e5760405163bc197c8160e01b81526001600160a01b0385169063bc197c81906125d790899089908890889088906004016135d4565b6020604051808303816000875af1925050508015612612575060408051601f3d908101601f1916820190925261260f91810190613632565b60015b6126a15761261e61364f565b806308c379a003612657575061263261366b565b8061263d5750612659565b8060405162461bcd60e51b81526004016107779190612b95565b505b60405162461bcd60e51b815260206004820152601060248201527f21455243313135355245434549564552000000000000000000000000000000006044820152606401610777565b6001600160e01b0319811663bc197c8160e01b14610f0c5760405162461bcd60e51b815260206004820152600f60248201527f544f4b454e535f52454a454354454400000000000000000000000000000000006044820152606401610777565b60606001600160a01b0384163b6127805760405162461bcd60e51b815260206004820152602660248201527f416464726573733a2064656c65676174652063616c6c20746f206e6f6e2d636f60448201527f6e747261637400000000000000000000000000000000000000000000000000006064820152608401610777565b600080856001600160a01b03168560405161279b91906136f5565b600060405180830381855af49150503d80600081146127d6576040519150601f19603f3d011682016040523d82523d6000602084013e6127db565b606091505b50915091506127eb828286612a93565b9695505050505050565b6040805160018082528183019092526060916000919060208083019080368337019050509050828160008151811061282f5761282f613350565b602090810291909101015292915050565b6001600160a01b0384163b1561086e5760405163f23a6e6160e01b81526001600160a01b0385169063f23a6e61906128849089908990889088908890600401613711565b6020604051808303816000875af19250505080156128bf575060408051601f3d908101601f191682019092526128bc91810190613632565b60015b6128cb5761261e61364f565b6001600160e01b0319811663f23a6e6160e01b14610f0c5760405162461bcd60e51b815260206004820152600f60248201527f544f4b454e535f52454a454354454400000000000000000000000000000000006044820152606401610777565b6001600160a01b0384166129705760405162461bcd60e51b815260206004820152600c60248201526b2a27afad22a927afa0a2222960a11b6044820152606401610777565b33612980818787611fe4886127f5565b6001600160a01b0386166000908152600260209081526040808320878452909152902054838110156129e75760405162461bcd60e51b815260206004820152601060248201526f125394d551919250d251539517d0905360821b6044820152606401610777565b6001600160a01b0380881660009081526002602081815260408084208a855282528084208987039055938a16835290815282822088835290529081208054869290612a339084906133d6565b909155505060408051868152602081018690526001600160a01b03808916928a821692918616917fc3d58168c5ae7397731d063d5bbf3d657854427343f4c083240f7aacaa2d0f62910160405180910390a4610f0c828888888888612840565b60608315612aa2575081611f6f565b825115612ab25782518084602001fd5b8160405162461bcd60e51b81526004016107779190612b95565b80356001600160a01b0381168114612ae357600080fd5b919050565b60008060408385031215612afb57600080fd5b612b0483612acc565b946020939093013593505050565b6001600160e01b03198116811461078957600080fd5b600060208284031215612b3a57600080fd5b8135611f6f81612b12565b60005b83811015612b60578181015183820152602001612b48565b50506000910152565b60008151808452612b81816020860160208601612b45565b601f01601f19169290920160200192915050565b602081526000611f6f6020830184612b69565b600060208284031215612bba57600080fd5b5035919050565b600060208284031215612bd357600080fd5b611f6f82612acc565b60008060408385031215612bef57600080fd5b50508035926020909101359150565b634e487b7160e01b600052604160045260246000fd5b601f8201601f1916810167ffffffffffffffff81118282101715612c3a57612c3a612bfe565b6040525050565b600067ffffffffffffffff821115612c5b57612c5b612bfe565b5060051b60200190565b600082601f830112612c7657600080fd5b81356020612c8382612c41565b604051612c908282612c14565b83815260059390931b8501820192828101915086841115612cb057600080fd5b8286015b84811015612ccb5780358352918301918301612cb4565b509695505050505050565b600082601f830112612ce757600080fd5b813567ffffffffffffffff811115612d0157612d01612bfe565b604051612d18601f8301601f191660200182612c14565b818152846020838601011115612d2d57600080fd5b816020850160208301376000918101602001919091529392505050565b600080600080600060a08688031215612d6257600080fd5b612d6b86612acc565b9450612d7960208701612acc565b9350604086013567ffffffffffffffff80821115612d9657600080fd5b612da289838a01612c65565b94506060880135915080821115612db857600080fd5b612dc489838a01612c65565b93506080880135915080821115612dda57600080fd5b50612de788828901612cd6565b9150509295509295909350565b801515811461078957600080fd5b600060208284031215612e1457600080fd5b8135611f6f81612df4565b60008060408385031215612e3257600080fd5b823567ffffffffffffffff80821115612e4a57600080fd5b818501915085601f830112612e5e57600080fd5b81356020612e6b82612c41565b604051612e788282612c14565b83815260059390931b8501820192828101915089841115612e9857600080fd5b948201945b83861015612ebd57612eae86612acc565b82529482019490820190612e9d565b96505086013592505080821115612ed357600080fd5b50612ee085828601612c65565b9150509250929050565b600081518084526020808501945080840160005b83811015612f1a57815187529582019590820190600101612efe565b509495945050505050565b602081526000611f6f6020830184612eea565b600080600060608486031215612f4d57600080fd5b612f5684612acc565b9250602084013567ffffffffffffffff80821115612f7357600080fd5b612f7f87838801612c65565b93506040860135915080821115612f9557600080fd5b50612fa286828701612c65565b9150509250925092565b600060208284031215612fbe57600080fd5b813567ffffffffffffffff811115612fd557600080fd5b61158b84828501612cd6565b60008060008060808587031215612ff757600080fd5b61300085612acc565b9350602085013567ffffffffffffffff8082111561301d57600080fd5b61302988838901612c65565b9450604087013591508082111561303f57600080fd5b61304b88838901612c65565b9350606087013591508082111561306157600080fd5b5061306e87828801612cd6565b91505092959194509250565b60008060006060848603121561308f57600080fd5b8335925061309f60208501612acc565b9150604084013590509250925092565b600080604083850312156130c257600080fd5b6130cb83612acc565b915060208301356130db81612df4565b809150509250929050565b600080602083850312156130f957600080fd5b823567ffffffffffffffff8082111561311157600080fd5b818501915085601f83011261312557600080fd5b81358181111561313457600080fd5b8660208260051b850101111561314957600080fd5b60209290920196919550909350505050565b6000602080830181845280855180835260408601915060408160051b870101925083870160005b828110156131b057603f1988860301845261319e858351612b69565b94509285019290850190600101613182565b5092979650505050505050565b600080600080608085870312156131d357600080fd5b6131dc85612acc565b935060208501359250604085013567ffffffffffffffff8111156131ff57600080fd5b61320b87828801612cd6565b949793965093946060013593505050565b6000806040838503121561322f57600080fd5b61323883612acc565b915061324660208401612acc565b90509250929050565b600080600080600060a0868803121561326757600080fd5b61327086612acc565b945061327e60208701612acc565b93506040860135925060608601359150608086013567ffffffffffffffff8111156132a857600080fd5b612de788828901612cd6565b6000806000606084860312156132c957600080fd5b6132d284612acc565b95602085013595506040909401359392505050565b600181811c908216806132fb57607f821691505b60208210810361331b57634e487b7160e01b600052602260045260246000fd5b50919050565b60008351613333818460208801612b45565b835190830190613347818360208801612b45565b01949350505050565b634e487b7160e01b600052603260045260246000fd5b634e487b7160e01b600052601160045260246000fd5b80820281158282048414176105b4576105b4613366565b634e487b7160e01b600052601260045260246000fd5b6000826133b8576133b8613393565b500490565b6000600182016133cf576133cf613366565b5060010190565b808201808211156105b4576105b4613366565b6000808335601e1984360301811261340057600080fd5b83018035915067ffffffffffffffff82111561341b57600080fd5b60200191503681900382131561343057600080fd5b9250929050565b818103818111156105b4576105b4613366565b60008261345957613459613393565b500690565b60006020828403121561347057600080fd5b8151611f6f81612df4565b60408152600061348e6040830185612eea565b82810360208401526134a08185612eea565b95945050505050565b601f821115610f7257600081815260208120601f850160051c810160208610156134d05750805b601f850160051c820191505b8181101561086e578281556001016134dc565b815167ffffffffffffffff81111561350957613509612bfe565b61351d8161351784546132e7565b846134a9565b602080601f831160018114613552576000841561353a5750858301515b600019600386901b1c1916600185901b17855561086e565b600085815260208120601f198616915b8281101561358157888601518255948401946001909101908401613562565b508582101561359f5787850151600019600388901b60f8161c191681555b5050505050600190811b01905550565b6040815260006135c26040830185612b69565b82810360208401526134a08185612b69565b60006001600160a01b03808816835280871660208401525060a0604083015261360060a0830186612eea565b82810360608401526136128186612eea565b905082810360808401526136268185612b69565b98975050505050505050565b60006020828403121561364457600080fd5b8151611f6f81612b12565b600060033d11156136685760046000803e5060005160e01c5b90565b600060443d10156136795790565b6040516003193d81016004833e81513d67ffffffffffffffff81602484011181841117156136a957505050505090565b82850191508151818111156136c15750505050505090565b843d87010160208285010111156136db5750505050505090565b6136ea60208286010187612c14565b509095945050505050565b60008251613707818460208701612b45565b9190910192915050565b60006001600160a01b03808816835280871660208401525084604083015283606083015260a0608083015261374960a0830184612b69565b97965050505050505056fe416464726573733a206c6f772d6c6576656c2064656c65676174652063616c6c206661696c6564a2646970667358221220a1ed43a11e04a4c1aa0d52e8b84d58a84737d7382b69d843949041c2c860fbb664736f6c63430008110033",
  "linkReferences": {},
  "deployedLinkReferences": {}
}