{
  "_format": "hh-sol-artifact-1",
  "contractName": "BatchMintMetadata",
  "sourceName": "@thirdweb-dev/contracts/extension/BatchMintMetadata.sol",
  "abi": [
    {
      "inputs": [],
      "name": "getBaseURICount",
      "outputs": [
        {
          "internalType": "uint256",
          "name": "",
          "type": "uint256"
        }
      ],
      "stateMutability": "view",
      "type": "function"
    },
    {
      "inputs": [
        {
          "internalType": "uint256",
          "name": "_index",
          "type": "uint256"
        }
      ],
      "name": "getBatchIdAtIndex",
      "outputs": [
        {
          "internalType": "uint256",
          "name": "",
          "type": "uint256"
        }
      ],
      "stateMutability": "view",
      "type": "function"
    }
  ],
  "bytecode": "0x608060405234801561001057600080fd5b5061017b806100206000396000f3fe608060405234801561001057600080fd5b50600436106100365760003560e01c80632419f51b1461003b57806363b45e2d14610060575b600080fd5b61004e6100493660046100fd565b610068565b60405190815260200160405180910390f35b60005461004e565b6000805482106100d8576040517f08c379a000000000000000000000000000000000000000000000000000000000815260206004820152600d60248201527f496e76616c696420696e64657800000000000000000000000000000000000000604482015260640160405180910390fd5b600082815481106100eb576100eb610116565b90600052602060002001549050919050565b60006020828403121561010f57600080fd5b5035919050565b7f4e487b7100000000000000000000000000000000000000000000000000000000600052603260045260246000fdfea264697066735822122002cc035008b0090fa5da94f32146e3a02fcc04d9031c867adfed5ae8793d4a9164736f6c63430008110033",
  "linkReferences": {},
  "deployedLinkReferences": {}
}