{
  "_format": "hh-sol-artifact-1",
  "contractName": "Multicall",
  "sourceName": "@thirdweb-dev/contracts/extension/Multicall.sol",
  "abi": [
    {
      "inputs": [
        {
          "internalType": "bytes[]",
          "name": "data",
          "type": "bytes[]"
        }
      ],
      "name": "multicall",
      "outputs": [
        {
          "internalType": "bytes[]",
          "name": "results",
          "type": "bytes[]"
        }
      ],
      "stateMutability": "nonpayable",
      "type": "function"
    }
  ],
  "bytecode": "0x608060405234801561001057600080fd5b5061051a806100206000396000f3fe608060405234801561001057600080fd5b506004361061002b5760003560e01c8063ac9650d814610030575b600080fd5b61004361003e3660046102c6565b610059565b604051610050919061038b565b60405180910390f35b60608167ffffffffffffffff811115610074576100746103ed565b6040519080825280602002602001820160405280156100a757816020015b60608152602001906001900390816100925790505b50905060005b8281101561014757610117308585848181106100cb576100cb610403565b90506020028101906100dd9190610419565b8080601f01602080910402602001604051908101604052809392919081815260200183838082843760009201919091525061014e92505050565b82828151811061012957610129610403565b6020026020010181905250808061013f90610467565b9150506100ad565b5092915050565b606061017383836040518060600160405280602781526020016104be6027913961017a565b9392505050565b606073ffffffffffffffffffffffffffffffffffffffff84163b61020b5760405162461bcd60e51b815260206004820152602660248201527f416464726573733a2064656c65676174652063616c6c20746f206e6f6e2d636f60448201527f6e7472616374000000000000000000000000000000000000000000000000000060648201526084015b60405180910390fd5b6000808573ffffffffffffffffffffffffffffffffffffffff1685604051610233919061048e565b600060405180830381855af49150503d806000811461026e576040519150601f19603f3d011682016040523d82523d6000602084013e610273565b606091505b509150915061028382828661028d565b9695505050505050565b6060831561029c575081610173565b8251156102ac5782518084602001fd5b8160405162461bcd60e51b815260040161020291906104aa565b600080602083850312156102d957600080fd5b823567ffffffffffffffff808211156102f157600080fd5b818501915085601f83011261030557600080fd5b81358181111561031457600080fd5b8660208260051b850101111561032957600080fd5b60209290920196919550909350505050565b60005b8381101561035657818101518382015260200161033e565b50506000910152565b6000815180845261037781602086016020860161033b565b601f01601f19169290920160200192915050565b6000602080830181845280855180835260408601915060408160051b870101925083870160005b828110156103e057603f198886030184526103ce85835161035f565b945092850192908501906001016103b2565b5092979650505050505050565b634e487b7160e01b600052604160045260246000fd5b634e487b7160e01b600052603260045260246000fd5b6000808335601e1984360301811261043057600080fd5b83018035915067ffffffffffffffff82111561044b57600080fd5b60200191503681900382131561046057600080fd5b9250929050565b60006001820161048757634e487b7160e01b600052601160045260246000fd5b5060010190565b600082516104a081846020870161033b565b9190910192915050565b602081526000610173602083018461035f56fe416464726573733a206c6f772d6c6576656c2064656c65676174652063616c6c206661696c6564a26469706673582212206bc276b54ac36993c92de58bb6895c23e46139db1aab3fb6b5e11e5ced9281a664736f6c63430008110033",
  "linkReferences": {},
  "deployedLinkReferences": {}
}