{
  "_format": "hh-sol-artifact-1",
  "contractName": "web3GAME",
  "sourceName": "contracts/web3GAME.sol",
  "abi": [
    {
      "inputs": [],
      "stateMutability": "nonpayable",
      "type": "constructor"
    },
    {
      "anonymous": false,
      "inputs": [
        {
          "indexed": true,
          "internalType": "address",
          "name": "account",
          "type": "address"
        },
        {
          "indexed": true,
          "internalType": "address",
          "name": "operator",
          "type": "address"
        },
        {
          "indexed": false,
          "internalType": "bool",
          "name": "approved",
          "type": "bool"
        }
      ],
      "name": "ApprovalForAll",
      "type": "event"
    },
    {
      "anonymous": false,
      "inputs": [
        {
          "indexed": true,
          "internalType": "address",
          "name": "operator",
          "type": "address"
        },
        {
          "indexed": true,
          "internalType": "address",
          "name": "from",
          "type": "address"
        },
        {
          "indexed": true,
          "internalType": "address",
          "name": "to",
          "type": "address"
        },
        {
          "indexed": false,
          "internalType": "uint256[]",
          "name": "ids",
          "type": "uint256[]"
        },
        {
          "indexed": false,
          "internalType": "uint256[]",
          "name": "values",
          "type": "uint256[]"
        }
      ],
      "name": "TransferBatch",
      "type": "event"
    },
    {
      "anonymous": false,
      "inputs": [
        {
          "indexed": true,
          "internalType": "address",
          "name": "operator",
          "type": "address"
        },
        {
          "indexed": true,
          "internalType": "address",
          "name": "from",
          "type": "address"
        },
        {
          "indexed": true,
          "internalType": "address",
          "name": "to",
          "type": "address"
        },
        {
          "indexed": false,
          "internalType": "uint256",
          "name": "id",
          "type": "uint256"
        },
        {
          "indexed": false,
          "internalType": "uint256",
          "name": "value",
          "type": "uint256"
        }
      ],
      "name": "TransferSingle",
      "type": "event"
    },
    {
      "anonymous": false,
      "inputs": [
        {
          "indexed": false,
          "internalType": "string",
          "name": "value",
          "type": "string"
        },
        {
          "indexed": true,
          "internalType": "uint256",
          "name": "id",
          "type": "uint256"
        }
      ],
      "name": "URI",
      "type": "event"
    },
    {
      "inputs": [
        {
          "internalType": "address",
          "name": "account",
          "type": "address"
        },
        {
          "internalType": "uint256",
          "name": "id",
          "type": "uint256"
        }
      ],
      "name": "balanceOf",
      "outputs": [
        {
          "internalType": "uint256",
          "name": "",
          "type": "uint256"
        }
      ],
      "stateMutability": "view",
      "type": "function"
    },
    {
      "inputs": [
        {
          "internalType": "address[]",
          "name": "accounts",
          "type": "address[]"
        },
        {
          "internalType": "uint256[]",
          "name": "ids",
          "type": "uint256[]"
        }
      ],
      "name": "balanceOfBatch",
      "outputs": [
        {
          "internalType": "uint256[]",
          "name": "",
          "type": "uint256[]"
        }
      ],
      "stateMutability": "view",
      "type": "function"
    },
    {
      "inputs": [
        {
          "internalType": "string",
          "name": "_code",
          "type": "string"
        },
        {
          "internalType": "string",
          "name": "_metadata",
          "type": "string"
        },
        {
          "internalType": "uint256",
          "name": "_experience",
          "type": "uint256"
        }
      ],
      "name": "createRedeemableItem",
      "outputs": [],
      "stateMutability": "nonpayable",
      "type": "function"
    },
    {
      "inputs": [
        {
          "internalType": "uint256",
          "name": "",
          "type": "uint256"
        }
      ],
      "name": "experience",
      "outputs": [
        {
          "internalType": "uint256",
          "name": "",
          "type": "uint256"
        }
      ],
      "stateMutability": "view",
      "type": "function"
    },
    {
      "inputs": [
        {
          "internalType": "uint256",
          "name": "_id",
          "type": "uint256"
        }
      ],
      "name": "getBokemon",
      "outputs": [
        {
          "internalType": "string",
          "name": "",
          "type": "string"
        },
        {
          "internalType": "uint256",
          "name": "",
          "type": "uint256"
        }
      ],
      "stateMutability": "view",
      "type": "function"
    },
    {
      "inputs": [
        {
          "internalType": "address",
          "name": "_user",
          "type": "address"
        }
      ],
      "name": "getBokemonPerUser",
      "outputs": [
        {
          "internalType": "uint256[]",
          "name": "",
          "type": "uint256[]"
        }
      ],
      "stateMutability": "view",
      "type": "function"
    },
    {
      "inputs": [
        {
          "internalType": "address",
          "name": "_user",
          "type": "address"
        }
      ],
      "name": "getMetaDataBokemonPerUser",
      "outputs": [
        {
          "internalType": "string[]",
          "name": "",
          "type": "string[]"
        }
      ],
      "stateMutability": "view",
      "type": "function"
    },
    {
      "inputs": [
        {
          "internalType": "uint256",
          "name": "_id",
          "type": "uint256"
        },
        {
          "internalType": "uint256",
          "name": "_experience",
          "type": "uint256"
        }
      ],
      "name": "increaseExperience",
      "outputs": [],
      "stateMutability": "nonpayable",
      "type": "function"
    },
    {
      "inputs": [
        {
          "internalType": "address",
          "name": "account",
          "type": "address"
        },
        {
          "internalType": "address",
          "name": "operator",
          "type": "address"
        }
      ],
      "name": "isApprovedForAll",
      "outputs": [
        {
          "internalType": "bool",
          "name": "",
          "type": "bool"
        }
      ],
      "stateMutability": "view",
      "type": "function"
    },
    {
      "inputs": [
        {
          "internalType": "uint256",
          "name": "",
          "type": "uint256"
        }
      ],
      "name": "metadata",
      "outputs": [
        {
          "internalType": "string",
          "name": "",
          "type": "string"
        }
      ],
      "stateMutability": "view",
      "type": "function"
    },
    {
      "inputs": [
        {
          "internalType": "address",
          "name": "account",
          "type": "address"
        },
        {
          "internalType": "string",
          "name": "_metadata",
          "type": "string"
        },
        {
          "internalType": "uint256",
          "name": "_experience",
          "type": "uint256"
        }
      ],
      "name": "mint",
      "outputs": [
        {
          "internalType": "uint256",
          "name": "",
          "type": "uint256"
        }
      ],
      "stateMutability": "nonpayable",
      "type": "function"
    },
    {
      "inputs": [
        {
          "internalType": "address",
          "name": "",
          "type": "address"
        },
        {
          "internalType": "uint256",
          "name": "",
          "type": "uint256"
        }
      ],
      "name": "party",
      "outputs": [
        {
          "internalType": "uint256",
          "name": "",
          "type": "uint256"
        }
      ],
      "stateMutability": "view",
      "type": "function"
    },
    {
      "inputs": [
        {
          "internalType": "string",
          "name": "_code",
          "type": "string"
        }
      ],
      "name": "redeemItem",
      "outputs": [],
      "stateMutability": "nonpayable",
      "type": "function"
    },
    {
      "inputs": [
        {
          "internalType": "address",
          "name": "from",
          "type": "address"
        },
        {
          "internalType": "address",
          "name": "to",
          "type": "address"
        },
        {
          "internalType": "uint256[]",
          "name": "ids",
          "type": "uint256[]"
        },
        {
          "internalType": "uint256[]",
          "name": "amounts",
          "type": "uint256[]"
        },
        {
          "internalType": "bytes",
          "name": "data",
          "type": "bytes"
        }
      ],
      "name": "safeBatchTransferFrom",
      "outputs": [],
      "stateMutability": "nonpayable",
      "type": "function"
    },
    {
      "inputs": [
        {
          "internalType": "address",
          "name": "from",
          "type": "address"
        },
        {
          "internalType": "address",
          "name": "to",
          "type": "address"
        },
        {
          "internalType": "uint256",
          "name": "id",
          "type": "uint256"
        },
        {
          "internalType": "uint256",
          "name": "amount",
          "type": "uint256"
        },
        {
          "internalType": "bytes",
          "name": "data",
          "type": "bytes"
        }
      ],
      "name": "safeTransferFrom",
      "outputs": [],
      "stateMutability": "nonpayable",
      "type": "function"
    },
    {
      "inputs": [
        {
          "internalType": "address",
          "name": "operator",
          "type": "address"
        },
        {
          "internalType": "bool",
          "name": "approved",
          "type": "bool"
        }
      ],
      "name": "setApprovalForAll",
      "outputs": [],
      "stateMutability": "nonpayable",
      "type": "function"
    },
    {
      "inputs": [
        {
          "internalType": "bytes4",
          "name": "interfaceId",
          "type": "bytes4"
        }
      ],
      "name": "supportsInterface",
      "outputs": [
        {
          "internalType": "bool",
          "name": "",
          "type": "bool"
        }
      ],
      "stateMutability": "view",
      "type": "function"
    },
    {
      "inputs": [
        {
          "internalType": "uint256",
          "name": "",
          "type": "uint256"
        }
      ],
      "name": "uri",
      "outputs": [
        {
          "internalType": "string",
          "name": "",
          "type": "string"
        }
      ],
      "stateMutability": "view",
      "type": "function"
    }
  ],
  "bytecode": "0x60806040523480156200001157600080fd5b506040518060200160405280600081525062000033816200003a60201b60201c565b50620003b0565b80600290816200004b9190620002c9565b5050565b600081519050919050565b7f4e487b7100000000000000000000000000000000000000000000000000000000600052604160045260246000fd5b7f4e487b7100000000000000000000000000000000000000000000000000000000600052602260045260246000fd5b60006002820490506001821680620000d157607f821691505b602082108103620000e757620000e662000089565b5b50919050565b60008190508160005260206000209050919050565b60006020601f8301049050919050565b600082821b905092915050565b600060088302620001517fffffffffffffffffffffffffffffffffffffffffffffffffffffffffffffffff8262000112565b6200015d868362000112565b95508019841693508086168417925050509392505050565b6000819050919050565b6000819050919050565b6000620001aa620001a46200019e8462000175565b6200017f565b62000175565b9050919050565b6000819050919050565b620001c68362000189565b620001de620001d582620001b1565b8484546200011f565b825550505050565b600090565b620001f5620001e6565b62000202818484620001bb565b505050565b5b818110156200022a576200021e600082620001eb565b60018101905062000208565b5050565b601f82111562000279576200024381620000ed565b6200024e8462000102565b810160208510156200025e578190505b620002766200026d8562000102565b83018262000207565b50505b505050565b600082821c905092915050565b60006200029e600019846008026200027e565b1980831691505092915050565b6000620002b983836200028b565b9150826002028217905092915050565b620002d4826200004f565b67ffffffffffffffff811115620002f057620002ef6200005a565b5b620002fc8254620000b8565b620003098282856200022e565b600060209050601f8311600181146200034157600084156200032c578287015190505b620003388582620002ab565b865550620003a8565b601f1984166200035186620000ed565b60005b828110156200037b5784890151825560018201915060208501945060208101905062000354565b868310156200039b578489015162000397601f8916826200028b565b8355505b6001600288020188555050505b505050505050565b613ba880620003c06000396000f3fe608060405234801561001057600080fd5b50600436106101155760003560e01c8063a22cb465116100a2578063d3e9716511610071578063d3e971651461033b578063e3684e391461036b578063e985e9c51461039b578063f242432a146103cb578063fc2c738d146103e757610115565b8063a22cb465146102a2578063ac60345b146102be578063ba7aef43146102da578063ce5f036a1461030a57610115565b80630e89341c116100e95780630e89341c146101da578063243a7c7b1461020a5780632eb2c2d61461022657806349a4cd6e146102425780634e1273f41461027257610115565b8062fdd58e1461011a5780630134671b1461014a57806301ffc9a71461017a5780630a6d77d8146101aa575b600080fd5b610134600480360381019061012f91906120c7565b610403565b6040516101419190612116565b60405180910390f35b610164600480360381019061015f9190612131565b6104cb565b604051610171919061221c565b60405180910390f35b610194600480360381019061018f9190612296565b6105d7565b6040516101a191906122de565b60405180910390f35b6101c460048036038101906101bf9190612131565b6106b9565b6040516101d1919061244b565b60405180910390f35b6101f460048036038101906101ef919061246d565b610864565b60405161020191906124e4565b60405180910390f35b610224600480360381019061021f9190612506565b6108f8565b005b610240600480360381019061023b9190612743565b610926565b005b61025c600480360381019061025791906120c7565b6109c7565b6040516102699190612116565b60405180910390f35b61028c600480360381019061028791906128d5565b6109ef565b604051610299919061221c565b60405180910390f35b6102bc60048036038101906102b79190612979565b610b08565b005b6102d860048036038101906102d39190612a5a565b610b1e565b005b6102f460048036038101906102ef9190612aa3565b610d8b565b6040516103019190612116565b60405180910390f35b610324600480360381019061031f919061246d565b610efa565b604051610332929190612b12565b60405180910390f35b6103556004803603810190610350919061246d565b610f24565b6040516103629190612116565b60405180910390f35b6103856004803603810190610380919061246d565b610f3c565b60405161039291906124e4565b60405180910390f35b6103b560048036038101906103b09190612b42565b610fdc565b6040516103c291906122de565b60405180910390f35b6103e560048036038101906103e09190612b82565b611070565b005b61040160048036038101906103fc9190612c19565b611111565b005b60008073ffffffffffffffffffffffffffffffffffffffff168373ffffffffffffffffffffffffffffffffffffffff1603610473576040517f08c379a000000000000000000000000000000000000000000000000000000000815260040161046a90612d16565b60405180910390fd5b60008083815260200190815260200160002060008473ffffffffffffffffffffffffffffffffffffffff1673ffffffffffffffffffffffffffffffffffffffff16815260200190815260200160002054905092915050565b60606000805b6104db6003611256565b8110156105155760016104ee8583610403565b036105025781806104fe90612d65565b9250505b808061050d90612d65565b9150506104d1565b5060008167ffffffffffffffff8111156105325761053161254b565b5b6040519080825280602002602001820160405280156105605781602001602082028036833780820191505090505b5090506000805b6105716003611256565b8110156105cb5760016105848783610403565b036105b8578083838151811061059d5761059c612dad565b5b60200260200101818152505081806105b490612d65565b9250505b80806105c390612d65565b915050610567565b50819350505050919050565b60007fd9b67a26000000000000000000000000000000000000000000000000000000007bffffffffffffffffffffffffffffffffffffffffffffffffffffffff1916827bffffffffffffffffffffffffffffffffffffffffffffffffffffffff191614806106a257507f0e89341c000000000000000000000000000000000000000000000000000000007bffffffffffffffffffffffffffffffffffffffffffffffffffffffff1916827bffffffffffffffffffffffffffffffffffffffffffffffffffffffff1916145b806106b257506106b182611264565b5b9050919050565b60606000805b6106c96003611256565b8110156107035760016106dc8583610403565b036106f05781806106ec90612d65565b9250505b80806106fb90612d65565b9150506106bf565b5060008167ffffffffffffffff8111156107205761071f61254b565b5b60405190808252806020026020018201604052801561075357816020015b606081526020019060019003908161073e5790505b5090506000805b6107646003611256565b8110156108585760016107778783610403565b036108455760056000828152602001908152602001600020805461079a90612e0b565b80601f01602080910402602001604051908101604052809291908181526020018280546107c690612e0b565b80156108135780601f106107e857610100808354040283529160200191610813565b820191906000526020600020905b8154815290600101906020018083116107f657829003601f168201915b505050505083838151811061082b5761082a612dad565b5b6020026020010181905250818061084190612d65565b9250505b808061085090612d65565b91505061075a565b50819350505050919050565b60606002805461087390612e0b565b80601f016020809104026020016040519081016040528092919081815260200182805461089f90612e0b565b80156108ec5780601f106108c1576101008083540402835291602001916108ec565b820191906000526020600020905b8154815290600101906020018083116108cf57829003601f168201915b50505050509050919050565b8060066000848152602001908152602001600020600082825461091b9190612e3c565b925050819055505050565b61092e6112ce565b73ffffffffffffffffffffffffffffffffffffffff168573ffffffffffffffffffffffffffffffffffffffff16148061097457506109738561096e6112ce565b610fdc565b5b6109b3576040517f08c379a00000000000000000000000000000000000000000000000000000000081526004016109aa90612ee2565b60405180910390fd5b6109c085858585856112d6565b5050505050565b600460205281600052604060002081600381106109e357600080fd5b01600091509150505481565b60608151835114610a35576040517f08c379a0000000000000000000000000000000000000000000000000000000008152600401610a2c90612f74565b60405180910390fd5b6000835167ffffffffffffffff811115610a5257610a5161254b565b5b604051908082528060200260200182016040528015610a805781602001602082028036833780820191505090505b50905060005b8451811015610afd57610acd858281518110610aa557610aa4612dad565b5b6020026020010151858381518110610ac057610abf612dad565b5b6020026020010151610403565b828281518110610ae057610adf612dad565b5b60200260200101818152505080610af690612d65565b9050610a86565b508091505092915050565b610b1a610b136112ce565b83836115f7565b5050565b6000815111610b62576040517f08c379a0000000000000000000000000000000000000000000000000000000008152600401610b5990612fe0565b60405180910390fd5b6000600782604051610b74919061303c565b90815260200160405180910390205403610bc3576040517f08c379a0000000000000000000000000000000000000000000000000000000008152600401610bba9061309f565b60405180910390fd5b60001515600a6000600784604051610bdb919061303c565b908152602001604051809103902054815260200190815260200160002060009054906101000a900460ff16151514610c48576040517f08c379a0000000000000000000000000000000000000000000000000000000008152600401610c3f9061310b565b60405180910390fd5b6001600a6000600784604051610c5e919061303c565b908152602001604051809103902054815260200190815260200160002060006101000a81548160ff021916908315150217905550610d873360086000600785604051610caa919061303c565b90815260200160405180910390205481526020019081526020016000208054610cd290612e0b565b80601f0160208091040260200160405190810160405280929190818152602001828054610cfe90612e0b565b8015610d4b5780601f10610d2057610100808354040283529160200191610d4b565b820191906000526020600020905b815481529060010190602001808311610d2e57829003601f168201915b505050505060096000600786604051610d64919061303c565b908152602001604051809103902054815260200190815260200160002054610d8b565b5050565b600080835111610dd0576040517f08c379a0000000000000000000000000000000000000000000000000000000008152600401610dc790613177565b60405180910390fd5b60008211610e13576040517f08c379a0000000000000000000000000000000000000000000000000000000008152600401610e0a906131e3565b60405180910390fd5b600073ffffffffffffffffffffffffffffffffffffffff168473ffffffffffffffffffffffffffffffffffffffff1603610e82576040517f08c379a0000000000000000000000000000000000000000000000000000000008152600401610e799061324f565b60405180910390fd5b610e8c6003611763565b6000610e986003611256565b9050610eb68582600160405180602001604052806000815250611779565b83600560008381526020019081526020016000209081610ed6919061341b565b50826006600083815260200190815260200160002081905550809150509392505050565b60606000610f0783610864565b600660008581526020019081526020016000205491509150915091565b60066020528060005260406000206000915090505481565b60056020528060005260406000206000915090508054610f5b90612e0b565b80601f0160208091040260200160405190810160405280929190818152602001828054610f8790612e0b565b8015610fd45780601f10610fa957610100808354040283529160200191610fd4565b820191906000526020600020905b815481529060010190602001808311610fb757829003601f168201915b505050505081565b6000600160008473ffffffffffffffffffffffffffffffffffffffff1673ffffffffffffffffffffffffffffffffffffffff16815260200190815260200160002060008373ffffffffffffffffffffffffffffffffffffffff1673ffffffffffffffffffffffffffffffffffffffff16815260200190815260200160002060009054906101000a900460ff16905092915050565b6110786112ce565b73ffffffffffffffffffffffffffffffffffffffff168573ffffffffffffffffffffffffffffffffffffffff1614806110be57506110bd856110b86112ce565b610fdc565b5b6110fd576040517f08c379a00000000000000000000000000000000000000000000000000000000081526004016110f490612ee2565b60405180910390fd5b61110a8585858585611929565b5050505050565b6000835111611155576040517f08c379a000000000000000000000000000000000000000000000000000000000815260040161114c90612fe0565b60405180910390fd5b6000825111611199576040517f08c379a000000000000000000000000000000000000000000000000000000000815260040161119090613177565b60405180910390fd5b600081116111dc576040517f08c379a00000000000000000000000000000000000000000000000000000000081526004016111d3906131e3565b60405180910390fd5b6111e6600b611763565b60006111f2600b611256565b905080600785604051611205919061303c565b90815260200160405180910390208190555082600860008381526020019081526020016000209081611237919061341b565b5081600960008381526020019081526020016000208190555050505050565b600081600001549050919050565b60007f01ffc9a7000000000000000000000000000000000000000000000000000000007bffffffffffffffffffffffffffffffffffffffffffffffffffffffff1916827bffffffffffffffffffffffffffffffffffffffffffffffffffffffff1916149050919050565b600033905090565b815183511461131a576040517f08c379a00000000000000000000000000000000000000000000000000000000081526004016113119061355f565b60405180910390fd5b600073ffffffffffffffffffffffffffffffffffffffff168473ffffffffffffffffffffffffffffffffffffffff1603611389576040517f08c379a0000000000000000000000000000000000000000000000000000000008152600401611380906135f1565b60405180910390fd5b60006113936112ce565b90506113a3818787878787611bc4565b60005b84518110156115545760008582815181106113c4576113c3612dad565b5b6020026020010151905060008583815181106113e3576113e2612dad565b5b60200260200101519050600080600084815260200190815260200160002060008b73ffffffffffffffffffffffffffffffffffffffff1673ffffffffffffffffffffffffffffffffffffffff16815260200190815260200160002054905081811015611484576040517f08c379a000000000000000000000000000000000000000000000000000000000815260040161147b90613683565b60405180910390fd5b81810360008085815260200190815260200160002060008c73ffffffffffffffffffffffffffffffffffffffff1673ffffffffffffffffffffffffffffffffffffffff168152602001908152602001600020819055508160008085815260200190815260200160002060008b73ffffffffffffffffffffffffffffffffffffffff1673ffffffffffffffffffffffffffffffffffffffff16815260200190815260200160002060008282546115399190612e3c565b925050819055505050508061154d90612d65565b90506113a6565b508473ffffffffffffffffffffffffffffffffffffffff168673ffffffffffffffffffffffffffffffffffffffff168273ffffffffffffffffffffffffffffffffffffffff167f4a39dc06d4c0dbc64b70af90fd698a233a518aa5d07e595d983b8c0526c8f7fb87876040516115cb9291906136a3565b60405180910390a46115e1818787878787611bcc565b6115ef818787878787611bd4565b505050505050565b8173ffffffffffffffffffffffffffffffffffffffff168373ffffffffffffffffffffffffffffffffffffffff1603611665576040517f08c379a000000000000000000000000000000000000000000000000000000000815260040161165c9061374c565b60405180910390fd5b80600160008573ffffffffffffffffffffffffffffffffffffffff1673ffffffffffffffffffffffffffffffffffffffff16815260200190815260200160002060008473ffffffffffffffffffffffffffffffffffffffff1673ffffffffffffffffffffffffffffffffffffffff16815260200190815260200160002060006101000a81548160ff0219169083151502179055508173ffffffffffffffffffffffffffffffffffffffff168373ffffffffffffffffffffffffffffffffffffffff167f17307eab39ab6107e8899845ad3d59bd9653f200f220920489ca2b5937696c318360405161175691906122de565b60405180910390a3505050565b6001816000016000828254019250508190555050565b600073ffffffffffffffffffffffffffffffffffffffff168473ffffffffffffffffffffffffffffffffffffffff16036117e8576040517f08c379a00000000000000000000000000000000000000000000000000000000081526004016117df906137de565b60405180910390fd5b60006117f26112ce565b905060006117ff85611dab565b9050600061180c85611dab565b905061181d83600089858589611bc4565b8460008088815260200190815260200160002060008973ffffffffffffffffffffffffffffffffffffffff1673ffffffffffffffffffffffffffffffffffffffff168152602001908152602001600020600082825461187c9190612e3c565b925050819055508673ffffffffffffffffffffffffffffffffffffffff16600073ffffffffffffffffffffffffffffffffffffffff168473ffffffffffffffffffffffffffffffffffffffff167fc3d58168c5ae7397731d063d5bbf3d657854427343f4c083240f7aacaa2d0f6289896040516118fa9291906137fe565b60405180910390a461191183600089858589611bcc565b61192083600089898989611e25565b50505050505050565b600073ffffffffffffffffffffffffffffffffffffffff168473ffffffffffffffffffffffffffffffffffffffff1603611998576040517f08c379a000000000000000000000000000000000000000000000000000000000815260040161198f906135f1565b60405180910390fd5b60006119a26112ce565b905060006119af85611dab565b905060006119bc85611dab565b90506119cc838989858589611bc4565b600080600088815260200190815260200160002060008a73ffffffffffffffffffffffffffffffffffffffff1673ffffffffffffffffffffffffffffffffffffffff16815260200190815260200160002054905085811015611a63576040517f08c379a0000000000000000000000000000000000000000000000000000000008152600401611a5a90613683565b60405180910390fd5b85810360008089815260200190815260200160002060008b73ffffffffffffffffffffffffffffffffffffffff1673ffffffffffffffffffffffffffffffffffffffff168152602001908152602001600020819055508560008089815260200190815260200160002060008a73ffffffffffffffffffffffffffffffffffffffff1673ffffffffffffffffffffffffffffffffffffffff1681526020019081526020016000206000828254611b189190612e3c565b925050819055508773ffffffffffffffffffffffffffffffffffffffff168973ffffffffffffffffffffffffffffffffffffffff168573ffffffffffffffffffffffffffffffffffffffff167fc3d58168c5ae7397731d063d5bbf3d657854427343f4c083240f7aacaa2d0f628a8a604051611b959291906137fe565b60405180910390a4611bab848a8a86868a611bcc565b611bb9848a8a8a8a8a611e25565b505050505050505050565b505050505050565b505050505050565b611bf38473ffffffffffffffffffffffffffffffffffffffff16611ffc565b15611da3578373ffffffffffffffffffffffffffffffffffffffff1663bc197c8187878686866040518663ffffffff1660e01b8152600401611c3995949392919061388b565b6020604051808303816000875af1925050508015611c7557506040513d601f19601f82011682018060405250810190611c729190613908565b60015b611d1a57611c81613942565b806308c379a003611cdd5750611c95613964565b80611ca05750611cdf565b806040517f08c379a0000000000000000000000000000000000000000000000000000000008152600401611cd491906124e4565b60405180910390fd5b505b6040517f08c379a0000000000000000000000000000000000000000000000000000000008152600401611d1190613a66565b60405180910390fd5b63bc197c8160e01b7bffffffffffffffffffffffffffffffffffffffffffffffffffffffff1916817bffffffffffffffffffffffffffffffffffffffffffffffffffffffff191614611da1576040517f08c379a0000000000000000000000000000000000000000000000000000000008152600401611d9890613af8565b60405180910390fd5b505b505050505050565b60606000600167ffffffffffffffff811115611dca57611dc961254b565b5b604051908082528060200260200182016040528015611df85781602001602082028036833780820191505090505b5090508281600081518110611e1057611e0f612dad565b5b60200260200101818152505080915050919050565b611e448473ffffffffffffffffffffffffffffffffffffffff16611ffc565b15611ff4578373ffffffffffffffffffffffffffffffffffffffff1663f23a6e6187878686866040518663ffffffff1660e01b8152600401611e8a959493929190613b18565b6020604051808303816000875af1925050508015611ec657506040513d601f19601f82011682018060405250810190611ec39190613908565b60015b611f6b57611ed2613942565b806308c379a003611f2e5750611ee6613964565b80611ef15750611f30565b806040517f08c379a0000000000000000000000000000000000000000000000000000000008152600401611f2591906124e4565b60405180910390fd5b505b6040517f08c379a0000000000000000000000000000000000000000000000000000000008152600401611f6290613a66565b60405180910390fd5b63f23a6e6160e01b7bffffffffffffffffffffffffffffffffffffffffffffffffffffffff1916817bffffffffffffffffffffffffffffffffffffffffffffffffffffffff191614611ff2576040517f08c379a0000000000000000000000000000000000000000000000000000000008152600401611fe990613af8565b60405180910390fd5b505b505050505050565b6000808273ffffffffffffffffffffffffffffffffffffffff163b119050919050565b6000604051905090565b600080fd5b600080fd5b600073ffffffffffffffffffffffffffffffffffffffff82169050919050565b600061205e82612033565b9050919050565b61206e81612053565b811461207957600080fd5b50565b60008135905061208b81612065565b92915050565b6000819050919050565b6120a481612091565b81146120af57600080fd5b50565b6000813590506120c18161209b565b92915050565b600080604083850312156120de576120dd612029565b5b60006120ec8582860161207c565b92505060206120fd858286016120b2565b9150509250929050565b61211081612091565b82525050565b600060208201905061212b6000830184612107565b92915050565b60006020828403121561214757612146612029565b5b60006121558482850161207c565b91505092915050565b600081519050919050565b600082825260208201905092915050565b6000819050602082019050919050565b61219381612091565b82525050565b60006121a5838361218a565b60208301905092915050565b6000602082019050919050565b60006121c98261215e565b6121d38185612169565b93506121de8361217a565b8060005b8381101561220f5781516121f68882612199565b9750612201836121b1565b9250506001810190506121e2565b5085935050505092915050565b6000602082019050818103600083015261223681846121be565b905092915050565b60007fffffffff0000000000000000000000000000000000000000000000000000000082169050919050565b6122738161223e565b811461227e57600080fd5b50565b6000813590506122908161226a565b92915050565b6000602082840312156122ac576122ab612029565b5b60006122ba84828501612281565b91505092915050565b60008115159050919050565b6122d8816122c3565b82525050565b60006020820190506122f360008301846122cf565b92915050565b600081519050919050565b600082825260208201905092915050565b6000819050602082019050919050565b600081519050919050565b600082825260208201905092915050565b60005b8381101561235f578082015181840152602081019050612344565b60008484015250505050565b6000601f19601f8301169050919050565b600061238782612325565b6123918185612330565b93506123a1818560208601612341565b6123aa8161236b565b840191505092915050565b60006123c1838361237c565b905092915050565b6000602082019050919050565b60006123e1826122f9565b6123eb8185612304565b9350836020820285016123fd85612315565b8060005b85811015612439578484038952815161241a85826123b5565b9450612425836123c9565b925060208a01995050600181019050612401565b50829750879550505050505092915050565b6000602082019050818103600083015261246581846123d6565b905092915050565b60006020828403121561248357612482612029565b5b6000612491848285016120b2565b91505092915050565b600082825260208201905092915050565b60006124b682612325565b6124c0818561249a565b93506124d0818560208601612341565b6124d98161236b565b840191505092915050565b600060208201905081810360008301526124fe81846124ab565b905092915050565b6000806040838503121561251d5761251c612029565b5b600061252b858286016120b2565b925050602061253c858286016120b2565b9150509250929050565b600080fd5b7f4e487b7100000000000000000000000000000000000000000000000000000000600052604160045260246000fd5b6125838261236b565b810181811067ffffffffffffffff821117156125a2576125a161254b565b5b80604052505050565b60006125b561201f565b90506125c1828261257a565b919050565b600067ffffffffffffffff8211156125e1576125e061254b565b5b602082029050602081019050919050565b600080fd5b600061260a612605846125c6565b6125ab565b9050808382526020820190506020840283018581111561262d5761262c6125f2565b5b835b81811015612656578061264288826120b2565b84526020840193505060208101905061262f565b5050509392505050565b600082601f83011261267557612674612546565b5b81356126858482602086016125f7565b91505092915050565b600080fd5b600067ffffffffffffffff8211156126ae576126ad61254b565b5b6126b78261236b565b9050602081019050919050565b82818337600083830152505050565b60006126e66126e184612693565b6125ab565b9050828152602081018484840111156127025761270161268e565b5b61270d8482856126c4565b509392505050565b600082601f83011261272a57612729612546565b5b813561273a8482602086016126d3565b91505092915050565b600080600080600060a0868803121561275f5761275e612029565b5b600061276d8882890161207c565b955050602061277e8882890161207c565b945050604086013567ffffffffffffffff81111561279f5761279e61202e565b5b6127ab88828901612660565b935050606086013567ffffffffffffffff8111156127cc576127cb61202e565b5b6127d888828901612660565b925050608086013567ffffffffffffffff8111156127f9576127f861202e565b5b61280588828901612715565b9150509295509295909350565b600067ffffffffffffffff82111561282d5761282c61254b565b5b602082029050602081019050919050565b600061285161284c84612812565b6125ab565b90508083825260208201905060208402830185811115612874576128736125f2565b5b835b8181101561289d5780612889888261207c565b845260208401935050602081019050612876565b5050509392505050565b600082601f8301126128bc576128bb612546565b5b81356128cc84826020860161283e565b91505092915050565b600080604083850312156128ec576128eb612029565b5b600083013567ffffffffffffffff81111561290a5761290961202e565b5b612916858286016128a7565b925050602083013567ffffffffffffffff8111156129375761293661202e565b5b61294385828601612660565b9150509250929050565b612956816122c3565b811461296157600080fd5b50565b6000813590506129738161294d565b92915050565b600080604083850312156129905761298f612029565b5b600061299e8582860161207c565b92505060206129af85828601612964565b9150509250929050565b600067ffffffffffffffff8211156129d4576129d361254b565b5b6129dd8261236b565b9050602081019050919050565b60006129fd6129f8846129b9565b6125ab565b905082815260208101848484011115612a1957612a1861268e565b5b612a248482856126c4565b509392505050565b600082601f830112612a4157612a40612546565b5b8135612a518482602086016129ea565b91505092915050565b600060208284031215612a7057612a6f612029565b5b600082013567ffffffffffffffff811115612a8e57612a8d61202e565b5b612a9a84828501612a2c565b91505092915050565b600080600060608486031215612abc57612abb612029565b5b6000612aca8682870161207c565b935050602084013567ffffffffffffffff811115612aeb57612aea61202e565b5b612af786828701612a2c565b9250506040612b08868287016120b2565b9150509250925092565b60006040820190508181036000830152612b2c81856124ab565b9050612b3b6020830184612107565b9392505050565b60008060408385031215612b5957612b58612029565b5b6000612b678582860161207c565b9250506020612b788582860161207c565b9150509250929050565b600080600080600060a08688031215612b9e57612b9d612029565b5b6000612bac8882890161207c565b9550506020612bbd8882890161207c565b9450506040612bce888289016120b2565b9350506060612bdf888289016120b2565b925050608086013567ffffffffffffffff811115612c0057612bff61202e565b5b612c0c88828901612715565b9150509295509295909350565b600080600060608486031215612c3257612c31612029565b5b600084013567ffffffffffffffff811115612c5057612c4f61202e565b5b612c5c86828701612a2c565b935050602084013567ffffffffffffffff811115612c7d57612c7c61202e565b5b612c8986828701612a2c565b9250506040612c9a868287016120b2565b9150509250925092565b7f455243313135353a2061646472657373207a65726f206973206e6f742061207660008201527f616c6964206f776e657200000000000000000000000000000000000000000000602082015250565b6000612d00602a8361249a565b9150612d0b82612ca4565b604082019050919050565b60006020820190508181036000830152612d2f81612cf3565b9050919050565b7f4e487b7100000000000000000000000000000000000000000000000000000000600052601160045260246000fd5b6000612d7082612091565b91507fffffffffffffffffffffffffffffffffffffffffffffffffffffffffffffffff8203612da257612da1612d36565b5b600182019050919050565b7f4e487b7100000000000000000000000000000000000000000000000000000000600052603260045260246000fd5b7f4e487b7100000000000000000000000000000000000000000000000000000000600052602260045260246000fd5b60006002820490506001821680612e2357607f821691505b602082108103612e3657612e35612ddc565b5b50919050565b6000612e4782612091565b9150612e5283612091565b9250828201905080821115612e6a57612e69612d36565b5b92915050565b7f455243313135353a2063616c6c6572206973206e6f7420746f6b656e206f776e60008201527f6572206f7220617070726f766564000000000000000000000000000000000000602082015250565b6000612ecc602e8361249a565b9150612ed782612e70565b604082019050919050565b60006020820190508181036000830152612efb81612ebf565b9050919050565b7f455243313135353a206163636f756e747320616e6420696473206c656e67746860008201527f206d69736d617463680000000000000000000000000000000000000000000000602082015250565b6000612f5e60298361249a565b9150612f6982612f02565b604082019050919050565b60006020820190508181036000830152612f8d81612f51565b9050919050565b7f436f6465206d7573742062652070726f76696465640000000000000000000000600082015250565b6000612fca60158361249a565b9150612fd582612f94565b602082019050919050565b60006020820190508181036000830152612ff981612fbd565b9050919050565b600081905092915050565b600061301682612325565b6130208185613000565b9350613030818560208601612341565b80840191505092915050565b6000613048828461300b565b915081905092915050565b7f436f646520646f6573206e6f7420657869737400000000000000000000000000600082015250565b600061308960138361249a565b915061309482613053565b602082019050919050565b600060208201905081810360008301526130b88161307c565b9050919050565b7f4974656d20616c72656164792072656465656d65640000000000000000000000600082015250565b60006130f560158361249a565b9150613100826130bf565b602082019050919050565b60006020820190508181036000830152613124816130e8565b9050919050565b7f4d65746164617461206d7573742062652070726f766964656400000000000000600082015250565b600061316160198361249a565b915061316c8261312b565b602082019050919050565b6000602082019050818103600083015261319081613154565b9050919050565b7f457870657269656e6365206d7573742062652070726f76696465640000000000600082015250565b60006131cd601b8361249a565b91506131d882613197565b602082019050919050565b600060208201905081810360008301526131fc816131c0565b9050919050565b7f4163636f756e74206d7573742062652070726f76696465640000000000000000600082015250565b600061323960188361249a565b915061324482613203565b602082019050919050565b600060208201905081810360008301526132688161322c565b9050919050565b60008190508160005260206000209050919050565b60006020601f8301049050919050565b600082821b905092915050565b6000600883026132d17fffffffffffffffffffffffffffffffffffffffffffffffffffffffffffffffff82613294565b6132db8683613294565b95508019841693508086168417925050509392505050565b6000819050919050565b600061331861331361330e84612091565b6132f3565b612091565b9050919050565b6000819050919050565b613332836132fd565b61334661333e8261331f565b8484546132a1565b825550505050565b600090565b61335b61334e565b613366818484613329565b505050565b5b8181101561338a5761337f600082613353565b60018101905061336c565b5050565b601f8211156133cf576133a08161326f565b6133a984613284565b810160208510156133b8578190505b6133cc6133c485613284565b83018261336b565b50505b505050565b600082821c905092915050565b60006133f2600019846008026133d4565b1980831691505092915050565b600061340b83836133e1565b9150826002028217905092915050565b61342482612325565b67ffffffffffffffff81111561343d5761343c61254b565b5b6134478254612e0b565b61345282828561338e565b600060209050601f8311600181146134855760008415613473578287015190505b61347d85826133ff565b8655506134e5565b601f1984166134938661326f565b60005b828110156134bb57848901518255600182019150602085019450602081019050613496565b868310156134d857848901516134d4601f8916826133e1565b8355505b6001600288020188555050505b505050505050565b7f455243313135353a2069647320616e6420616d6f756e7473206c656e6774682060008201527f6d69736d61746368000000000000000000000000000000000000000000000000602082015250565b600061354960288361249a565b9150613554826134ed565b604082019050919050565b600060208201905081810360008301526135788161353c565b9050919050565b7f455243313135353a207472616e7366657220746f20746865207a65726f20616460008201527f6472657373000000000000000000000000000000000000000000000000000000602082015250565b60006135db60258361249a565b91506135e68261357f565b604082019050919050565b6000602082019050818103600083015261360a816135ce565b9050919050565b7f455243313135353a20696e73756666696369656e742062616c616e636520666f60008201527f72207472616e7366657200000000000000000000000000000000000000000000602082015250565b600061366d602a8361249a565b915061367882613611565b604082019050919050565b6000602082019050818103600083015261369c81613660565b9050919050565b600060408201905081810360008301526136bd81856121be565b905081810360208301526136d181846121be565b90509392505050565b7f455243313135353a2073657474696e6720617070726f76616c2073746174757360008201527f20666f722073656c660000000000000000000000000000000000000000000000602082015250565b600061373660298361249a565b9150613741826136da565b604082019050919050565b6000602082019050818103600083015261376581613729565b9050919050565b7f455243313135353a206d696e7420746f20746865207a65726f2061646472657360008201527f7300000000000000000000000000000000000000000000000000000000000000602082015250565b60006137c860218361249a565b91506137d38261376c565b604082019050919050565b600060208201905081810360008301526137f7816137bb565b9050919050565b60006040820190506138136000830185612107565b6138206020830184612107565b9392505050565b61383081612053565b82525050565b600081519050919050565b600082825260208201905092915050565b600061385d82613836565b6138678185613841565b9350613877818560208601612341565b6138808161236b565b840191505092915050565b600060a0820190506138a06000830188613827565b6138ad6020830187613827565b81810360408301526138bf81866121be565b905081810360608301526138d381856121be565b905081810360808301526138e78184613852565b90509695505050505050565b6000815190506139028161226a565b92915050565b60006020828403121561391e5761391d612029565b5b600061392c848285016138f3565b91505092915050565b60008160e01c9050919050565b600060033d11156139615760046000803e61395e600051613935565b90505b90565b600060443d106139f15761397661201f565b60043d036004823e80513d602482011167ffffffffffffffff8211171561399e5750506139f1565b808201805167ffffffffffffffff8111156139bc57505050506139f1565b80602083010160043d0385018111156139d95750505050506139f1565b6139e88260200185018661257a565b82955050505050505b90565b7f455243313135353a207472616e7366657220746f206e6f6e2d4552433131353560008201527f526563656976657220696d706c656d656e746572000000000000000000000000602082015250565b6000613a5060348361249a565b9150613a5b826139f4565b604082019050919050565b60006020820190508181036000830152613a7f81613a43565b9050919050565b7f455243313135353a204552433131353552656365697665722072656a6563746560008201527f6420746f6b656e73000000000000000000000000000000000000000000000000602082015250565b6000613ae260288361249a565b9150613aed82613a86565b604082019050919050565b60006020820190508181036000830152613b1181613ad5565b9050919050565b600060a082019050613b2d6000830188613827565b613b3a6020830187613827565b613b476040830186612107565b613b546060830185612107565b8181036080830152613b668184613852565b9050969550505050505056fea264697066735822122025e3fb391c3228ee9d0fd20d0ae68e25ca7ae1829187c10e9ebfd98b6de9e4f264736f6c63430008110033",
  "linkReferences": {},
  "deployedLinkReferences": {}
}