{
  "_format": "hh-sol-artifact-1",
  "contractName": "web3GAME",
  "sourceName": "contracts/web3GAME.sol",
  "abi": [
    {
      "inputs": [],
      "stateMutability": "nonpayable",
      "type": "constructor"
    },
    {
      "anonymous": false,
      "inputs": [
        {
          "indexed": true,
          "internalType": "address",
          "name": "account",
          "type": "address"
        },
        {
          "indexed": true,
          "internalType": "address",
          "name": "operator",
          "type": "address"
        },
        {
          "indexed": false,
          "internalType": "bool",
          "name": "approved",
          "type": "bool"
        }
      ],
      "name": "ApprovalForAll",
      "type": "event"
    },
    {
      "anonymous": false,
      "inputs": [
        {
          "indexed": true,
          "internalType": "address",
          "name": "operator",
          "type": "address"
        },
        {
          "indexed": true,
          "internalType": "address",
          "name": "from",
          "type": "address"
        },
        {
          "indexed": true,
          "internalType": "address",
          "name": "to",
          "type": "address"
        },
        {
          "indexed": false,
          "internalType": "uint256[]",
          "name": "ids",
          "type": "uint256[]"
        },
        {
          "indexed": false,
          "internalType": "uint256[]",
          "name": "values",
          "type": "uint256[]"
        }
      ],
      "name": "TransferBatch",
      "type": "event"
    },
    {
      "anonymous": false,
      "inputs": [
        {
          "indexed": true,
          "internalType": "address",
          "name": "operator",
          "type": "address"
        },
        {
          "indexed": true,
          "internalType": "address",
          "name": "from",
          "type": "address"
        },
        {
          "indexed": true,
          "internalType": "address",
          "name": "to",
          "type": "address"
        },
        {
          "indexed": false,
          "internalType": "uint256",
          "name": "id",
          "type": "uint256"
        },
        {
          "indexed": false,
          "internalType": "uint256",
          "name": "value",
          "type": "uint256"
        }
      ],
      "name": "TransferSingle",
      "type": "event"
    },
    {
      "anonymous": false,
      "inputs": [
        {
          "indexed": false,
          "internalType": "string",
          "name": "value",
          "type": "string"
        },
        {
          "indexed": true,
          "internalType": "uint256",
          "name": "id",
          "type": "uint256"
        }
      ],
      "name": "URI",
      "type": "event"
    },
    {
      "inputs": [
        {
          "internalType": "address",
          "name": "account",
          "type": "address"
        },
        {
          "internalType": "uint256",
          "name": "id",
          "type": "uint256"
        }
      ],
      "name": "balanceOf",
      "outputs": [
        {
          "internalType": "uint256",
          "name": "",
          "type": "uint256"
        }
      ],
      "stateMutability": "view",
      "type": "function"
    },
    {
      "inputs": [
        {
          "internalType": "address[]",
          "name": "accounts",
          "type": "address[]"
        },
        {
          "internalType": "uint256[]",
          "name": "ids",
          "type": "uint256[]"
        }
      ],
      "name": "balanceOfBatch",
      "outputs": [
        {
          "internalType": "uint256[]",
          "name": "",
          "type": "uint256[]"
        }
      ],
      "stateMutability": "view",
      "type": "function"
    },
    {
      "inputs": [
        {
          "internalType": "string",
          "name": "_code",
          "type": "string"
        },
        {
          "internalType": "string",
          "name": "_metadata",
          "type": "string"
        },
        {
          "internalType": "uint256",
          "name": "_experience",
          "type": "uint256"
        }
      ],
      "name": "createRedeemableItem",
      "outputs": [],
      "stateMutability": "nonpayable",
      "type": "function"
    },
    {
      "inputs": [
        {
          "internalType": "uint256",
          "name": "",
          "type": "uint256"
        }
      ],
      "name": "experience",
      "outputs": [
        {
          "internalType": "uint256",
          "name": "",
          "type": "uint256"
        }
      ],
      "stateMutability": "view",
      "type": "function"
    },
    {
      "inputs": [
        {
          "internalType": "uint256",
          "name": "_id",
          "type": "uint256"
        }
      ],
      "name": "getBokemon",
      "outputs": [
        {
          "internalType": "string",
          "name": "",
          "type": "string"
        },
        {
          "internalType": "uint256",
          "name": "",
          "type": "uint256"
        }
      ],
      "stateMutability": "view",
      "type": "function"
    },
    {
      "inputs": [
        {
          "internalType": "address",
          "name": "_user",
          "type": "address"
        }
      ],
      "name": "getBokemonPerUser",
      "outputs": [
        {
          "internalType": "uint256[]",
          "name": "",
          "type": "uint256[]"
        }
      ],
      "stateMutability": "view",
      "type": "function"
    },
    {
      "inputs": [
        {
          "internalType": "address",
          "name": "_user",
          "type": "address"
        }
      ],
      "name": "getMetaDataBokemonPerUser",
      "outputs": [
        {
          "internalType": "string[]",
          "name": "",
          "type": "string[]"
        }
      ],
      "stateMutability": "view",
      "type": "function"
    },
    {
      "inputs": [
        {
          "internalType": "uint256",
          "name": "_id",
          "type": "uint256"
        },
        {
          "internalType": "uint256",
          "name": "_experience",
          "type": "uint256"
        }
      ],
      "name": "increaseExperience",
      "outputs": [],
      "stateMutability": "nonpayable",
      "type": "function"
    },
    {
      "inputs": [
        {
          "internalType": "address",
          "name": "account",
          "type": "address"
        },
        {
          "internalType": "address",
          "name": "operator",
          "type": "address"
        }
      ],
      "name": "isApprovedForAll",
      "outputs": [
        {
          "internalType": "bool",
          "name": "",
          "type": "bool"
        }
      ],
      "stateMutability": "view",
      "type": "function"
    },
    {
      "inputs": [
        {
          "internalType": "uint256",
          "name": "",
          "type": "uint256"
        }
      ],
      "name": "metadata",
      "outputs": [
        {
          "internalType": "string",
          "name": "",
          "type": "string"
        }
      ],
      "stateMutability": "view",
      "type": "function"
    },
    {
      "inputs": [
        {
          "internalType": "address",
          "name": "account",
          "type": "address"
        },
        {
          "internalType": "string",
          "name": "_metadata",
          "type": "string"
        },
        {
          "internalType": "uint256",
          "name": "_experience",
          "type": "uint256"
        }
      ],
      "name": "mint",
      "outputs": [
        {
          "internalType": "uint256",
          "name": "",
          "type": "uint256"
        }
      ],
      "stateMutability": "nonpayable",
      "type": "function"
    },
    {
      "inputs": [
        {
          "internalType": "address",
          "name": "",
          "type": "address"
        },
        {
          "internalType": "uint256",
          "name": "",
          "type": "uint256"
        }
      ],
      "name": "party",
      "outputs": [
        {
          "internalType": "uint256",
          "name": "",
          "type": "uint256"
        }
      ],
      "stateMutability": "view",
      "type": "function"
    },
    {
      "inputs": [
        {
          "internalType": "string",
          "name": "_code",
          "type": "string"
        }
      ],
      "name": "redeemItem",
      "outputs": [],
      "stateMutability": "nonpayable",
      "type": "function"
    },
    {
      "inputs": [
        {
          "internalType": "address",
          "name": "from",
          "type": "address"
        },
        {
          "internalType": "address",
          "name": "to",
          "type": "address"
        },
        {
          "internalType": "uint256[]",
          "name": "ids",
          "type": "uint256[]"
        },
        {
          "internalType": "uint256[]",
          "name": "amounts",
          "type": "uint256[]"
        },
        {
          "internalType": "bytes",
          "name": "data",
          "type": "bytes"
        }
      ],
      "name": "safeBatchTransferFrom",
      "outputs": [],
      "stateMutability": "nonpayable",
      "type": "function"
    },
    {
      "inputs": [
        {
          "internalType": "address",
          "name": "from",
          "type": "address"
        },
        {
          "internalType": "address",
          "name": "to",
          "type": "address"
        },
        {
          "internalType": "uint256",
          "name": "id",
          "type": "uint256"
        },
        {
          "internalType": "uint256",
          "name": "amount",
          "type": "uint256"
        },
        {
          "internalType": "bytes",
          "name": "data",
          "type": "bytes"
        }
      ],
      "name": "safeTransferFrom",
      "outputs": [],
      "stateMutability": "nonpayable",
      "type": "function"
    },
    {
      "inputs": [
        {
          "internalType": "address",
          "name": "operator",
          "type": "address"
        },
        {
          "internalType": "bool",
          "name": "approved",
          "type": "bool"
        }
      ],
      "name": "setApprovalForAll",
      "outputs": [],
      "stateMutability": "nonpayable",
      "type": "function"
    },
    {
      "inputs": [
        {
          "internalType": "bytes4",
          "name": "interfaceId",
          "type": "bytes4"
        }
      ],
      "name": "supportsInterface",
      "outputs": [
        {
          "internalType": "bool",
          "name": "",
          "type": "bool"
        }
      ],
      "stateMutability": "view",
      "type": "function"
    },
    {
      "inputs": [
        {
          "internalType": "uint256",
          "name": "",
          "type": "uint256"
        }
      ],
      "name": "uri",
      "outputs": [
        {
          "internalType": "string",
          "name": "",
          "type": "string"
        }
      ],
      "stateMutability": "view",
      "type": "function"
    }
  ],
  "bytecode": "0x60806040523480156200001157600080fd5b506040518060200160405280600081525062000033816200003a60201b60201c565b50620003b0565b80600290816200004b9190620002c9565b5050565b600081519050919050565b7f4e487b7100000000000000000000000000000000000000000000000000000000600052604160045260246000fd5b7f4e487b7100000000000000000000000000000000000000000000000000000000600052602260045260246000fd5b60006002820490506001821680620000d157607f821691505b602082108103620000e757620000e662000089565b5b50919050565b60008190508160005260206000209050919050565b60006020601f8301049050919050565b600082821b905092915050565b600060088302620001517fffffffffffffffffffffffffffffffffffffffffffffffffffffffffffffffff8262000112565b6200015d868362000112565b95508019841693508086168417925050509392505050565b6000819050919050565b6000819050919050565b6000620001aa620001a46200019e8462000175565b6200017f565b62000175565b9050919050565b6000819050919050565b620001c68362000189565b620001de620001d582620001b1565b8484546200011f565b825550505050565b600090565b620001f5620001e6565b62000202818484620001bb565b505050565b5b818110156200022a576200021e600082620001eb565b60018101905062000208565b5050565b601f82111562000279576200024381620000ed565b6200024e8462000102565b810160208510156200025e578190505b620002766200026d8562000102565b83018262000207565b50505b505050565b600082821c905092915050565b60006200029e600019846008026200027e565b1980831691505092915050565b6000620002b983836200028b565b9150826002028217905092915050565b620002d4826200004f565b67ffffffffffffffff811115620002f057620002ef6200005a565b5b620002fc8254620000b8565b620003098282856200022e565b600060209050601f8311600181146200034157600084156200032c578287015190505b620003388582620002ab565b865550620003a8565b601f1984166200035186620000ed565b60005b828110156200037b5784890151825560018201915060208501945060208101905062000354565b868310156200039b578489015162000397601f8916826200028b565b8355505b6001600288020188555050505b505050505050565b613c4a80620003c06000396000f3fe608060405234801561001057600080fd5b50600436106101155760003560e01c8063a22cb465116100a2578063d3e9716511610071578063d3e971651461033b578063e3684e391461036b578063e985e9c51461039b578063f242432a146103cb578063fc2c738d146103e757610115565b8063a22cb465146102a2578063ac60345b146102be578063ba7aef43146102da578063ce5f036a1461030a57610115565b80630e89341c116100e95780630e89341c146101da578063243a7c7b1461020a5780632eb2c2d61461022657806349a4cd6e146102425780634e1273f41461027257610115565b8062fdd58e1461011a5780630134671b1461014a57806301ffc9a71461017a5780630a6d77d8146101aa575b600080fd5b610134600480360381019061012f9190612169565b610403565b60405161014191906121b8565b60405180910390f35b610164600480360381019061015f91906121d3565b6104cb565b60405161017191906122be565b60405180910390f35b610194600480360381019061018f9190612338565b6105dd565b6040516101a19190612380565b60405180910390f35b6101c460048036038101906101bf91906121d3565b6106bf565b6040516101d191906124ed565b60405180910390f35b6101f460048036038101906101ef919061250f565b610870565b6040516102019190612586565b60405180910390f35b610224600480360381019061021f91906125a8565b610904565b005b610240600480360381019061023b91906127e5565b610932565b005b61025c60048036038101906102579190612169565b6109d3565b60405161026991906121b8565b60405180910390f35b61028c60048036038101906102879190612977565b6109fb565b60405161029991906122be565b60405180910390f35b6102bc60048036038101906102b79190612a1b565b610b14565b005b6102d860048036038101906102d39190612afc565b610b2a565b005b6102f460048036038101906102ef9190612b45565b610d97565b60405161030191906121b8565b60405180910390f35b610324600480360381019061031f919061250f565b610f06565b604051610332929190612bb4565b60405180910390f35b6103556004803603810190610350919061250f565b610fc6565b60405161036291906121b8565b60405180910390f35b6103856004803603810190610380919061250f565b610fde565b6040516103929190612586565b60405180910390f35b6103b560048036038101906103b09190612be4565b61107e565b6040516103c29190612380565b60405180910390f35b6103e560048036038101906103e09190612c24565b611112565b005b61040160048036038101906103fc9190612cbb565b6111b3565b005b60008073ffffffffffffffffffffffffffffffffffffffff168373ffffffffffffffffffffffffffffffffffffffff1603610473576040517f08c379a000000000000000000000000000000000000000000000000000000000815260040161046a90612db8565b60405180910390fd5b60008083815260200190815260200160002060008473ffffffffffffffffffffffffffffffffffffffff1673ffffffffffffffffffffffffffffffffffffffff16815260200190815260200160002054905092915050565b6060600080600190505b6104df60036112f8565b81116105185760016104f18583610403565b0361050557818061050190612e07565b9250505b808061051090612e07565b9150506104d5565b5060008167ffffffffffffffff811115610535576105346125ed565b5b6040519080825280602002602001820160405280156105635781602001602082028036833780820191505090505b509050600080600190505b61057860036112f8565b81116105d157600161058a8783610403565b036105be57808383815181106105a3576105a2612e4f565b5b60200260200101818152505081806105ba90612e07565b9250505b80806105c990612e07565b91505061056e565b50819350505050919050565b60007fd9b67a26000000000000000000000000000000000000000000000000000000007bffffffffffffffffffffffffffffffffffffffffffffffffffffffff1916827bffffffffffffffffffffffffffffffffffffffffffffffffffffffff191614806106a857507f0e89341c000000000000000000000000000000000000000000000000000000007bffffffffffffffffffffffffffffffffffffffffffffffffffffffff1916827bffffffffffffffffffffffffffffffffffffffffffffffffffffffff1916145b806106b857506106b782611306565b5b9050919050565b6060600080600190505b6106d360036112f8565b811161070c5760016106e58583610403565b036106f95781806106f590612e07565b9250505b808061070490612e07565b9150506106c9565b5060008167ffffffffffffffff811115610729576107286125ed565b5b60405190808252806020026020018201604052801561075c57816020015b60608152602001906001900390816107475790505b509050600080600190505b61077160036112f8565b81116108645760016107838783610403565b03610851576005600082815260200190815260200160002080546107a690612ead565b80601f01602080910402602001604051908101604052809291908181526020018280546107d290612ead565b801561081f5780601f106107f45761010080835404028352916020019161081f565b820191906000526020600020905b81548152906001019060200180831161080257829003601f168201915b505050505083838151811061083757610836612e4f565b5b6020026020010181905250818061084d90612e07565b9250505b808061085c90612e07565b915050610767565b50819350505050919050565b60606002805461087f90612ead565b80601f01602080910402602001604051908101604052809291908181526020018280546108ab90612ead565b80156108f85780601f106108cd576101008083540402835291602001916108f8565b820191906000526020600020905b8154815290600101906020018083116108db57829003601f168201915b50505050509050919050565b806006600084815260200190815260200160002060008282546109279190612ede565b925050819055505050565b61093a611370565b73ffffffffffffffffffffffffffffffffffffffff168573ffffffffffffffffffffffffffffffffffffffff161480610980575061097f8561097a611370565b61107e565b5b6109bf576040517f08c379a00000000000000000000000000000000000000000000000000000000081526004016109b690612f84565b60405180910390fd5b6109cc8585858585611378565b5050505050565b600460205281600052604060002081600381106109ef57600080fd5b01600091509150505481565b60608151835114610a41576040517f08c379a0000000000000000000000000000000000000000000000000000000008152600401610a3890613016565b60405180910390fd5b6000835167ffffffffffffffff811115610a5e57610a5d6125ed565b5b604051908082528060200260200182016040528015610a8c5781602001602082028036833780820191505090505b50905060005b8451811015610b0957610ad9858281518110610ab157610ab0612e4f565b5b6020026020010151858381518110610acc57610acb612e4f565b5b6020026020010151610403565b828281518110610aec57610aeb612e4f565b5b60200260200101818152505080610b0290612e07565b9050610a92565b508091505092915050565b610b26610b1f611370565b8383611699565b5050565b6000815111610b6e576040517f08c379a0000000000000000000000000000000000000000000000000000000008152600401610b6590613082565b60405180910390fd5b6000600782604051610b8091906130de565b90815260200160405180910390205403610bcf576040517f08c379a0000000000000000000000000000000000000000000000000000000008152600401610bc690613141565b60405180910390fd5b60001515600a6000600784604051610be791906130de565b908152602001604051809103902054815260200190815260200160002060009054906101000a900460ff16151514610c54576040517f08c379a0000000000000000000000000000000000000000000000000000000008152600401610c4b906131ad565b60405180910390fd5b6001600a6000600784604051610c6a91906130de565b908152602001604051809103902054815260200190815260200160002060006101000a81548160ff021916908315150217905550610d933360086000600785604051610cb691906130de565b90815260200160405180910390205481526020019081526020016000208054610cde90612ead565b80601f0160208091040260200160405190810160405280929190818152602001828054610d0a90612ead565b8015610d575780601f10610d2c57610100808354040283529160200191610d57565b820191906000526020600020905b815481529060010190602001808311610d3a57829003601f168201915b505050505060096000600786604051610d7091906130de565b908152602001604051809103902054815260200190815260200160002054610d97565b5050565b600080835111610ddc576040517f08c379a0000000000000000000000000000000000000000000000000000000008152600401610dd390613219565b60405180910390fd5b60008211610e1f576040517f08c379a0000000000000000000000000000000000000000000000000000000008152600401610e1690613285565b60405180910390fd5b600073ffffffffffffffffffffffffffffffffffffffff168473ffffffffffffffffffffffffffffffffffffffff1603610e8e576040517f08c379a0000000000000000000000000000000000000000000000000000000008152600401610e85906132f1565b60405180910390fd5b610e986003611805565b6000610ea460036112f8565b9050610ec2858260016040518060200160405280600081525061181b565b83600560008381526020019081526020016000209081610ee291906134bd565b50826006600083815260200190815260200160002081905550809150509392505050565b60606000600560008481526020019081526020016000206006600085815260200190815260200160002054818054610f3d90612ead565b80601f0160208091040260200160405190810160405280929190818152602001828054610f6990612ead565b8015610fb65780601f10610f8b57610100808354040283529160200191610fb6565b820191906000526020600020905b815481529060010190602001808311610f9957829003601f168201915b5050505050915091509150915091565b60066020528060005260406000206000915090505481565b60056020528060005260406000206000915090508054610ffd90612ead565b80601f016020809104026020016040519081016040528092919081815260200182805461102990612ead565b80156110765780601f1061104b57610100808354040283529160200191611076565b820191906000526020600020905b81548152906001019060200180831161105957829003601f168201915b505050505081565b6000600160008473ffffffffffffffffffffffffffffffffffffffff1673ffffffffffffffffffffffffffffffffffffffff16815260200190815260200160002060008373ffffffffffffffffffffffffffffffffffffffff1673ffffffffffffffffffffffffffffffffffffffff16815260200190815260200160002060009054906101000a900460ff16905092915050565b61111a611370565b73ffffffffffffffffffffffffffffffffffffffff168573ffffffffffffffffffffffffffffffffffffffff161480611160575061115f8561115a611370565b61107e565b5b61119f576040517f08c379a000000000000000000000000000000000000000000000000000000000815260040161119690612f84565b60405180910390fd5b6111ac85858585856119cb565b5050505050565b60008351116111f7576040517f08c379a00000000000000000000000000000000000000000000000000000000081526004016111ee90613082565b60405180910390fd5b600082511161123b576040517f08c379a000000000000000000000000000000000000000000000000000000000815260040161123290613219565b60405180910390fd5b6000811161127e576040517f08c379a000000000000000000000000000000000000000000000000000000000815260040161127590613285565b60405180910390fd5b611288600b611805565b6000611294600b6112f8565b9050806007856040516112a791906130de565b908152602001604051809103902081905550826008600083815260200190815260200160002090816112d991906134bd565b5081600960008381526020019081526020016000208190555050505050565b600081600001549050919050565b60007f01ffc9a7000000000000000000000000000000000000000000000000000000007bffffffffffffffffffffffffffffffffffffffffffffffffffffffff1916827bffffffffffffffffffffffffffffffffffffffffffffffffffffffff1916149050919050565b600033905090565b81518351146113bc576040517f08c379a00000000000000000000000000000000000000000000000000000000081526004016113b390613601565b60405180910390fd5b600073ffffffffffffffffffffffffffffffffffffffff168473ffffffffffffffffffffffffffffffffffffffff160361142b576040517f08c379a000000000000000000000000000000000000000000000000000000000815260040161142290613693565b60405180910390fd5b6000611435611370565b9050611445818787878787611c66565b60005b84518110156115f657600085828151811061146657611465612e4f565b5b60200260200101519050600085838151811061148557611484612e4f565b5b60200260200101519050600080600084815260200190815260200160002060008b73ffffffffffffffffffffffffffffffffffffffff1673ffffffffffffffffffffffffffffffffffffffff16815260200190815260200160002054905081811015611526576040517f08c379a000000000000000000000000000000000000000000000000000000000815260040161151d90613725565b60405180910390fd5b81810360008085815260200190815260200160002060008c73ffffffffffffffffffffffffffffffffffffffff1673ffffffffffffffffffffffffffffffffffffffff168152602001908152602001600020819055508160008085815260200190815260200160002060008b73ffffffffffffffffffffffffffffffffffffffff1673ffffffffffffffffffffffffffffffffffffffff16815260200190815260200160002060008282546115db9190612ede565b92505081905550505050806115ef90612e07565b9050611448565b508473ffffffffffffffffffffffffffffffffffffffff168673ffffffffffffffffffffffffffffffffffffffff168273ffffffffffffffffffffffffffffffffffffffff167f4a39dc06d4c0dbc64b70af90fd698a233a518aa5d07e595d983b8c0526c8f7fb878760405161166d929190613745565b60405180910390a4611683818787878787611c6e565b611691818787878787611c76565b505050505050565b8173ffffffffffffffffffffffffffffffffffffffff168373ffffffffffffffffffffffffffffffffffffffff1603611707576040517f08c379a00000000000000000000000000000000000000000000000000000000081526004016116fe906137ee565b60405180910390fd5b80600160008573ffffffffffffffffffffffffffffffffffffffff1673ffffffffffffffffffffffffffffffffffffffff16815260200190815260200160002060008473ffffffffffffffffffffffffffffffffffffffff1673ffffffffffffffffffffffffffffffffffffffff16815260200190815260200160002060006101000a81548160ff0219169083151502179055508173ffffffffffffffffffffffffffffffffffffffff168373ffffffffffffffffffffffffffffffffffffffff167f17307eab39ab6107e8899845ad3d59bd9653f200f220920489ca2b5937696c31836040516117f89190612380565b60405180910390a3505050565b6001816000016000828254019250508190555050565b600073ffffffffffffffffffffffffffffffffffffffff168473ffffffffffffffffffffffffffffffffffffffff160361188a576040517f08c379a000000000000000000000000000000000000000000000000000000000815260040161188190613880565b60405180910390fd5b6000611894611370565b905060006118a185611e4d565b905060006118ae85611e4d565b90506118bf83600089858589611c66565b8460008088815260200190815260200160002060008973ffffffffffffffffffffffffffffffffffffffff1673ffffffffffffffffffffffffffffffffffffffff168152602001908152602001600020600082825461191e9190612ede565b925050819055508673ffffffffffffffffffffffffffffffffffffffff16600073ffffffffffffffffffffffffffffffffffffffff168473ffffffffffffffffffffffffffffffffffffffff167fc3d58168c5ae7397731d063d5bbf3d657854427343f4c083240f7aacaa2d0f62898960405161199c9291906138a0565b60405180910390a46119b383600089858589611c6e565b6119c283600089898989611ec7565b50505050505050565b600073ffffffffffffffffffffffffffffffffffffffff168473ffffffffffffffffffffffffffffffffffffffff1603611a3a576040517f08c379a0000000000000000000000000000000000000000000000000000000008152600401611a3190613693565b60405180910390fd5b6000611a44611370565b90506000611a5185611e4d565b90506000611a5e85611e4d565b9050611a6e838989858589611c66565b600080600088815260200190815260200160002060008a73ffffffffffffffffffffffffffffffffffffffff1673ffffffffffffffffffffffffffffffffffffffff16815260200190815260200160002054905085811015611b05576040517f08c379a0000000000000000000000000000000000000000000000000000000008152600401611afc90613725565b60405180910390fd5b85810360008089815260200190815260200160002060008b73ffffffffffffffffffffffffffffffffffffffff1673ffffffffffffffffffffffffffffffffffffffff168152602001908152602001600020819055508560008089815260200190815260200160002060008a73ffffffffffffffffffffffffffffffffffffffff1673ffffffffffffffffffffffffffffffffffffffff1681526020019081526020016000206000828254611bba9190612ede565b925050819055508773ffffffffffffffffffffffffffffffffffffffff168973ffffffffffffffffffffffffffffffffffffffff168573ffffffffffffffffffffffffffffffffffffffff167fc3d58168c5ae7397731d063d5bbf3d657854427343f4c083240f7aacaa2d0f628a8a604051611c379291906138a0565b60405180910390a4611c4d848a8a86868a611c6e565b611c5b848a8a8a8a8a611ec7565b505050505050505050565b505050505050565b505050505050565b611c958473ffffffffffffffffffffffffffffffffffffffff1661209e565b15611e45578373ffffffffffffffffffffffffffffffffffffffff1663bc197c8187878686866040518663ffffffff1660e01b8152600401611cdb95949392919061392d565b6020604051808303816000875af1925050508015611d1757506040513d601f19601f82011682018060405250810190611d1491906139aa565b60015b611dbc57611d236139e4565b806308c379a003611d7f5750611d37613a06565b80611d425750611d81565b806040517f08c379a0000000000000000000000000000000000000000000000000000000008152600401611d769190612586565b60405180910390fd5b505b6040517f08c379a0000000000000000000000000000000000000000000000000000000008152600401611db390613b08565b60405180910390fd5b63bc197c8160e01b7bffffffffffffffffffffffffffffffffffffffffffffffffffffffff1916817bffffffffffffffffffffffffffffffffffffffffffffffffffffffff191614611e43576040517f08c379a0000000000000000000000000000000000000000000000000000000008152600401611e3a90613b9a565b60405180910390fd5b505b505050505050565b60606000600167ffffffffffffffff811115611e6c57611e6b6125ed565b5b604051908082528060200260200182016040528015611e9a5781602001602082028036833780820191505090505b5090508281600081518110611eb257611eb1612e4f565b5b60200260200101818152505080915050919050565b611ee68473ffffffffffffffffffffffffffffffffffffffff1661209e565b15612096578373ffffffffffffffffffffffffffffffffffffffff1663f23a6e6187878686866040518663ffffffff1660e01b8152600401611f2c959493929190613bba565b6020604051808303816000875af1925050508015611f6857506040513d601f19601f82011682018060405250810190611f6591906139aa565b60015b61200d57611f746139e4565b806308c379a003611fd05750611f88613a06565b80611f935750611fd2565b806040517f08c379a0000000000000000000000000000000000000000000000000000000008152600401611fc79190612586565b60405180910390fd5b505b6040517f08c379a000000000000000000000000000000000000000000000000000000000815260040161200490613b08565b60405180910390fd5b63f23a6e6160e01b7bffffffffffffffffffffffffffffffffffffffffffffffffffffffff1916817bffffffffffffffffffffffffffffffffffffffffffffffffffffffff191614612094576040517f08c379a000000000000000000000000000000000000000000000000000000000815260040161208b90613b9a565b60405180910390fd5b505b505050505050565b6000808273ffffffffffffffffffffffffffffffffffffffff163b119050919050565b6000604051905090565b600080fd5b600080fd5b600073ffffffffffffffffffffffffffffffffffffffff82169050919050565b6000612100826120d5565b9050919050565b612110816120f5565b811461211b57600080fd5b50565b60008135905061212d81612107565b92915050565b6000819050919050565b61214681612133565b811461215157600080fd5b50565b6000813590506121638161213d565b92915050565b600080604083850312156121805761217f6120cb565b5b600061218e8582860161211e565b925050602061219f85828601612154565b9150509250929050565b6121b281612133565b82525050565b60006020820190506121cd60008301846121a9565b92915050565b6000602082840312156121e9576121e86120cb565b5b60006121f78482850161211e565b91505092915050565b600081519050919050565b600082825260208201905092915050565b6000819050602082019050919050565b61223581612133565b82525050565b6000612247838361222c565b60208301905092915050565b6000602082019050919050565b600061226b82612200565b612275818561220b565b93506122808361221c565b8060005b838110156122b1578151612298888261223b565b97506122a383612253565b925050600181019050612284565b5085935050505092915050565b600060208201905081810360008301526122d88184612260565b905092915050565b60007fffffffff0000000000000000000000000000000000000000000000000000000082169050919050565b612315816122e0565b811461232057600080fd5b50565b6000813590506123328161230c565b92915050565b60006020828403121561234e5761234d6120cb565b5b600061235c84828501612323565b91505092915050565b60008115159050919050565b61237a81612365565b82525050565b60006020820190506123956000830184612371565b92915050565b600081519050919050565b600082825260208201905092915050565b6000819050602082019050919050565b600081519050919050565b600082825260208201905092915050565b60005b838110156124015780820151818401526020810190506123e6565b60008484015250505050565b6000601f19601f8301169050919050565b6000612429826123c7565b61243381856123d2565b93506124438185602086016123e3565b61244c8161240d565b840191505092915050565b6000612463838361241e565b905092915050565b6000602082019050919050565b60006124838261239b565b61248d81856123a6565b93508360208202850161249f856123b7565b8060005b858110156124db57848403895281516124bc8582612457565b94506124c78361246b565b925060208a019950506001810190506124a3565b50829750879550505050505092915050565b600060208201905081810360008301526125078184612478565b905092915050565b600060208284031215612525576125246120cb565b5b600061253384828501612154565b91505092915050565b600082825260208201905092915050565b6000612558826123c7565b612562818561253c565b93506125728185602086016123e3565b61257b8161240d565b840191505092915050565b600060208201905081810360008301526125a0818461254d565b905092915050565b600080604083850312156125bf576125be6120cb565b5b60006125cd85828601612154565b92505060206125de85828601612154565b9150509250929050565b600080fd5b7f4e487b7100000000000000000000000000000000000000000000000000000000600052604160045260246000fd5b6126258261240d565b810181811067ffffffffffffffff82111715612644576126436125ed565b5b80604052505050565b60006126576120c1565b9050612663828261261c565b919050565b600067ffffffffffffffff821115612683576126826125ed565b5b602082029050602081019050919050565b600080fd5b60006126ac6126a784612668565b61264d565b905080838252602082019050602084028301858111156126cf576126ce612694565b5b835b818110156126f857806126e48882612154565b8452602084019350506020810190506126d1565b5050509392505050565b600082601f830112612717576127166125e8565b5b8135612727848260208601612699565b91505092915050565b600080fd5b600067ffffffffffffffff8211156127505761274f6125ed565b5b6127598261240d565b9050602081019050919050565b82818337600083830152505050565b600061278861278384612735565b61264d565b9050828152602081018484840111156127a4576127a3612730565b5b6127af848285612766565b509392505050565b600082601f8301126127cc576127cb6125e8565b5b81356127dc848260208601612775565b91505092915050565b600080600080600060a08688031215612801576128006120cb565b5b600061280f8882890161211e565b95505060206128208882890161211e565b945050604086013567ffffffffffffffff811115612841576128406120d0565b5b61284d88828901612702565b935050606086013567ffffffffffffffff81111561286e5761286d6120d0565b5b61287a88828901612702565b925050608086013567ffffffffffffffff81111561289b5761289a6120d0565b5b6128a7888289016127b7565b9150509295509295909350565b600067ffffffffffffffff8211156128cf576128ce6125ed565b5b602082029050602081019050919050565b60006128f36128ee846128b4565b61264d565b9050808382526020820190506020840283018581111561291657612915612694565b5b835b8181101561293f578061292b888261211e565b845260208401935050602081019050612918565b5050509392505050565b600082601f83011261295e5761295d6125e8565b5b813561296e8482602086016128e0565b91505092915050565b6000806040838503121561298e5761298d6120cb565b5b600083013567ffffffffffffffff8111156129ac576129ab6120d0565b5b6129b885828601612949565b925050602083013567ffffffffffffffff8111156129d9576129d86120d0565b5b6129e585828601612702565b9150509250929050565b6129f881612365565b8114612a0357600080fd5b50565b600081359050612a15816129ef565b92915050565b60008060408385031215612a3257612a316120cb565b5b6000612a408582860161211e565b9250506020612a5185828601612a06565b9150509250929050565b600067ffffffffffffffff821115612a7657612a756125ed565b5b612a7f8261240d565b9050602081019050919050565b6000612a9f612a9a84612a5b565b61264d565b905082815260208101848484011115612abb57612aba612730565b5b612ac6848285612766565b509392505050565b600082601f830112612ae357612ae26125e8565b5b8135612af3848260208601612a8c565b91505092915050565b600060208284031215612b1257612b116120cb565b5b600082013567ffffffffffffffff811115612b3057612b2f6120d0565b5b612b3c84828501612ace565b91505092915050565b600080600060608486031215612b5e57612b5d6120cb565b5b6000612b6c8682870161211e565b935050602084013567ffffffffffffffff811115612b8d57612b8c6120d0565b5b612b9986828701612ace565b9250506040612baa86828701612154565b9150509250925092565b60006040820190508181036000830152612bce818561254d565b9050612bdd60208301846121a9565b9392505050565b60008060408385031215612bfb57612bfa6120cb565b5b6000612c098582860161211e565b9250506020612c1a8582860161211e565b9150509250929050565b600080600080600060a08688031215612c4057612c3f6120cb565b5b6000612c4e8882890161211e565b9550506020612c5f8882890161211e565b9450506040612c7088828901612154565b9350506060612c8188828901612154565b925050608086013567ffffffffffffffff811115612ca257612ca16120d0565b5b612cae888289016127b7565b9150509295509295909350565b600080600060608486031215612cd457612cd36120cb565b5b600084013567ffffffffffffffff811115612cf257612cf16120d0565b5b612cfe86828701612ace565b935050602084013567ffffffffffffffff811115612d1f57612d1e6120d0565b5b612d2b86828701612ace565b9250506040612d3c86828701612154565b9150509250925092565b7f455243313135353a2061646472657373207a65726f206973206e6f742061207660008201527f616c6964206f776e657200000000000000000000000000000000000000000000602082015250565b6000612da2602a8361253c565b9150612dad82612d46565b604082019050919050565b60006020820190508181036000830152612dd181612d95565b9050919050565b7f4e487b7100000000000000000000000000000000000000000000000000000000600052601160045260246000fd5b6000612e1282612133565b91507fffffffffffffffffffffffffffffffffffffffffffffffffffffffffffffffff8203612e4457612e43612dd8565b5b600182019050919050565b7f4e487b7100000000000000000000000000000000000000000000000000000000600052603260045260246000fd5b7f4e487b7100000000000000000000000000000000000000000000000000000000600052602260045260246000fd5b60006002820490506001821680612ec557607f821691505b602082108103612ed857612ed7612e7e565b5b50919050565b6000612ee982612133565b9150612ef483612133565b9250828201905080821115612f0c57612f0b612dd8565b5b92915050565b7f455243313135353a2063616c6c6572206973206e6f7420746f6b656e206f776e60008201527f6572206f7220617070726f766564000000000000000000000000000000000000602082015250565b6000612f6e602e8361253c565b9150612f7982612f12565b604082019050919050565b60006020820190508181036000830152612f9d81612f61565b9050919050565b7f455243313135353a206163636f756e747320616e6420696473206c656e67746860008201527f206d69736d617463680000000000000000000000000000000000000000000000602082015250565b600061300060298361253c565b915061300b82612fa4565b604082019050919050565b6000602082019050818103600083015261302f81612ff3565b9050919050565b7f436f6465206d7573742062652070726f76696465640000000000000000000000600082015250565b600061306c60158361253c565b915061307782613036565b602082019050919050565b6000602082019050818103600083015261309b8161305f565b9050919050565b600081905092915050565b60006130b8826123c7565b6130c281856130a2565b93506130d28185602086016123e3565b80840191505092915050565b60006130ea82846130ad565b915081905092915050565b7f436f646520646f6573206e6f7420657869737400000000000000000000000000600082015250565b600061312b60138361253c565b9150613136826130f5565b602082019050919050565b6000602082019050818103600083015261315a8161311e565b9050919050565b7f4974656d20616c72656164792072656465656d65640000000000000000000000600082015250565b600061319760158361253c565b91506131a282613161565b602082019050919050565b600060208201905081810360008301526131c68161318a565b9050919050565b7f4d65746164617461206d7573742062652070726f766964656400000000000000600082015250565b600061320360198361253c565b915061320e826131cd565b602082019050919050565b60006020820190508181036000830152613232816131f6565b9050919050565b7f457870657269656e6365206d7573742062652070726f76696465640000000000600082015250565b600061326f601b8361253c565b915061327a82613239565b602082019050919050565b6000602082019050818103600083015261329e81613262565b9050919050565b7f4163636f756e74206d7573742062652070726f76696465640000000000000000600082015250565b60006132db60188361253c565b91506132e6826132a5565b602082019050919050565b6000602082019050818103600083015261330a816132ce565b9050919050565b60008190508160005260206000209050919050565b60006020601f8301049050919050565b600082821b905092915050565b6000600883026133737fffffffffffffffffffffffffffffffffffffffffffffffffffffffffffffffff82613336565b61337d8683613336565b95508019841693508086168417925050509392505050565b6000819050919050565b60006133ba6133b56133b084612133565b613395565b612133565b9050919050565b6000819050919050565b6133d48361339f565b6133e86133e0826133c1565b848454613343565b825550505050565b600090565b6133fd6133f0565b6134088184846133cb565b505050565b5b8181101561342c576134216000826133f5565b60018101905061340e565b5050565b601f8211156134715761344281613311565b61344b84613326565b8101602085101561345a578190505b61346e61346685613326565b83018261340d565b50505b505050565b600082821c905092915050565b600061349460001984600802613476565b1980831691505092915050565b60006134ad8383613483565b9150826002028217905092915050565b6134c6826123c7565b67ffffffffffffffff8111156134df576134de6125ed565b5b6134e98254612ead565b6134f4828285613430565b600060209050601f8311600181146135275760008415613515578287015190505b61351f85826134a1565b865550613587565b601f19841661353586613311565b60005b8281101561355d57848901518255600182019150602085019450602081019050613538565b8683101561357a5784890151613576601f891682613483565b8355505b6001600288020188555050505b505050505050565b7f455243313135353a2069647320616e6420616d6f756e7473206c656e6774682060008201527f6d69736d61746368000000000000000000000000000000000000000000000000602082015250565b60006135eb60288361253c565b91506135f68261358f565b604082019050919050565b6000602082019050818103600083015261361a816135de565b9050919050565b7f455243313135353a207472616e7366657220746f20746865207a65726f20616460008201527f6472657373000000000000000000000000000000000000000000000000000000602082015250565b600061367d60258361253c565b915061368882613621565b604082019050919050565b600060208201905081810360008301526136ac81613670565b9050919050565b7f455243313135353a20696e73756666696369656e742062616c616e636520666f60008201527f72207472616e7366657200000000000000000000000000000000000000000000602082015250565b600061370f602a8361253c565b915061371a826136b3565b604082019050919050565b6000602082019050818103600083015261373e81613702565b9050919050565b6000604082019050818103600083015261375f8185612260565b905081810360208301526137738184612260565b90509392505050565b7f455243313135353a2073657474696e6720617070726f76616c2073746174757360008201527f20666f722073656c660000000000000000000000000000000000000000000000602082015250565b60006137d860298361253c565b91506137e38261377c565b604082019050919050565b60006020820190508181036000830152613807816137cb565b9050919050565b7f455243313135353a206d696e7420746f20746865207a65726f2061646472657360008201527f7300000000000000000000000000000000000000000000000000000000000000602082015250565b600061386a60218361253c565b91506138758261380e565b604082019050919050565b600060208201905081810360008301526138998161385d565b9050919050565b60006040820190506138b560008301856121a9565b6138c260208301846121a9565b9392505050565b6138d2816120f5565b82525050565b600081519050919050565b600082825260208201905092915050565b60006138ff826138d8565b61390981856138e3565b93506139198185602086016123e3565b6139228161240d565b840191505092915050565b600060a08201905061394260008301886138c9565b61394f60208301876138c9565b81810360408301526139618186612260565b905081810360608301526139758185612260565b9050818103608083015261398981846138f4565b90509695505050505050565b6000815190506139a48161230c565b92915050565b6000602082840312156139c0576139bf6120cb565b5b60006139ce84828501613995565b91505092915050565b60008160e01c9050919050565b600060033d1115613a035760046000803e613a006000516139d7565b90505b90565b600060443d10613a9357613a186120c1565b60043d036004823e80513d602482011167ffffffffffffffff82111715613a40575050613a93565b808201805167ffffffffffffffff811115613a5e5750505050613a93565b80602083010160043d038501811115613a7b575050505050613a93565b613a8a8260200185018661261c565b82955050505050505b90565b7f455243313135353a207472616e7366657220746f206e6f6e2d4552433131353560008201527f526563656976657220696d706c656d656e746572000000000000000000000000602082015250565b6000613af260348361253c565b9150613afd82613a96565b604082019050919050565b60006020820190508181036000830152613b2181613ae5565b9050919050565b7f455243313135353a204552433131353552656365697665722072656a6563746560008201527f6420746f6b656e73000000000000000000000000000000000000000000000000602082015250565b6000613b8460288361253c565b9150613b8f82613b28565b604082019050919050565b60006020820190508181036000830152613bb381613b77565b9050919050565b600060a082019050613bcf60008301886138c9565b613bdc60208301876138c9565b613be960408301866121a9565b613bf660608301856121a9565b8181036080830152613c0881846138f4565b9050969550505050505056fea264697066735822122040d4cbde41d17c86e4f67384235460c802dc693c4831c568f0a0ff4412f8483164736f6c63430008110033",
  "linkReferences": {},
  "deployedLinkReferences": {}
}