{
  "_format": "hh-sol-artifact-1",
  "contractName": "web3GAME",
  "sourceName": "contracts/web3GAME.sol",
  "abi": [
    {
      "inputs": [
        {
          "internalType": "string",
          "name": "_name",
          "type": "string"
        },
        {
          "internalType": "string",
          "name": "_symbol",
          "type": "string"
        },
        {
          "internalType": "address",
          "name": "_royaltyRecipient",
          "type": "address"
        },
        {
          "internalType": "uint128",
          "name": "_royaltyBps",
          "type": "uint128"
        }
      ],
      "stateMutability": "nonpayable",
      "type": "constructor"
    },
    {
      "inputs": [
        {
          "internalType": "address",
          "name": "operator",
          "type": "address"
        }
      ],
      "name": "OperatorNotAllowed",
      "type": "error"
    },
    {
      "anonymous": false,
      "inputs": [
        {
          "indexed": true,
          "internalType": "address",
          "name": "_owner",
          "type": "address"
        },
        {
          "indexed": true,
          "internalType": "address",
          "name": "_operator",
          "type": "address"
        },
        {
          "indexed": false,
          "internalType": "bool",
          "name": "_approved",
          "type": "bool"
        }
      ],
      "name": "ApprovalForAll",
      "type": "event"
    },
    {
      "anonymous": false,
      "inputs": [
        {
          "indexed": false,
          "internalType": "string",
          "name": "prevURI",
          "type": "string"
        },
        {
          "indexed": false,
          "internalType": "string",
          "name": "newURI",
          "type": "string"
        }
      ],
      "name": "ContractURIUpdated",
      "type": "event"
    },
    {
      "anonymous": false,
      "inputs": [
        {
          "indexed": true,
          "internalType": "address",
          "name": "newRoyaltyRecipient",
          "type": "address"
        },
        {
          "indexed": false,
          "internalType": "uint256",
          "name": "newRoyaltyBps",
          "type": "uint256"
        }
      ],
      "name": "DefaultRoyalty",
      "type": "event"
    },
    {
      "anonymous": false,
      "inputs": [
        {
          "indexed": false,
          "internalType": "bool",
          "name": "restriction",
          "type": "bool"
        }
      ],
      "name": "OperatorRestriction",
      "type": "event"
    },
    {
      "anonymous": false,
      "inputs": [
        {
          "indexed": true,
          "internalType": "address",
          "name": "prevOwner",
          "type": "address"
        },
        {
          "indexed": true,
          "internalType": "address",
          "name": "newOwner",
          "type": "address"
        }
      ],
      "name": "OwnerUpdated",
      "type": "event"
    },
    {
      "anonymous": false,
      "inputs": [
        {
          "indexed": true,
          "internalType": "uint256",
          "name": "tokenId",
          "type": "uint256"
        },
        {
          "indexed": true,
          "internalType": "address",
          "name": "royaltyRecipient",
          "type": "address"
        },
        {
          "indexed": false,
          "internalType": "uint256",
          "name": "royaltyBps",
          "type": "uint256"
        }
      ],
      "name": "RoyaltyForToken",
      "type": "event"
    },
    {
      "anonymous": false,
      "inputs": [
        {
          "indexed": true,
          "internalType": "address",
          "name": "_operator",
          "type": "address"
        },
        {
          "indexed": true,
          "internalType": "address",
          "name": "_from",
          "type": "address"
        },
        {
          "indexed": true,
          "internalType": "address",
          "name": "_to",
          "type": "address"
        },
        {
          "indexed": false,
          "internalType": "uint256[]",
          "name": "_ids",
          "type": "uint256[]"
        },
        {
          "indexed": false,
          "internalType": "uint256[]",
          "name": "_values",
          "type": "uint256[]"
        }
      ],
      "name": "TransferBatch",
      "type": "event"
    },
    {
      "anonymous": false,
      "inputs": [
        {
          "indexed": true,
          "internalType": "address",
          "name": "_operator",
          "type": "address"
        },
        {
          "indexed": true,
          "internalType": "address",
          "name": "_from",
          "type": "address"
        },
        {
          "indexed": true,
          "internalType": "address",
          "name": "_to",
          "type": "address"
        },
        {
          "indexed": false,
          "internalType": "uint256",
          "name": "_id",
          "type": "uint256"
        },
        {
          "indexed": false,
          "internalType": "uint256",
          "name": "_value",
          "type": "uint256"
        }
      ],
      "name": "TransferSingle",
      "type": "event"
    },
    {
      "anonymous": false,
      "inputs": [
        {
          "indexed": false,
          "internalType": "string",
          "name": "_value",
          "type": "string"
        },
        {
          "indexed": true,
          "internalType": "uint256",
          "name": "_id",
          "type": "uint256"
        }
      ],
      "name": "URI",
      "type": "event"
    },
    {
      "inputs": [],
      "name": "OPERATOR_FILTER_REGISTRY",
      "outputs": [
        {
          "internalType": "contract IOperatorFilterRegistry",
          "name": "",
          "type": "address"
        }
      ],
      "stateMutability": "view",
      "type": "function"
    },
    {
      "inputs": [
        {
          "internalType": "address",
          "name": "",
          "type": "address"
        },
        {
          "internalType": "uint256",
          "name": "",
          "type": "uint256"
        }
      ],
      "name": "balanceOf",
      "outputs": [
        {
          "internalType": "uint256",
          "name": "",
          "type": "uint256"
        }
      ],
      "stateMutability": "view",
      "type": "function"
    },
    {
      "inputs": [
        {
          "internalType": "address[]",
          "name": "accounts",
          "type": "address[]"
        },
        {
          "internalType": "uint256[]",
          "name": "ids",
          "type": "uint256[]"
        }
      ],
      "name": "balanceOfBatch",
      "outputs": [
        {
          "internalType": "uint256[]",
          "name": "",
          "type": "uint256[]"
        }
      ],
      "stateMutability": "view",
      "type": "function"
    },
    {
      "inputs": [
        {
          "internalType": "address",
          "name": "_to",
          "type": "address"
        },
        {
          "internalType": "uint256[]",
          "name": "_tokenIds",
          "type": "uint256[]"
        },
        {
          "internalType": "uint256[]",
          "name": "_amounts",
          "type": "uint256[]"
        },
        {
          "internalType": "string",
          "name": "_baseURI",
          "type": "string"
        }
      ],
      "name": "batchMintTo",
      "outputs": [],
      "stateMutability": "nonpayable",
      "type": "function"
    },
    {
      "inputs": [
        {
          "internalType": "address",
          "name": "_owner",
          "type": "address"
        },
        {
          "internalType": "uint256",
          "name": "_tokenId",
          "type": "uint256"
        },
        {
          "internalType": "uint256",
          "name": "_amount",
          "type": "uint256"
        }
      ],
      "name": "burn",
      "outputs": [],
      "stateMutability": "nonpayable",
      "type": "function"
    },
    {
      "inputs": [
        {
          "internalType": "address",
          "name": "_owner",
          "type": "address"
        },
        {
          "internalType": "uint256[]",
          "name": "_tokenIds",
          "type": "uint256[]"
        },
        {
          "internalType": "uint256[]",
          "name": "_amounts",
          "type": "uint256[]"
        }
      ],
      "name": "burnBatch",
      "outputs": [],
      "stateMutability": "nonpayable",
      "type": "function"
    },
    {
      "inputs": [],
      "name": "contractURI",
      "outputs": [
        {
          "internalType": "string",
          "name": "",
          "type": "string"
        }
      ],
      "stateMutability": "view",
      "type": "function"
    },
    {
      "inputs": [
        {
          "internalType": "string",
          "name": "_code",
          "type": "string"
        },
        {
          "internalType": "string",
          "name": "_uri",
          "type": "string"
        },
        {
          "internalType": "uint256",
          "name": "_experience",
          "type": "uint256"
        }
      ],
      "name": "createRedeemableItem",
      "outputs": [],
      "stateMutability": "nonpayable",
      "type": "function"
    },
    {
      "inputs": [
        {
          "internalType": "uint256",
          "name": "",
          "type": "uint256"
        }
      ],
      "name": "experience",
      "outputs": [
        {
          "internalType": "uint256",
          "name": "",
          "type": "uint256"
        }
      ],
      "stateMutability": "view",
      "type": "function"
    },
    {
      "inputs": [],
      "name": "getBaseURICount",
      "outputs": [
        {
          "internalType": "uint256",
          "name": "",
          "type": "uint256"
        }
      ],
      "stateMutability": "view",
      "type": "function"
    },
    {
      "inputs": [
        {
          "internalType": "uint256",
          "name": "_index",
          "type": "uint256"
        }
      ],
      "name": "getBatchIdAtIndex",
      "outputs": [
        {
          "internalType": "uint256",
          "name": "",
          "type": "uint256"
        }
      ],
      "stateMutability": "view",
      "type": "function"
    },
    {
      "inputs": [
        {
          "internalType": "uint256",
          "name": "_id",
          "type": "uint256"
        }
      ],
      "name": "getBokemon",
      "outputs": [
        {
          "internalType": "string",
          "name": "",
          "type": "string"
        },
        {
          "internalType": "uint256",
          "name": "",
          "type": "uint256"
        }
      ],
      "stateMutability": "view",
      "type": "function"
    },
    {
      "inputs": [
        {
          "internalType": "address",
          "name": "_user",
          "type": "address"
        }
      ],
      "name": "getBokemonPerUser",
      "outputs": [
        {
          "internalType": "uint256[]",
          "name": "",
          "type": "uint256[]"
        }
      ],
      "stateMutability": "view",
      "type": "function"
    },
    {
      "inputs": [
        {
          "internalType": "uint256",
          "name": "_id",
          "type": "uint256"
        }
      ],
      "name": "getBokemonUri",
      "outputs": [
        {
          "internalType": "string",
          "name": "",
          "type": "string"
        }
      ],
      "stateMutability": "view",
      "type": "function"
    },
    {
      "inputs": [],
      "name": "getDefaultRoyaltyInfo",
      "outputs": [
        {
          "internalType": "address",
          "name": "",
          "type": "address"
        },
        {
          "internalType": "uint16",
          "name": "",
          "type": "uint16"
        }
      ],
      "stateMutability": "view",
      "type": "function"
    },
    {
      "inputs": [
        {
          "internalType": "uint256",
          "name": "_tokenId",
          "type": "uint256"
        }
      ],
      "name": "getRoyaltyInfoForToken",
      "outputs": [
        {
          "internalType": "address",
          "name": "",
          "type": "address"
        },
        {
          "internalType": "uint16",
          "name": "",
          "type": "uint16"
        }
      ],
      "stateMutability": "view",
      "type": "function"
    },
    {
      "inputs": [
        {
          "internalType": "uint256",
          "name": "_id",
          "type": "uint256"
        },
        {
          "internalType": "uint256",
          "name": "_experience",
          "type": "uint256"
        }
      ],
      "name": "increaseExperience",
      "outputs": [],
      "stateMutability": "nonpayable",
      "type": "function"
    },
    {
      "inputs": [
        {
          "internalType": "address",
          "name": "",
          "type": "address"
        },
        {
          "internalType": "address",
          "name": "",
          "type": "address"
        }
      ],
      "name": "isApprovedForAll",
      "outputs": [
        {
          "internalType": "bool",
          "name": "",
          "type": "bool"
        }
      ],
      "stateMutability": "view",
      "type": "function"
    },
    {
      "inputs": [
        {
          "internalType": "address",
          "name": "account",
          "type": "address"
        },
        {
          "internalType": "string",
          "name": "uri",
          "type": "string"
        },
        {
          "internalType": "uint256",
          "name": "_experience",
          "type": "uint256"
        }
      ],
      "name": "mint",
      "outputs": [
        {
          "internalType": "uint256",
          "name": "",
          "type": "uint256"
        }
      ],
      "stateMutability": "nonpayable",
      "type": "function"
    },
    {
      "inputs": [
        {
          "internalType": "address",
          "name": "_to",
          "type": "address"
        },
        {
          "internalType": "uint256",
          "name": "_tokenId",
          "type": "uint256"
        },
        {
          "internalType": "string",
          "name": "_tokenURI",
          "type": "string"
        },
        {
          "internalType": "uint256",
          "name": "_amount",
          "type": "uint256"
        }
      ],
      "name": "mintTo",
      "outputs": [],
      "stateMutability": "nonpayable",
      "type": "function"
    },
    {
      "inputs": [
        {
          "internalType": "bytes[]",
          "name": "data",
          "type": "bytes[]"
        }
      ],
      "name": "multicall",
      "outputs": [
        {
          "internalType": "bytes[]",
          "name": "results",
          "type": "bytes[]"
        }
      ],
      "stateMutability": "nonpayable",
      "type": "function"
    },
    {
      "inputs": [],
      "name": "name",
      "outputs": [
        {
          "internalType": "string",
          "name": "",
          "type": "string"
        }
      ],
      "stateMutability": "view",
      "type": "function"
    },
    {
      "inputs": [],
      "name": "nextTokenIdToMint",
      "outputs": [
        {
          "internalType": "uint256",
          "name": "",
          "type": "uint256"
        }
      ],
      "stateMutability": "view",
      "type": "function"
    },
    {
      "inputs": [],
      "name": "operatorRestriction",
      "outputs": [
        {
          "internalType": "bool",
          "name": "",
          "type": "bool"
        }
      ],
      "stateMutability": "view",
      "type": "function"
    },
    {
      "inputs": [],
      "name": "owner",
      "outputs": [
        {
          "internalType": "address",
          "name": "",
          "type": "address"
        }
      ],
      "stateMutability": "view",
      "type": "function"
    },
    {
      "inputs": [
        {
          "internalType": "string",
          "name": "_code",
          "type": "string"
        }
      ],
      "name": "redeemItem",
      "outputs": [],
      "stateMutability": "nonpayable",
      "type": "function"
    },
    {
      "inputs": [
        {
          "internalType": "uint256",
          "name": "tokenId",
          "type": "uint256"
        },
        {
          "internalType": "uint256",
          "name": "salePrice",
          "type": "uint256"
        }
      ],
      "name": "royaltyInfo",
      "outputs": [
        {
          "internalType": "address",
          "name": "receiver",
          "type": "address"
        },
        {
          "internalType": "uint256",
          "name": "royaltyAmount",
          "type": "uint256"
        }
      ],
      "stateMutability": "view",
      "type": "function"
    },
    {
      "inputs": [
        {
          "internalType": "address",
          "name": "from",
          "type": "address"
        },
        {
          "internalType": "address",
          "name": "to",
          "type": "address"
        },
        {
          "internalType": "uint256[]",
          "name": "ids",
          "type": "uint256[]"
        },
        {
          "internalType": "uint256[]",
          "name": "amounts",
          "type": "uint256[]"
        },
        {
          "internalType": "bytes",
          "name": "data",
          "type": "bytes"
        }
      ],
      "name": "safeBatchTransferFrom",
      "outputs": [],
      "stateMutability": "nonpayable",
      "type": "function"
    },
    {
      "inputs": [
        {
          "internalType": "address",
          "name": "from",
          "type": "address"
        },
        {
          "internalType": "address",
          "name": "to",
          "type": "address"
        },
        {
          "internalType": "uint256",
          "name": "id",
          "type": "uint256"
        },
        {
          "internalType": "uint256",
          "name": "amount",
          "type": "uint256"
        },
        {
          "internalType": "bytes",
          "name": "data",
          "type": "bytes"
        }
      ],
      "name": "safeTransferFrom",
      "outputs": [],
      "stateMutability": "nonpayable",
      "type": "function"
    },
    {
      "inputs": [
        {
          "internalType": "address",
          "name": "operator",
          "type": "address"
        },
        {
          "internalType": "bool",
          "name": "approved",
          "type": "bool"
        }
      ],
      "name": "setApprovalForAll",
      "outputs": [],
      "stateMutability": "nonpayable",
      "type": "function"
    },
    {
      "inputs": [
        {
          "internalType": "string",
          "name": "_uri",
          "type": "string"
        }
      ],
      "name": "setContractURI",
      "outputs": [],
      "stateMutability": "nonpayable",
      "type": "function"
    },
    {
      "inputs": [
        {
          "internalType": "address",
          "name": "_royaltyRecipient",
          "type": "address"
        },
        {
          "internalType": "uint256",
          "name": "_royaltyBps",
          "type": "uint256"
        }
      ],
      "name": "setDefaultRoyaltyInfo",
      "outputs": [],
      "stateMutability": "nonpayable",
      "type": "function"
    },
    {
      "inputs": [
        {
          "internalType": "bool",
          "name": "_restriction",
          "type": "bool"
        }
      ],
      "name": "setOperatorRestriction",
      "outputs": [],
      "stateMutability": "nonpayable",
      "type": "function"
    },
    {
      "inputs": [
        {
          "internalType": "address",
          "name": "_newOwner",
          "type": "address"
        }
      ],
      "name": "setOwner",
      "outputs": [],
      "stateMutability": "nonpayable",
      "type": "function"
    },
    {
      "inputs": [
        {
          "internalType": "uint256",
          "name": "_tokenId",
          "type": "uint256"
        },
        {
          "internalType": "address",
          "name": "_recipient",
          "type": "address"
        },
        {
          "internalType": "uint256",
          "name": "_bps",
          "type": "uint256"
        }
      ],
      "name": "setRoyaltyInfoForToken",
      "outputs": [],
      "stateMutability": "nonpayable",
      "type": "function"
    },
    {
      "inputs": [
        {
          "internalType": "bytes4",
          "name": "interfaceId",
          "type": "bytes4"
        }
      ],
      "name": "supportsInterface",
      "outputs": [
        {
          "internalType": "bool",
          "name": "",
          "type": "bool"
        }
      ],
      "stateMutability": "view",
      "type": "function"
    },
    {
      "inputs": [],
      "name": "symbol",
      "outputs": [
        {
          "internalType": "string",
          "name": "",
          "type": "string"
        }
      ],
      "stateMutability": "view",
      "type": "function"
    },
    {
      "inputs": [
        {
          "internalType": "uint256",
          "name": "",
          "type": "uint256"
        }
      ],
      "name": "totalSupply",
      "outputs": [
        {
          "internalType": "uint256",
          "name": "",
          "type": "uint256"
        }
      ],
      "stateMutability": "view",
      "type": "function"
    },
    {
      "inputs": [
        {
          "internalType": "uint256",
          "name": "_tokenId",
          "type": "uint256"
        }
      ],
      "name": "uri",
      "outputs": [
        {
          "internalType": "string",
          "name": "",
          "type": "string"
        }
      ],
      "stateMutability": "view",
      "type": "function"
    }
  ],
  "bytecode": "0x60806040523480156200001157600080fd5b50604051620046a2380380620046a28339810160408190526200003491620003fc565b83838383733cc6cdda760b79bafa08df41ecfa224f810dceb66001858560006200005f838262000537565b5060016200006e828262000537565b5050506daaeb6d7670e522a718067333cd4e3b15620001b65780156200010457604051633e9f1edf60e11b81523060048201526001600160a01b03831660248201526daaeb6d7670e522a718067333cd4e90637d3e3dbe906044015b600060405180830381600087803b158015620000e557600080fd5b505af1158015620000fa573d6000803e3d6000fd5b50505050620001b6565b6001600160a01b03821615620001555760405163a0af290360e01b81523060048201526001600160a01b03831660248201526daaeb6d7670e522a718067333cd4e9063a0af290390604401620000ca565b604051632210724360e11b81523060048201526daaeb6d7670e522a718067333cd4e90634420e48690602401600060405180830381600087803b1580156200019c57600080fd5b505af1158015620001b1573d6000803e3d6000fd5b505050505b50620001c4905033620001f3565b620001d9826001600160801b03831662000245565b620001e56001620002f0565b505050505050505062000603565b600680546001600160a01b038381166001600160a01b0319831681179093556040519116919082907f8292fce18fa69edf4db7b94ea2e58241df0ae57f97e0a6c9b29067028bf92d7690600090a35050565b6127108111156200028e5760405162461bcd60e51b815260206004820152600f60248201526e45786365656473206d61782062707360881b604482015260640160405180910390fd5b600780546001600160a01b0384166001600160b01b03199091168117600160a01b61ffff851602179091556040518281527f90d7ec04bcb8978719414f82e52e4cb651db41d0e6f8cea6118c2191e6183adb9060200160405180910390a25050565b600b805460ff19168215159081179091556040519081527f38475885990d8dfe9ca01f0ef160a1b5514426eab9ddbc953a3353410ba780969060200160405180910390a150565b634e487b7160e01b600052604160045260246000fd5b600082601f8301126200035f57600080fd5b81516001600160401b03808211156200037c576200037c62000337565b604051601f8301601f19908116603f01168101908282118183101715620003a757620003a762000337565b81604052838152602092508683858801011115620003c457600080fd5b600091505b83821015620003e85785820183015181830184015290820190620003c9565b600093810190920192909252949350505050565b600080600080608085870312156200041357600080fd5b84516001600160401b03808211156200042b57600080fd5b62000439888389016200034d565b955060208701519150808211156200045057600080fd5b506200045f878288016200034d565b604087015190945090506001600160a01b03811681146200047f57600080fd5b60608601519092506001600160801b03811681146200049d57600080fd5b939692955090935050565b600181811c90821680620004bd57607f821691505b602082108103620004de57634e487b7160e01b600052602260045260246000fd5b50919050565b601f8211156200053257600081815260208120601f850160051c810160208610156200050d5750805b601f850160051c820191505b818110156200052e5782815560010162000519565b5050505b505050565b81516001600160401b0381111562000553576200055362000337565b6200056b81620005648454620004a8565b84620004e4565b602080601f831160018114620005a357600084156200058a5750858301515b600019600386901b1c1916600185901b1785556200052e565b600085815260208120601f198616915b82811015620005d457888601518255948401946001909101908401620005b3565b5085821015620005f35787850151600019600388901b60f8161c191681555b5050505050600190811b01905550565b61408f80620006136000396000f3fe608060405234801561001057600080fd5b50600436106102ac5760003560e01c80638da5cb5b1161017b578063ba7aef43116100d8578063e985e9c51161008c578063f5298aca11610071578063f5298aca1461062b578063f8508a0b1461063e578063fc2c738d1461065157600080fd5b8063e985e9c5146105ea578063f242432a1461061857600080fd5b8063ce5f036a116100bd578063ce5f036a146105a1578063d3e97165146105c2578063e8a3d485146105e257600080fd5b8063ba7aef431461056e578063bd85b0391461058157600080fd5b8063a22cb4651161012f578063ac9650d811610114578063ac9650d81461051d578063b03f45281461053d578063b24f2d391461055057600080fd5b8063a22cb465146104f7578063ac60345b1461050a57600080fd5b8063949c09f711610160578063949c09f7146104c957806395d89b41146104dc5780639bcf7a15146104e457600080fd5b80638da5cb5b146104a5578063938e3d7b146104b657600080fd5b80632eb2c2d6116102295780634e1273f4116101dd578063600dd5ea116101c2578063600dd5ea1461047757806363b45e2d1461048a5780636b20c4541461049257600080fd5b80634e1273f414610457578063504c6e011461046a57600080fd5b80633b1475a71161020e5780633b1475a7146103ed57806341f43434146103f55780634cc157df1461042257600080fd5b80632eb2c2d6146103c757806332f0cd64146103da57600080fd5b80630e89341c116102805780632419f51b116102655780632419f51b1461036f578063243a7c7b146103825780632a55205a1461039557600080fd5b80630e89341c1461034757806313af40351461035a57600080fd5b8062fdd58e146102b15780630134671b146102ef57806301ffc9a71461030f57806306fdde0314610332575b600080fd5b6102dc6102bf3660046132f1565b600260209081526000928352604080842090915290825290205481565b6040519081526020015b60405180910390f35b6103026102fd36600461331b565b610664565b6040516102e69190613371565b61032261031d36600461339a565b610788565b60405190151581526020016102e6565b61033a610859565b6040516102e69190613407565b61033a61035536600461341a565b6108e7565b61036d61036836600461331b565b6109d5565b005b6102dc61037d36600461341a565b610a2b565b61036d610390366004613433565b610aa9565b6103a86103a3366004613433565b610ad0565b604080516001600160a01b0390931683526020830191909152016102e6565b61036d6103d53660046135a1565b610b0d565b61036d6103e8366004613659565b610b3c565b600c546102dc565b61040a6daaeb6d7670e522a718067333cd4e81565b6040516001600160a01b0390911681526020016102e6565b61043561043036600461341a565b610bbf565b604080516001600160a01b03909316835261ffff9091166020830152016102e6565b610302610465366004613676565b610c2a565b600b546103229060ff1681565b61036d6104853660046132f1565b610d61565b6009546102dc565b61036d6104a0366004613741565b610db4565b6006546001600160a01b031661040a565b61036d6104c43660046137b5565b610f76565b61036d6104d73660046137ea565b610fc4565b61033a6111db565b61036d6104f2366004613883565b6111e8565b61036d6105053660046138b8565b61123d565b61036d6105183660046137b5565b611251565b61053061052b3660046138ef565b6114d3565b6040516102e69190613964565b61036d61054b3660046139c6565b6115c8565b6007546001600160a01b03811690600160a01b900461ffff16610435565b6102dc61057c366004613a25565b6116b9565b6102dc61058f36600461341a565b600d6020526000908152604090205481565b6105b46105af36600461341a565b6117f6565b6040516102e6929190613a7c565b6102dc6105d036600461341a565b600f6020526000908152604090205481565b61033a61181a565b6103226105f8366004613a9e565b600360209081526000928352604080842090915290825290205460ff1681565b61036d610626366004613ad1565b611827565b61036d610639366004613b36565b61184e565b61033a61064c36600461341a565b611955565b61036d61065f366004613b69565b611960565b60606000805b600e548110156106bf576001600160a01b03841660009081526002602090815260408083208484529091529020546001036106ad57816106a981613bdb565b9250505b806106b781613bdb565b91505061066a565b5060008167ffffffffffffffff8111156106db576106db613455565b604051908082528060200260200182016040528015610704578160200160208202803683370190505b5090506000805b600e5481101561077e576001600160a01b038616600090815260026020908152604080832084845290915290205460010361076c578083838151811061075357610753613bf4565b60209081029190910101528161076881613bdb565b9250505b8061077681613bdb565b91505061070b565b5090949350505050565b60007f01ffc9a7000000000000000000000000000000000000000000000000000000006001600160e01b0319831614806107eb57507fd9b67a26000000000000000000000000000000000000000000000000000000006001600160e01b03198316145b8061081f57507f0e89341c000000000000000000000000000000000000000000000000000000006001600160e01b03198316145b8061085357506001600160e01b031982167f2a55205a00000000000000000000000000000000000000000000000000000000145b92915050565b6000805461086690613c0a565b80601f016020809104026020016040519081016040528092919081815260200182805461089290613c0a565b80156108df5780601f106108b4576101008083540402835291602001916108df565b820191906000526020600020905b8154815290600101906020018083116108c257829003601f168201915b505050505081565b60008181526004602052604081208054606092919061090590613c0a565b80601f016020809104026020016040519081016040528092919081815260200182805461093190613c0a565b801561097e5780601f106109535761010080835404028352916020019161097e565b820191906000526020600020905b81548152906001019060200180831161096157829003601f168201915b505050505090506000815111156109955792915050565b60006109a084611abc565b9050806109ac85611c66565b6040516020016109bd929190613c44565b60405160208183030381529060405292505050919050565b6109dd611da3565b610a1f5760405162461bcd60e51b815260206004820152600e60248201526d139bdd08185d5d1a1bdc9a5e995960921b60448201526064015b60405180910390fd5b610a2881611dd0565b50565b6000610a3660095490565b8210610a845760405162461bcd60e51b815260206004820152600d60248201527f496e76616c696420696e646578000000000000000000000000000000000000006044820152606401610a16565b60098281548110610a9757610a97613bf4565b90600052602060002001549050919050565b6000828152600f602052604081208054839290610ac7908490613c73565b90915550505050565b600080600080610adf86610bbf565b90945084925061ffff169050612710610af88287613c86565b610b029190613cb3565b925050509250929050565b846001600160a01b0381163314610b2757610b2733611e2f565b610b348686868686611f25565b505050505050565b610b44611da3565b610bb65760405162461bcd60e51b815260206004820152602b60248201527f4e6f7420617574686f72697a656420746f20736574206f70657261746f72207260448201527f65737472696374696f6e2e0000000000000000000000000000000000000000006064820152608401610a16565b610a2881611fbf565b6000818152600860209081526040808320815180830190925280546001600160a01b031680835260019091015492820192909252829115610c065780516020820151610c20565b6007546001600160a01b03811690600160a01b900461ffff165b9250925050915091565b60608151835114610c6f5760405162461bcd60e51b815260206004820152600f60248201526e0988a9c8ea890be9a92a69a82a8869608b1b6044820152606401610a16565b6000835167ffffffffffffffff811115610c8b57610c8b613455565b604051908082528060200260200182016040528015610cb4578160200160208202803683370190505b50905060005b8451811015610d595760026000868381518110610cd957610cd9613bf4565b60200260200101516001600160a01b03166001600160a01b031681526020019081526020016000206000858381518110610d1557610d15613bf4565b6020026020010151815260200190815260200160002054828281518110610d3e57610d3e613bf4565b6020908102919091010152610d5281613bdb565b9050610cba565b509392505050565b610d69611da3565b610da65760405162461bcd60e51b815260206004820152600e60248201526d139bdd08185d5d1a1bdc9a5e995960921b6044820152606401610a16565b610db08282612006565b5050565b336001600160a01b038416811480610df157506001600160a01b0380851660009081526003602090815260408083209385168352929052205460ff165b610e3d5760405162461bcd60e51b815260206004820152601160248201527f556e617070726f7665642063616c6c65720000000000000000000000000000006044820152606401610a16565b8151835114610e8e5760405162461bcd60e51b815260206004820152600f60248201527f4c656e677468206d69736d6174636800000000000000000000000000000000006044820152606401610a16565b60005b8351811015610f6457828181518110610eac57610eac613bf4565b602002602001015160026000876001600160a01b03166001600160a01b031681526020019081526020016000206000868481518110610eed57610eed613bf4565b60200260200101518152602001908152602001600020541015610f525760405162461bcd60e51b815260206004820152601760248201527f4e6f7420656e6f75676820746f6b656e73206f776e65640000000000000000006044820152606401610a16565b610f5d600182613c73565b9050610e91565b50610f708484846120d2565b50505050565b610f7e611da3565b610fbb5760405162461bcd60e51b815260206004820152600e60248201526d139bdd08185d5d1a1bdc9a5e995960921b6044820152606401610a16565b610a28816122db565b610fcc611da3565b6110185760405162461bcd60e51b815260206004820152601760248201527f4e6f7420617574686f72697a656420746f206d696e742e0000000000000000006044820152606401610a16565b60008251116110695760405162461bcd60e51b815260206004820152601460248201527f4d696e74696e67207a65726f20746f6b656e732e0000000000000000000000006044820152606401610a16565b81518351146110ba5760405162461bcd60e51b815260206004820152601060248201527f4c656e677468206d69736d617463682e000000000000000000000000000000006044820152606401610a16565b60006110c5600c5490565b9050806000805b865181101561119b576000198782815181106110ea576110ea613bf4565b602002602001015103611134578387828151811061110a5761110a613bf4565b6020908102919091010152611120600185613c73565b935061112d600183613c73565b9150611189565b8387828151811061114757611147613bf4565b6020026020010151106111895760405162461bcd60e51b815260206004820152600a6024820152691a5b9d985b1a59081a5960b21b6044820152606401610a16565b611194600182613c73565b90506110cc565b5080156111b0576111ad8282866123b7565b50505b82600c819055506111d28787876040518060200160405280600081525061241b565b50505050505050565b6001805461086690613c0a565b6111f0611da3565b61122d5760405162461bcd60e51b815260206004820152600e60248201526d139bdd08185d5d1a1bdc9a5e995960921b6044820152606401610a16565b6112388383836125b7565b505050565b8161124781611e2f565b611238838361269c565b60008151116112a25760405162461bcd60e51b815260206004820152601560248201527f436f6465206d7573742062652070726f766964656400000000000000000000006044820152606401610a16565b6010816040516112b29190613cc7565b9081526020016040518091039020546000036113105760405162461bcd60e51b815260206004820152601360248201527f436f646520646f6573206e6f74206578697374000000000000000000000000006044820152606401610a16565b601360006010836040516113249190613cc7565b908152604080516020928190038301902054835290820192909252016000205460ff16156113945760405162461bcd60e51b815260206004820152601560248201527f4974656d20616c72656164792072656465656d656400000000000000000000006044820152606401610a16565b6001601360006010846040516113aa9190613cc7565b908152602001604051809103902054815260200190815260200160002060006101000a81548160ff021916908315150217905550610db033601160006010856040516113f69190613cc7565b9081526020016040518091039020548152602001908152602001600020805461141e90613c0a565b80601f016020809104026020016040519081016040528092919081815260200182805461144a90613c0a565b80156114975780601f1061146c57610100808354040283529160200191611497565b820191906000526020600020905b81548152906001019060200180831161147a57829003601f168201915b5050505050601260006010866040516114b09190613cc7565b9081526020016040518091039020548152602001908152602001600020546116b9565b60608167ffffffffffffffff8111156114ee576114ee613455565b60405190808252806020026020018201604052801561152157816020015b606081526020019060019003908161150c5790505b50905060005b828110156115c1576115913085858481811061154557611545613bf4565b90506020028101906115579190613ce3565b8080601f01602080910402602001604051908101604052809392919081815260200183838082843760009201919091525061275a92505050565b8282815181106115a3576115a3613bf4565b602002602001018190525080806115b990613bdb565b915050611527565b5092915050565b6115d0611da3565b61161c5760405162461bcd60e51b815260206004820152601760248201527f4e6f7420617574686f72697a656420746f206d696e742e0000000000000000006044820152606401610a16565b600080611628600c5490565b9050600019850361165e578091506001600c60008282546116499190613c73565b909155506116599050818561277f565b61169e565b80851061169a5760405162461bcd60e51b815260206004820152600a6024820152691a5b9d985b1a59081a5960b21b6044820152606401610a16565b8491505b610b3486838560405180602001604052806000815250612797565b60008083511161170b5760405162461bcd60e51b815260206004820152601960248201527f4d65746164617461206d7573742062652070726f7669646564000000000000006044820152606401610a16565b6000821161175b5760405162461bcd60e51b815260206004820152601b60248201527f457870657269656e6365206d7573742062652070726f766964656400000000006044820152606401610a16565b6001600160a01b0384166117b15760405162461bcd60e51b815260206004820152601860248201527f4163636f756e74206d7573742062652070726f766964656400000000000000006044820152606401610a16565b60006117bc600e5490565b90506117cd856000198660016115c8565b6000818152600f602052604090208390556117ec600e80546001019055565b90505b9392505050565b60606000611803836108e7565b6000938452600f6020526040909320549293915050565b6005805461086690613c0a565b846001600160a01b03811633146118415761184133611e2f565b610b34868686868661288f565b336001600160a01b03841681148061188b57506001600160a01b0380851660009081526003602090815260408083209385168352929052205460ff165b6118d75760405162461bcd60e51b815260206004820152601160248201527f556e617070726f7665642063616c6c65720000000000000000000000000000006044820152606401610a16565b6001600160a01b038416600090815260026020908152604080832086845290915290205482111561194a5760405162461bcd60e51b815260206004820152601760248201527f4e6f7420656e6f75676820746f6b656e73206f776e65640000000000000000006044820152606401610a16565b610f70848484612922565b6060610853826108e7565b60008351116119b15760405162461bcd60e51b815260206004820152601560248201527f436f6465206d7573742062652070726f766964656400000000000000000000006044820152606401610a16565b6000825111611a025760405162461bcd60e51b815260206004820152601960248201527f4d65746164617461206d7573742062652070726f7669646564000000000000006044820152606401610a16565b60008111611a525760405162461bcd60e51b815260206004820152601b60248201527f457870657269656e6365206d7573742062652070726f766964656400000000006044820152606401610a16565b611a60601480546001019055565b6000611a6b60145490565b905080601085604051611a7e9190613cc7565b9081526040805160209281900383019020929092556000838152601190915220611aa88482613d77565b506000908152601260205260409020555050565b60606000611ac960095490565b905060006009805480602002602001604051908101604052809291908181526020018280548015611b1957602002820191906000526020600020905b815481526020019060010190808311611b05575b5050505050905060005b82811015611c1d57818181518110611b3d57611b3d613bf4565b6020026020010151851015611c0b57600a6000838381518110611b6257611b62613bf4565b602002602001015181526020019081526020016000208054611b8390613c0a565b80601f0160208091040260200160405190810160405280929190818152602001828054611baf90613c0a565b8015611bfc5780601f10611bd157610100808354040283529160200191611bfc565b820191906000526020600020905b815481529060010190602001808311611bdf57829003601f168201915b50505050509350505050919050565b611c16600182613c73565b9050611b23565b5060405162461bcd60e51b815260206004820152600f60248201527f496e76616c696420746f6b656e496400000000000000000000000000000000006044820152606401610a16565b606081600003611ca957505060408051808201909152600181527f3000000000000000000000000000000000000000000000000000000000000000602082015290565b8160005b8115611cd35780611cbd81613bdb565b9150611ccc9050600a83613cb3565b9150611cad565b60008167ffffffffffffffff811115611cee57611cee613455565b6040519080825280601f01601f191660200182016040528015611d18576020820181803683370190505b5090505b8415611d9b57611d2d600183613e37565b9150611d3a600a86613e4a565b611d45906030613c73565b60f81b818381518110611d5a57611d5a613bf4565b60200101907effffffffffffffffffffffffffffffffffffffffffffffffffffffffffffff1916908160001a905350611d94600a86613cb3565b9450611d1c565b949350505050565b6000611db76006546001600160a01b031690565b6001600160a01b0316336001600160a01b031614905090565b600680546001600160a01b0383811673ffffffffffffffffffffffffffffffffffffffff19831681179093556040519116919082907f8292fce18fa69edf4db7b94ea2e58241df0ae57f97e0a6c9b29067028bf92d7690600090a35050565b600b5460ff1615610a28576daaeb6d7670e522a718067333cd4e3b15610a28576040517fc61711340000000000000000000000000000000000000000000000000000000081523060048201526001600160a01b03821660248201526daaeb6d7670e522a718067333cd4e9063c617113490604401602060405180830381865afa158015611ec0573d6000803e3d6000fd5b505050506040513d601f19601f82011682018060405250810190611ee49190613e5e565b610a28576040517fede71dcc0000000000000000000000000000000000000000000000000000000081526001600160a01b0382166004820152602401610a16565b6001600160a01b038516331480611f5f57506001600160a01b038516600090815260036020908152604080832033845290915290205460ff165b611fab5760405162461bcd60e51b815260206004820152601260248201527f214f574e45525f4f525f415050524f56454400000000000000000000000000006044820152606401610a16565b611fb88585858585612a79565b5050505050565b600b805460ff19168215159081179091556040519081527f38475885990d8dfe9ca01f0ef160a1b5514426eab9ddbc953a3353410ba780969060200160405180910390a150565b6127108111156120585760405162461bcd60e51b815260206004820152600f60248201527f45786365656473206d61782062707300000000000000000000000000000000006044820152606401610a16565b600780546001600160a01b0384167fffffffffffffffffffff000000000000000000000000000000000000000000009091168117600160a01b61ffff851602179091556040518281527f90d7ec04bcb8978719414f82e52e4cb651db41d0e6f8cea6118c2191e6183adb9060200160405180910390a25050565b6001600160a01b0383166121285760405162461bcd60e51b815260206004820152600e60248201527f46524f4d5f5a45524f5f414444520000000000000000000000000000000000006044820152606401610a16565b805182511461216b5760405162461bcd60e51b815260206004820152600f60248201526e0988a9c8ea890be9a92a69a82a8869608b1b6044820152606401610a16565b600033905061218e81856000868660405180602001604052806000815250612c90565b60005b835181101561227c5760008482815181106121ae576121ae613bf4565b6020026020010151905060008483815181106121cc576121cc613bf4565b6020908102919091018101516001600160a01b03891660009081526002835260408082208683529093529190912054909150818110156122415760405162461bcd60e51b815260206004820152601060248201526f125394d551919250d251539517d0905360821b6044820152606401610a16565b6001600160a01b038816600090815260026020908152604080832095835294905292909220910390558061227481613bdb565b915050612191565b5060006001600160a01b0316846001600160a01b0316826001600160a01b03167f4a39dc06d4c0dbc64b70af90fd698a233a518aa5d07e595d983b8c0526c8f7fb86866040516122cd929190613e7b565b60405180910390a450505050565b6000600580546122ea90613c0a565b80601f016020809104026020016040519081016040528092919081815260200182805461231690613c0a565b80156123635780601f1061233857610100808354040283529160200191612363565b820191906000526020600020905b81548152906001019060200180831161234657829003601f168201915b5050505050905081600590816123799190613d77565b507fc9c7c3fe08b88b4df9d4d47ef47d2c43d55c025a0ba88ca442580ed9e7348a1681836040516123ab929190613ea9565b60405180910390a15050565b6000806123c48486613c73565b60098054600181019091557f6e1540171b6c0c960b71a7020d9f60077f6af931a8bbf590da0223dacf75c7af018190556000818152600a602052604090209092508291506124128482613d77565b50935093915050565b6001600160a01b0384166124605760405162461bcd60e51b815260206004820152600c60248201526b2a27afad22a927afa0a2222960a11b6044820152606401610a16565b81518351146124a35760405162461bcd60e51b815260206004820152600f60248201526e0988a9c8ea890be9a92a69a82a8869608b1b6044820152606401610a16565b336124b381600087878787612c90565b60005b845181101561254f578381815181106124d1576124d1613bf4565b602002602001015160026000886001600160a01b03166001600160a01b03168152602001908152602001600020600087848151811061251257612512613bf4565b6020026020010151815260200190815260200160002060008282546125379190613c73565b9091555081905061254781613bdb565b9150506124b6565b50846001600160a01b031660006001600160a01b0316826001600160a01b03167f4a39dc06d4c0dbc64b70af90fd698a233a518aa5d07e595d983b8c0526c8f7fb87876040516125a0929190613e7b565b60405180910390a4611fb881600087878787612d9c565b6127108111156126095760405162461bcd60e51b815260206004820152600f60248201527f45786365656473206d61782062707300000000000000000000000000000000006044820152606401610a16565b6040805180820182526001600160a01b0384811680835260208084018681526000898152600883528690209451855473ffffffffffffffffffffffffffffffffffffffff1916941693909317845591516001909301929092559151838152909185917f7365cf4122f072a3365c20d54eff9b38d73c096c28e1892ec8f5b0e403a0f12d91015b60405180910390a3505050565b336001600160a01b03831681036126f55760405162461bcd60e51b815260206004820152600e60248201527f415050524f56494e475f53454c460000000000000000000000000000000000006044820152606401610a16565b6001600160a01b03818116600081815260036020908152604080832094881680845294825291829020805460ff191687151590811790915591519182527f17307eab39ab6107e8899845ad3d59bd9653f200f220920489ca2b5937696c31910161268f565b60606117ef838360405180606001604052806027815260200161403360279139612f0a565b60008281526004602052604090206112388282613d77565b6001600160a01b0384166127dc5760405162461bcd60e51b815260206004820152600c60248201526b2a27afad22a927afa0a2222960a11b6044820152606401610a16565b336127fc816000876127ed88612ffe565b6127f688612ffe565b87612c90565b6001600160a01b03851660009081526002602090815260408083208784529091528120805485929061282f908490613c73565b909155505060408051858152602081018590526001600160a01b0380881692600092918516917fc3d58168c5ae7397731d063d5bbf3d657854427343f4c083240f7aacaa2d0f62910160405180910390a4611fb881600087878787613049565b6001600160a01b0385163314806128c957506001600160a01b038516600090815260036020908152604080832033845290915290205460ff165b6129155760405162461bcd60e51b815260206004820152601260248201527f214f574e45525f4f525f415050524f56454400000000000000000000000000006044820152606401610a16565b611fb88585858585613134565b6001600160a01b0383166129785760405162461bcd60e51b815260206004820152600e60248201527f46524f4d5f5a45524f5f414444520000000000000000000000000000000000006044820152606401610a16565b336129a78185600061298987612ffe565b61299287612ffe565b60405180602001604052806000815250612c90565b6001600160a01b038416600090815260026020908152604080832086845290915290205482811015612a0e5760405162461bcd60e51b815260206004820152601060248201526f125394d551919250d251539517d0905360821b6044820152606401610a16565b6001600160a01b03858116600081815260026020908152604080832089845282528083208887039055805189815291820188905291938616917fc3d58168c5ae7397731d063d5bbf3d657854427343f4c083240f7aacaa2d0f62910160405180910390a45050505050565b8151835114612abc5760405162461bcd60e51b815260206004820152600f60248201526e0988a9c8ea890be9a92a69a82a8869608b1b6044820152606401610a16565b6001600160a01b038416612b015760405162461bcd60e51b815260206004820152600c60248201526b2a27afad22a927afa0a2222960a11b6044820152606401610a16565b33612b10818787878787612c90565b60005b8451811015612c2a576000858281518110612b3057612b30613bf4565b602002602001015190506000858381518110612b4e57612b4e613bf4565b6020908102919091018101516001600160a01b038b166000908152600283526040808220868352909352919091205490915081811015612bc35760405162461bcd60e51b815260206004820152601060248201526f125394d551919250d251539517d0905360821b6044820152606401610a16565b6001600160a01b03808b16600090815260026020818152604080842088855282528084208787039055938d16835290815282822086835290529081208054849290612c0f908490613c73565b9250508190555050505080612c2390613bdb565b9050612b13565b50846001600160a01b0316866001600160a01b0316826001600160a01b03167f4a39dc06d4c0dbc64b70af90fd698a233a518aa5d07e595d983b8c0526c8f7fb8787604051612c7a929190613e7b565b60405180910390a4610b34818787878787612d9c565b6001600160a01b038516612d175760005b8351811015612d1557828181518110612cbc57612cbc613bf4565b6020026020010151600d6000868481518110612cda57612cda613bf4565b602002602001015181526020019081526020016000206000828254612cff9190613c73565b90915550612d0e905081613bdb565b9050612ca1565b505b6001600160a01b038416610b345760005b83518110156111d257828181518110612d4357612d43613bf4565b6020026020010151600d6000868481518110612d6157612d61613bf4565b602002602001015181526020019081526020016000206000828254612d869190613e37565b90915550612d95905081613bdb565b9050612d28565b6001600160a01b0384163b15610b345760405163bc197c8160e01b81526001600160a01b0385169063bc197c8190612de09089908990889088908890600401613ece565b6020604051808303816000875af1925050508015612e1b575060408051601f3d908101601f19168201909252612e1891810190613f2c565b60015b612eaa57612e27613f49565b806308c379a003612e605750612e3b613f65565b80612e465750612e62565b8060405162461bcd60e51b8152600401610a169190613407565b505b60405162461bcd60e51b815260206004820152601060248201527f21455243313135355245434549564552000000000000000000000000000000006044820152606401610a16565b6001600160e01b0319811663bc197c8160e01b146111d25760405162461bcd60e51b815260206004820152600f60248201527f544f4b454e535f52454a454354454400000000000000000000000000000000006044820152606401610a16565b60606001600160a01b0384163b612f895760405162461bcd60e51b815260206004820152602660248201527f416464726573733a2064656c65676174652063616c6c20746f206e6f6e2d636f60448201527f6e747261637400000000000000000000000000000000000000000000000000006064820152608401610a16565b600080856001600160a01b031685604051612fa49190613cc7565b600060405180830381855af49150503d8060008114612fdf576040519150601f19603f3d011682016040523d82523d6000602084013e612fe4565b606091505b5091509150612ff482828661329c565b9695505050505050565b6040805160018082528183019092526060916000919060208083019080368337019050509050828160008151811061303857613038613bf4565b602090810291909101015292915050565b6001600160a01b0384163b15610b345760405163f23a6e6160e01b81526001600160a01b0385169063f23a6e619061308d9089908990889088908890600401613fef565b6020604051808303816000875af19250505080156130c8575060408051601f3d908101601f191682019092526130c591810190613f2c565b60015b6130d457612e27613f49565b6001600160e01b0319811663f23a6e6160e01b146111d25760405162461bcd60e51b815260206004820152600f60248201527f544f4b454e535f52454a454354454400000000000000000000000000000000006044820152606401610a16565b6001600160a01b0384166131795760405162461bcd60e51b815260206004820152600c60248201526b2a27afad22a927afa0a2222960a11b6044820152606401610a16565b336131898187876127ed88612ffe565b6001600160a01b0386166000908152600260209081526040808320878452909152902054838110156131f05760405162461bcd60e51b815260206004820152601060248201526f125394d551919250d251539517d0905360821b6044820152606401610a16565b6001600160a01b0380881660009081526002602081815260408084208a855282528084208987039055938a1683529081528282208883529052908120805486929061323c908490613c73565b909155505060408051868152602081018690526001600160a01b03808916928a821692918616917fc3d58168c5ae7397731d063d5bbf3d657854427343f4c083240f7aacaa2d0f62910160405180910390a46111d2828888888888613049565b606083156132ab5750816117ef565b8251156132bb5782518084602001fd5b8160405162461bcd60e51b8152600401610a169190613407565b80356001600160a01b03811681146132ec57600080fd5b919050565b6000806040838503121561330457600080fd5b61330d836132d5565b946020939093013593505050565b60006020828403121561332d57600080fd5b6117ef826132d5565b600081518084526020808501945080840160005b838110156133665781518752958201959082019060010161334a565b509495945050505050565b6020815260006117ef6020830184613336565b6001600160e01b031981168114610a2857600080fd5b6000602082840312156133ac57600080fd5b81356117ef81613384565b60005b838110156133d25781810151838201526020016133ba565b50506000910152565b600081518084526133f38160208601602086016133b7565b601f01601f19169290920160200192915050565b6020815260006117ef60208301846133db565b60006020828403121561342c57600080fd5b5035919050565b6000806040838503121561344657600080fd5b50508035926020909101359150565b634e487b7160e01b600052604160045260246000fd5b601f8201601f1916810167ffffffffffffffff8111828210171561349157613491613455565b6040525050565b600067ffffffffffffffff8211156134b2576134b2613455565b5060051b60200190565b600082601f8301126134cd57600080fd5b813560206134da82613498565b6040516134e7828261346b565b83815260059390931b850182019282810191508684111561350757600080fd5b8286015b84811015613522578035835291830191830161350b565b509695505050505050565b600082601f83011261353e57600080fd5b813567ffffffffffffffff81111561355857613558613455565b60405161356f601f8301601f19166020018261346b565b81815284602083860101111561358457600080fd5b816020850160208301376000918101602001919091529392505050565b600080600080600060a086880312156135b957600080fd5b6135c2866132d5565b94506135d0602087016132d5565b9350604086013567ffffffffffffffff808211156135ed57600080fd5b6135f989838a016134bc565b9450606088013591508082111561360f57600080fd5b61361b89838a016134bc565b9350608088013591508082111561363157600080fd5b5061363e8882890161352d565b9150509295509295909350565b8015158114610a2857600080fd5b60006020828403121561366b57600080fd5b81356117ef8161364b565b6000806040838503121561368957600080fd5b823567ffffffffffffffff808211156136a157600080fd5b818501915085601f8301126136b557600080fd5b813560206136c282613498565b6040516136cf828261346b565b83815260059390931b85018201928281019150898411156136ef57600080fd5b948201945b8386101561371457613705866132d5565b825294820194908201906136f4565b9650508601359250508082111561372a57600080fd5b50613737858286016134bc565b9150509250929050565b60008060006060848603121561375657600080fd5b61375f846132d5565b9250602084013567ffffffffffffffff8082111561377c57600080fd5b613788878388016134bc565b9350604086013591508082111561379e57600080fd5b506137ab868287016134bc565b9150509250925092565b6000602082840312156137c757600080fd5b813567ffffffffffffffff8111156137de57600080fd5b611d9b8482850161352d565b6000806000806080858703121561380057600080fd5b613809856132d5565b9350602085013567ffffffffffffffff8082111561382657600080fd5b613832888389016134bc565b9450604087013591508082111561384857600080fd5b613854888389016134bc565b9350606087013591508082111561386a57600080fd5b506138778782880161352d565b91505092959194509250565b60008060006060848603121561389857600080fd5b833592506138a8602085016132d5565b9150604084013590509250925092565b600080604083850312156138cb57600080fd5b6138d4836132d5565b915060208301356138e48161364b565b809150509250929050565b6000806020838503121561390257600080fd5b823567ffffffffffffffff8082111561391a57600080fd5b818501915085601f83011261392e57600080fd5b81358181111561393d57600080fd5b8660208260051b850101111561395257600080fd5b60209290920196919550909350505050565b6000602080830181845280855180835260408601915060408160051b870101925083870160005b828110156139b957603f198886030184526139a78583516133db565b9450928501929085019060010161398b565b5092979650505050505050565b600080600080608085870312156139dc57600080fd5b6139e5856132d5565b935060208501359250604085013567ffffffffffffffff811115613a0857600080fd5b613a148782880161352d565b949793965093946060013593505050565b600080600060608486031215613a3a57600080fd5b613a43846132d5565b9250602084013567ffffffffffffffff811115613a5f57600080fd5b613a6b8682870161352d565b925050604084013590509250925092565b604081526000613a8f60408301856133db565b90508260208301529392505050565b60008060408385031215613ab157600080fd5b613aba836132d5565b9150613ac8602084016132d5565b90509250929050565b600080600080600060a08688031215613ae957600080fd5b613af2866132d5565b9450613b00602087016132d5565b93506040860135925060608601359150608086013567ffffffffffffffff811115613b2a57600080fd5b61363e8882890161352d565b600080600060608486031215613b4b57600080fd5b613b54846132d5565b95602085013595506040909401359392505050565b600080600060608486031215613b7e57600080fd5b833567ffffffffffffffff80821115613b9657600080fd5b613ba28783880161352d565b94506020860135915080821115613bb857600080fd5b50613a6b8682870161352d565b634e487b7160e01b600052601160045260246000fd5b600060018201613bed57613bed613bc5565b5060010190565b634e487b7160e01b600052603260045260246000fd5b600181811c90821680613c1e57607f821691505b602082108103613c3e57634e487b7160e01b600052602260045260246000fd5b50919050565b60008351613c568184602088016133b7565b835190830190613c6a8183602088016133b7565b01949350505050565b8082018082111561085357610853613bc5565b808202811582820484141761085357610853613bc5565b634e487b7160e01b600052601260045260246000fd5b600082613cc257613cc2613c9d565b500490565b60008251613cd98184602087016133b7565b9190910192915050565b6000808335601e19843603018112613cfa57600080fd5b83018035915067ffffffffffffffff821115613d1557600080fd5b602001915036819003821315613d2a57600080fd5b9250929050565b601f82111561123857600081815260208120601f850160051c81016020861015613d585750805b601f850160051c820191505b81811015610b3457828155600101613d64565b815167ffffffffffffffff811115613d9157613d91613455565b613da581613d9f8454613c0a565b84613d31565b602080601f831160018114613dda5760008415613dc25750858301515b600019600386901b1c1916600185901b178555610b34565b600085815260208120601f198616915b82811015613e0957888601518255948401946001909101908401613dea565b5085821015613e275787850151600019600388901b60f8161c191681555b5050505050600190811b01905550565b8181038181111561085357610853613bc5565b600082613e5957613e59613c9d565b500690565b600060208284031215613e7057600080fd5b81516117ef8161364b565b604081526000613e8e6040830185613336565b8281036020840152613ea08185613336565b95945050505050565b604081526000613ebc60408301856133db565b8281036020840152613ea081856133db565b60006001600160a01b03808816835280871660208401525060a06040830152613efa60a0830186613336565b8281036060840152613f0c8186613336565b90508281036080840152613f2081856133db565b98975050505050505050565b600060208284031215613f3e57600080fd5b81516117ef81613384565b600060033d1115613f625760046000803e5060005160e01c5b90565b600060443d1015613f735790565b6040516003193d81016004833e81513d67ffffffffffffffff8160248401118184111715613fa357505050505090565b8285019150815181811115613fbb5750505050505090565b843d8701016020828501011115613fd55750505050505090565b613fe46020828601018761346b565b509095945050505050565b60006001600160a01b03808816835280871660208401525084604083015283606083015260a0608083015261402760a08301846133db565b97965050505050505056fe416464726573733a206c6f772d6c6576656c2064656c65676174652063616c6c206661696c6564a26469706673582212209b1d5e7b26ed9d7c0c36bd5603a1c445028094fdb3df4f113abf7c4cf8ab26ad64736f6c63430008110033",
  "linkReferences": {},
  "deployedLinkReferences": {}
}