{
  "_format": "hh-sol-artifact-1",
  "contractName": "web3GAME",
  "sourceName": "contracts/web3GAME.sol",
  "abi": [
    {
      "inputs": [
        {
          "internalType": "string",
          "name": "_name",
          "type": "string"
        },
        {
          "internalType": "string",
          "name": "_symbol",
          "type": "string"
        },
        {
          "internalType": "address",
          "name": "_royaltyRecipient",
          "type": "address"
        },
        {
          "internalType": "uint128",
          "name": "_royaltyBps",
          "type": "uint128"
        }
      ],
      "stateMutability": "nonpayable",
      "type": "constructor"
    },
    {
      "inputs": [
        {
          "internalType": "address",
          "name": "operator",
          "type": "address"
        }
      ],
      "name": "OperatorNotAllowed",
      "type": "error"
    },
    {
      "anonymous": false,
      "inputs": [
        {
          "indexed": true,
          "internalType": "address",
          "name": "_owner",
          "type": "address"
        },
        {
          "indexed": true,
          "internalType": "address",
          "name": "_operator",
          "type": "address"
        },
        {
          "indexed": false,
          "internalType": "bool",
          "name": "_approved",
          "type": "bool"
        }
      ],
      "name": "ApprovalForAll",
      "type": "event"
    },
    {
      "anonymous": false,
      "inputs": [
        {
          "indexed": false,
          "internalType": "string",
          "name": "prevURI",
          "type": "string"
        },
        {
          "indexed": false,
          "internalType": "string",
          "name": "newURI",
          "type": "string"
        }
      ],
      "name": "ContractURIUpdated",
      "type": "event"
    },
    {
      "anonymous": false,
      "inputs": [
        {
          "indexed": true,
          "internalType": "address",
          "name": "newRoyaltyRecipient",
          "type": "address"
        },
        {
          "indexed": false,
          "internalType": "uint256",
          "name": "newRoyaltyBps",
          "type": "uint256"
        }
      ],
      "name": "DefaultRoyalty",
      "type": "event"
    },
    {
      "anonymous": false,
      "inputs": [
        {
          "indexed": false,
          "internalType": "bool",
          "name": "restriction",
          "type": "bool"
        }
      ],
      "name": "OperatorRestriction",
      "type": "event"
    },
    {
      "anonymous": false,
      "inputs": [
        {
          "indexed": true,
          "internalType": "address",
          "name": "prevOwner",
          "type": "address"
        },
        {
          "indexed": true,
          "internalType": "address",
          "name": "newOwner",
          "type": "address"
        }
      ],
      "name": "OwnerUpdated",
      "type": "event"
    },
    {
      "anonymous": false,
      "inputs": [
        {
          "indexed": true,
          "internalType": "uint256",
          "name": "tokenId",
          "type": "uint256"
        },
        {
          "indexed": true,
          "internalType": "address",
          "name": "royaltyRecipient",
          "type": "address"
        },
        {
          "indexed": false,
          "internalType": "uint256",
          "name": "royaltyBps",
          "type": "uint256"
        }
      ],
      "name": "RoyaltyForToken",
      "type": "event"
    },
    {
      "anonymous": false,
      "inputs": [
        {
          "indexed": true,
          "internalType": "address",
          "name": "_operator",
          "type": "address"
        },
        {
          "indexed": true,
          "internalType": "address",
          "name": "_from",
          "type": "address"
        },
        {
          "indexed": true,
          "internalType": "address",
          "name": "_to",
          "type": "address"
        },
        {
          "indexed": false,
          "internalType": "uint256[]",
          "name": "_ids",
          "type": "uint256[]"
        },
        {
          "indexed": false,
          "internalType": "uint256[]",
          "name": "_values",
          "type": "uint256[]"
        }
      ],
      "name": "TransferBatch",
      "type": "event"
    },
    {
      "anonymous": false,
      "inputs": [
        {
          "indexed": true,
          "internalType": "address",
          "name": "_operator",
          "type": "address"
        },
        {
          "indexed": true,
          "internalType": "address",
          "name": "_from",
          "type": "address"
        },
        {
          "indexed": true,
          "internalType": "address",
          "name": "_to",
          "type": "address"
        },
        {
          "indexed": false,
          "internalType": "uint256",
          "name": "_id",
          "type": "uint256"
        },
        {
          "indexed": false,
          "internalType": "uint256",
          "name": "_value",
          "type": "uint256"
        }
      ],
      "name": "TransferSingle",
      "type": "event"
    },
    {
      "anonymous": false,
      "inputs": [
        {
          "indexed": false,
          "internalType": "string",
          "name": "_value",
          "type": "string"
        },
        {
          "indexed": true,
          "internalType": "uint256",
          "name": "_id",
          "type": "uint256"
        }
      ],
      "name": "URI",
      "type": "event"
    },
    {
      "inputs": [],
      "name": "OPERATOR_FILTER_REGISTRY",
      "outputs": [
        {
          "internalType": "contract IOperatorFilterRegistry",
          "name": "",
          "type": "address"
        }
      ],
      "stateMutability": "view",
      "type": "function"
    },
    {
      "inputs": [
        {
          "internalType": "address",
          "name": "",
          "type": "address"
        },
        {
          "internalType": "uint256",
          "name": "",
          "type": "uint256"
        }
      ],
      "name": "balanceOf",
      "outputs": [
        {
          "internalType": "uint256",
          "name": "",
          "type": "uint256"
        }
      ],
      "stateMutability": "view",
      "type": "function"
    },
    {
      "inputs": [
        {
          "internalType": "address[]",
          "name": "accounts",
          "type": "address[]"
        },
        {
          "internalType": "uint256[]",
          "name": "ids",
          "type": "uint256[]"
        }
      ],
      "name": "balanceOfBatch",
      "outputs": [
        {
          "internalType": "uint256[]",
          "name": "",
          "type": "uint256[]"
        }
      ],
      "stateMutability": "view",
      "type": "function"
    },
    {
      "inputs": [
        {
          "internalType": "address",
          "name": "_to",
          "type": "address"
        },
        {
          "internalType": "uint256[]",
          "name": "_tokenIds",
          "type": "uint256[]"
        },
        {
          "internalType": "uint256[]",
          "name": "_amounts",
          "type": "uint256[]"
        },
        {
          "internalType": "string",
          "name": "_baseURI",
          "type": "string"
        }
      ],
      "name": "batchMintTo",
      "outputs": [],
      "stateMutability": "nonpayable",
      "type": "function"
    },
    {
      "inputs": [
        {
          "internalType": "address",
          "name": "_owner",
          "type": "address"
        },
        {
          "internalType": "uint256",
          "name": "_tokenId",
          "type": "uint256"
        },
        {
          "internalType": "uint256",
          "name": "_amount",
          "type": "uint256"
        }
      ],
      "name": "burn",
      "outputs": [],
      "stateMutability": "nonpayable",
      "type": "function"
    },
    {
      "inputs": [
        {
          "internalType": "address",
          "name": "_owner",
          "type": "address"
        },
        {
          "internalType": "uint256[]",
          "name": "_tokenIds",
          "type": "uint256[]"
        },
        {
          "internalType": "uint256[]",
          "name": "_amounts",
          "type": "uint256[]"
        }
      ],
      "name": "burnBatch",
      "outputs": [],
      "stateMutability": "nonpayable",
      "type": "function"
    },
    {
      "inputs": [],
      "name": "contractURI",
      "outputs": [
        {
          "internalType": "string",
          "name": "",
          "type": "string"
        }
      ],
      "stateMutability": "view",
      "type": "function"
    },
    {
      "inputs": [
        {
          "internalType": "string",
          "name": "_code",
          "type": "string"
        },
        {
          "internalType": "string",
          "name": "_uri",
          "type": "string"
        },
        {
          "internalType": "uint256",
          "name": "_experience",
          "type": "uint256"
        }
      ],
      "name": "createRedeemableItem",
      "outputs": [],
      "stateMutability": "nonpayable",
      "type": "function"
    },
    {
      "inputs": [
        {
          "internalType": "uint256",
          "name": "",
          "type": "uint256"
        }
      ],
      "name": "experience",
      "outputs": [
        {
          "internalType": "uint256",
          "name": "",
          "type": "uint256"
        }
      ],
      "stateMutability": "view",
      "type": "function"
    },
    {
      "inputs": [],
      "name": "getBaseURICount",
      "outputs": [
        {
          "internalType": "uint256",
          "name": "",
          "type": "uint256"
        }
      ],
      "stateMutability": "view",
      "type": "function"
    },
    {
      "inputs": [
        {
          "internalType": "uint256",
          "name": "_index",
          "type": "uint256"
        }
      ],
      "name": "getBatchIdAtIndex",
      "outputs": [
        {
          "internalType": "uint256",
          "name": "",
          "type": "uint256"
        }
      ],
      "stateMutability": "view",
      "type": "function"
    },
    {
      "inputs": [
        {
          "internalType": "uint256",
          "name": "_id",
          "type": "uint256"
        }
      ],
      "name": "getBokemon",
      "outputs": [
        {
          "internalType": "string",
          "name": "",
          "type": "string"
        },
        {
          "internalType": "uint256",
          "name": "",
          "type": "uint256"
        }
      ],
      "stateMutability": "view",
      "type": "function"
    },
    {
      "inputs": [
        {
          "internalType": "address",
          "name": "_user",
          "type": "address"
        }
      ],
      "name": "getBokemonPerUser",
      "outputs": [
        {
          "internalType": "uint256[]",
          "name": "",
          "type": "uint256[]"
        }
      ],
      "stateMutability": "view",
      "type": "function"
    },
    {
      "inputs": [
        {
          "internalType": "uint256",
          "name": "_id",
          "type": "uint256"
        }
      ],
      "name": "getBokemonUri",
      "outputs": [
        {
          "internalType": "string",
          "name": "",
          "type": "string"
        }
      ],
      "stateMutability": "view",
      "type": "function"
    },
    {
      "inputs": [],
      "name": "getDefaultRoyaltyInfo",
      "outputs": [
        {
          "internalType": "address",
          "name": "",
          "type": "address"
        },
        {
          "internalType": "uint16",
          "name": "",
          "type": "uint16"
        }
      ],
      "stateMutability": "view",
      "type": "function"
    },
    {
      "inputs": [
        {
          "internalType": "uint256",
          "name": "_tokenId",
          "type": "uint256"
        }
      ],
      "name": "getRoyaltyInfoForToken",
      "outputs": [
        {
          "internalType": "address",
          "name": "",
          "type": "address"
        },
        {
          "internalType": "uint16",
          "name": "",
          "type": "uint16"
        }
      ],
      "stateMutability": "view",
      "type": "function"
    },
    {
      "inputs": [
        {
          "internalType": "uint256",
          "name": "_id",
          "type": "uint256"
        },
        {
          "internalType": "uint256",
          "name": "_experience",
          "type": "uint256"
        }
      ],
      "name": "increaseExperience",
      "outputs": [],
      "stateMutability": "nonpayable",
      "type": "function"
    },
    {
      "inputs": [
        {
          "internalType": "uint256[]",
          "name": "_ids",
          "type": "uint256[]"
        },
        {
          "internalType": "uint256[]",
          "name": "_experience",
          "type": "uint256[]"
        }
      ],
      "name": "increaseExperienceBatch",
      "outputs": [],
      "stateMutability": "nonpayable",
      "type": "function"
    },
    {
      "inputs": [
        {
          "internalType": "address",
          "name": "",
          "type": "address"
        },
        {
          "internalType": "address",
          "name": "",
          "type": "address"
        }
      ],
      "name": "isApprovedForAll",
      "outputs": [
        {
          "internalType": "bool",
          "name": "",
          "type": "bool"
        }
      ],
      "stateMutability": "view",
      "type": "function"
    },
    {
      "inputs": [
        {
          "internalType": "address",
          "name": "account",
          "type": "address"
        },
        {
          "internalType": "string",
          "name": "uri",
          "type": "string"
        },
        {
          "internalType": "uint256",
          "name": "_experience",
          "type": "uint256"
        }
      ],
      "name": "mint",
      "outputs": [
        {
          "internalType": "uint256",
          "name": "",
          "type": "uint256"
        }
      ],
      "stateMutability": "nonpayable",
      "type": "function"
    },
    {
      "inputs": [
        {
          "internalType": "address",
          "name": "account",
          "type": "address"
        },
        {
          "internalType": "string",
          "name": "uri",
          "type": "string"
        },
        {
          "internalType": "uint256",
          "name": "_experience",
          "type": "uint256"
        },
        {
          "internalType": "uint256",
          "name": "_id",
          "type": "uint256"
        }
      ],
      "name": "mintSimilar",
      "outputs": [
        {
          "internalType": "uint256",
          "name": "",
          "type": "uint256"
        }
      ],
      "stateMutability": "nonpayable",
      "type": "function"
    },
    {
      "inputs": [
        {
          "internalType": "address",
          "name": "_to",
          "type": "address"
        },
        {
          "internalType": "uint256",
          "name": "_tokenId",
          "type": "uint256"
        },
        {
          "internalType": "string",
          "name": "_tokenURI",
          "type": "string"
        },
        {
          "internalType": "uint256",
          "name": "_amount",
          "type": "uint256"
        }
      ],
      "name": "mintTo",
      "outputs": [],
      "stateMutability": "nonpayable",
      "type": "function"
    },
    {
      "inputs": [
        {
          "internalType": "bytes[]",
          "name": "data",
          "type": "bytes[]"
        }
      ],
      "name": "multicall",
      "outputs": [
        {
          "internalType": "bytes[]",
          "name": "results",
          "type": "bytes[]"
        }
      ],
      "stateMutability": "nonpayable",
      "type": "function"
    },
    {
      "inputs": [],
      "name": "name",
      "outputs": [
        {
          "internalType": "string",
          "name": "",
          "type": "string"
        }
      ],
      "stateMutability": "view",
      "type": "function"
    },
    {
      "inputs": [],
      "name": "nextTokenIdToMint",
      "outputs": [
        {
          "internalType": "uint256",
          "name": "",
          "type": "uint256"
        }
      ],
      "stateMutability": "view",
      "type": "function"
    },
    {
      "inputs": [],
      "name": "operatorRestriction",
      "outputs": [
        {
          "internalType": "bool",
          "name": "",
          "type": "bool"
        }
      ],
      "stateMutability": "view",
      "type": "function"
    },
    {
      "inputs": [],
      "name": "owner",
      "outputs": [
        {
          "internalType": "address",
          "name": "",
          "type": "address"
        }
      ],
      "stateMutability": "view",
      "type": "function"
    },
    {
      "inputs": [
        {
          "internalType": "string",
          "name": "_code",
          "type": "string"
        }
      ],
      "name": "redeemItem",
      "outputs": [],
      "stateMutability": "nonpayable",
      "type": "function"
    },
    {
      "inputs": [
        {
          "internalType": "uint256",
          "name": "tokenId",
          "type": "uint256"
        },
        {
          "internalType": "uint256",
          "name": "salePrice",
          "type": "uint256"
        }
      ],
      "name": "royaltyInfo",
      "outputs": [
        {
          "internalType": "address",
          "name": "receiver",
          "type": "address"
        },
        {
          "internalType": "uint256",
          "name": "royaltyAmount",
          "type": "uint256"
        }
      ],
      "stateMutability": "view",
      "type": "function"
    },
    {
      "inputs": [
        {
          "internalType": "address",
          "name": "from",
          "type": "address"
        },
        {
          "internalType": "address",
          "name": "to",
          "type": "address"
        },
        {
          "internalType": "uint256[]",
          "name": "ids",
          "type": "uint256[]"
        },
        {
          "internalType": "uint256[]",
          "name": "amounts",
          "type": "uint256[]"
        },
        {
          "internalType": "bytes",
          "name": "data",
          "type": "bytes"
        }
      ],
      "name": "safeBatchTransferFrom",
      "outputs": [],
      "stateMutability": "nonpayable",
      "type": "function"
    },
    {
      "inputs": [
        {
          "internalType": "address",
          "name": "from",
          "type": "address"
        },
        {
          "internalType": "address",
          "name": "to",
          "type": "address"
        },
        {
          "internalType": "uint256",
          "name": "id",
          "type": "uint256"
        },
        {
          "internalType": "uint256",
          "name": "amount",
          "type": "uint256"
        },
        {
          "internalType": "bytes",
          "name": "data",
          "type": "bytes"
        }
      ],
      "name": "safeTransferFrom",
      "outputs": [],
      "stateMutability": "nonpayable",
      "type": "function"
    },
    {
      "inputs": [
        {
          "internalType": "address",
          "name": "operator",
          "type": "address"
        },
        {
          "internalType": "bool",
          "name": "approved",
          "type": "bool"
        }
      ],
      "name": "setApprovalForAll",
      "outputs": [],
      "stateMutability": "nonpayable",
      "type": "function"
    },
    {
      "inputs": [
        {
          "internalType": "string",
          "name": "_uri",
          "type": "string"
        }
      ],
      "name": "setContractURI",
      "outputs": [],
      "stateMutability": "nonpayable",
      "type": "function"
    },
    {
      "inputs": [
        {
          "internalType": "address",
          "name": "_royaltyRecipient",
          "type": "address"
        },
        {
          "internalType": "uint256",
          "name": "_royaltyBps",
          "type": "uint256"
        }
      ],
      "name": "setDefaultRoyaltyInfo",
      "outputs": [],
      "stateMutability": "nonpayable",
      "type": "function"
    },
    {
      "inputs": [
        {
          "internalType": "bool",
          "name": "_restriction",
          "type": "bool"
        }
      ],
      "name": "setOperatorRestriction",
      "outputs": [],
      "stateMutability": "nonpayable",
      "type": "function"
    },
    {
      "inputs": [
        {
          "internalType": "address",
          "name": "_newOwner",
          "type": "address"
        }
      ],
      "name": "setOwner",
      "outputs": [],
      "stateMutability": "nonpayable",
      "type": "function"
    },
    {
      "inputs": [
        {
          "internalType": "uint256",
          "name": "_tokenId",
          "type": "uint256"
        },
        {
          "internalType": "address",
          "name": "_recipient",
          "type": "address"
        },
        {
          "internalType": "uint256",
          "name": "_bps",
          "type": "uint256"
        }
      ],
      "name": "setRoyaltyInfoForToken",
      "outputs": [],
      "stateMutability": "nonpayable",
      "type": "function"
    },
    {
      "inputs": [
        {
          "internalType": "bytes4",
          "name": "interfaceId",
          "type": "bytes4"
        }
      ],
      "name": "supportsInterface",
      "outputs": [
        {
          "internalType": "bool",
          "name": "",
          "type": "bool"
        }
      ],
      "stateMutability": "view",
      "type": "function"
    },
    {
      "inputs": [],
      "name": "symbol",
      "outputs": [
        {
          "internalType": "string",
          "name": "",
          "type": "string"
        }
      ],
      "stateMutability": "view",
      "type": "function"
    },
    {
      "inputs": [
        {
          "internalType": "uint256",
          "name": "",
          "type": "uint256"
        }
      ],
      "name": "totalSupply",
      "outputs": [
        {
          "internalType": "uint256",
          "name": "",
          "type": "uint256"
        }
      ],
      "stateMutability": "view",
      "type": "function"
    },
    {
      "inputs": [
        {
          "internalType": "uint256",
          "name": "_tokenId",
          "type": "uint256"
        }
      ],
      "name": "uri",
      "outputs": [
        {
          "internalType": "string",
          "name": "",
          "type": "string"
        }
      ],
      "stateMutability": "view",
      "type": "function"
    }
  ],
  "bytecode": "0x60806040523480156200001157600080fd5b5060405162004940380380620049408339810160408190526200003491620003fc565b83838383733cc6cdda760b79bafa08df41ecfa224f810dceb66001858560006200005f838262000537565b5060016200006e828262000537565b5050506daaeb6d7670e522a718067333cd4e3b15620001b65780156200010457604051633e9f1edf60e11b81523060048201526001600160a01b03831660248201526daaeb6d7670e522a718067333cd4e90637d3e3dbe906044015b600060405180830381600087803b158015620000e557600080fd5b505af1158015620000fa573d6000803e3d6000fd5b50505050620001b6565b6001600160a01b03821615620001555760405163a0af290360e01b81523060048201526001600160a01b03831660248201526daaeb6d7670e522a718067333cd4e9063a0af290390604401620000ca565b604051632210724360e11b81523060048201526daaeb6d7670e522a718067333cd4e90634420e48690602401600060405180830381600087803b1580156200019c57600080fd5b505af1158015620001b1573d6000803e3d6000fd5b505050505b50620001c4905033620001f3565b620001d9826001600160801b03831662000245565b620001e56001620002f0565b505050505050505062000603565b600680546001600160a01b038381166001600160a01b0319831681179093556040519116919082907f8292fce18fa69edf4db7b94ea2e58241df0ae57f97e0a6c9b29067028bf92d7690600090a35050565b6127108111156200028e5760405162461bcd60e51b815260206004820152600f60248201526e45786365656473206d61782062707360881b604482015260640160405180910390fd5b600780546001600160a01b0384166001600160b01b03199091168117600160a01b61ffff851602179091556040518281527f90d7ec04bcb8978719414f82e52e4cb651db41d0e6f8cea6118c2191e6183adb9060200160405180910390a25050565b600b805460ff19168215159081179091556040519081527f38475885990d8dfe9ca01f0ef160a1b5514426eab9ddbc953a3353410ba780969060200160405180910390a150565b634e487b7160e01b600052604160045260246000fd5b600082601f8301126200035f57600080fd5b81516001600160401b03808211156200037c576200037c62000337565b604051601f8301601f19908116603f01168101908282118183101715620003a757620003a762000337565b81604052838152602092508683858801011115620003c457600080fd5b600091505b83821015620003e85785820183015181830184015290820190620003c9565b600093810190920192909252949350505050565b600080600080608085870312156200041357600080fd5b84516001600160401b03808211156200042b57600080fd5b62000439888389016200034d565b955060208701519150808211156200045057600080fd5b506200045f878288016200034d565b604087015190945090506001600160a01b03811681146200047f57600080fd5b60608601519092506001600160801b03811681146200049d57600080fd5b939692955090935050565b600181811c90821680620004bd57607f821691505b602082108103620004de57634e487b7160e01b600052602260045260246000fd5b50919050565b601f8211156200053257600081815260208120601f850160051c810160208610156200050d5750805b601f850160051c820191505b818110156200052e5782815560010162000519565b5050505b505050565b81516001600160401b0381111562000553576200055362000337565b6200056b81620005648454620004a8565b84620004e4565b602080601f831160018114620005a357600084156200058a5750858301515b600019600386901b1c1916600185901b1785556200052e565b600085815260208120601f198616915b82811015620005d457888601518255948401946001909101908401620005b3565b5085821015620005f35787850151600019600388901b60f8161c191681555b5050505050600190811b01905550565b61432d80620006136000396000f3fe608060405234801561001057600080fd5b50600436106102d25760003560e01c80638da5cb5b11610186578063b4f09b98116100e3578063e8a3d48511610097578063f5298aca11610071578063f5298aca14610677578063f8508a0b1461068a578063fc2c738d1461069d57600080fd5b8063e8a3d4851461062e578063e985e9c514610636578063f242432a1461066457600080fd5b8063bd85b039116100c8578063bd85b039146105cd578063ce5f036a146105ed578063d3e971651461060e57600080fd5b8063b4f09b98146105a7578063ba7aef43146105ba57600080fd5b8063a22cb4651161013a578063ac9650d81161011f578063ac9650d814610556578063b03f452814610576578063b24f2d391461058957600080fd5b8063a22cb46514610530578063ac60345b1461054357600080fd5b8063949c09f71161016b578063949c09f71461050257806395d89b41146105155780639bcf7a151461051d57600080fd5b80638da5cb5b146104de578063938e3d7b146104ef57600080fd5b80632eb2c2d6116102345780634e1273f4116101e8578063600dd5ea116101cd578063600dd5ea146104b057806363b45e2d146104c35780636b20c454146104cb57600080fd5b80634e1273f414610490578063504c6e01146104a357600080fd5b80633b1475a7116102195780633b1475a71461042657806341f434341461042e5780634cc157df1461045b57600080fd5b80632eb2c2d61461040057806332f0cd641461041357600080fd5b80630e89341c1161028b5780632419f51b116102705780632419f51b146103a8578063243a7c7b146103bb5780632a55205a146103ce57600080fd5b80630e89341c1461038057806313af40351461039357600080fd5b806301ffc9a7116102bc57806301ffc9a71461033557806306fdde03146103585780630cb0fc4d1461036d57600080fd5b8062fdd58e146102d75780630134671b14610315575b600080fd5b6103026102e53660046134ed565b600260209081526000928352604080842090915290825290205481565b6040519081526020015b60405180910390f35b610328610323366004613517565b6106b0565b60405161030c919061356d565b610348610343366004613596565b6107d4565b604051901515815260200161030c565b6103606108a5565b60405161030c9190613603565b61030261037b3660046136cd565b610933565b61036061038e36600461372b565b610ac3565b6103a66103a1366004613517565b610bb1565b005b6103026103b636600461372b565b610c02565b6103a66103c9366004613744565b610c80565b6103e16103dc366004613744565b610ca7565b604080516001600160a01b03909316835260208301919091520161030c565b6103a661040e3660046137fb565b610ce4565b6103a66104213660046138b3565b610d13565b600c54610302565b6104436daaeb6d7670e522a718067333cd4e81565b6040516001600160a01b03909116815260200161030c565b61046e61046936600461372b565b610d96565b604080516001600160a01b03909316835261ffff90911660208301520161030c565b61032861049e3660046138d0565b610e01565b600b546103489060ff1681565b6103a66104be3660046134ed565b610f38565b600954610302565b6103a66104d936600461399b565b610f8b565b6006546001600160a01b0316610443565b6103a66104fd366004613a0f565b61114d565b6103a6610510366004613a44565b61119b565b6103606113b2565b6103a661052b366004613add565b6113bf565b6103a661053e366004613b12565b611414565b6103a6610551366004613a0f565b611428565b610569610564366004613b49565b6116aa565b60405161030c9190613bbe565b6103a6610584366004613c20565b61179f565b6007546001600160a01b03811690600160a01b900461ffff1661046e565b6103a66105b5366004613c7f565b61183c565b6103026105c8366004613ccc565b6118b5565b6103026105db36600461372b565b600d6020526000908152604090205481565b6106006105fb36600461372b565b6119f2565b60405161030c929190613d23565b61030261061c36600461372b565b600f6020526000908152604090205481565b610360611a16565b610348610644366004613d45565b600360209081526000928352604080842090915290825290205460ff1681565b6103a6610672366004613d78565b611a23565b6103a6610685366004613ddd565b611a4a565b61036061069836600461372b565b611b51565b6103a66106ab366004613e10565b611b5c565b60606000805b600e5481101561070b576001600160a01b03841660009081526002602090815260408083208484529091529020546001036106f957816106f581613e82565b9250505b8061070381613e82565b9150506106b6565b5060008167ffffffffffffffff81111561072757610727613616565b604051908082528060200260200182016040528015610750578160200160208202803683370190505b5090506000805b600e548110156107ca576001600160a01b03861660009081526002602090815260408083208484529091529020546001036107b8578083838151811061079f5761079f613e9b565b6020908102919091010152816107b481613e82565b9250505b806107c281613e82565b915050610757565b5090949350505050565b60007f01ffc9a7000000000000000000000000000000000000000000000000000000006001600160e01b03198316148061083757507fd9b67a26000000000000000000000000000000000000000000000000000000006001600160e01b03198316145b8061086b57507f0e89341c000000000000000000000000000000000000000000000000000000006001600160e01b03198316145b8061089f57506001600160e01b031982167f2a55205a00000000000000000000000000000000000000000000000000000000145b92915050565b600080546108b290613eb1565b80601f01602080910402602001604051908101604052809291908181526020018280546108de90613eb1565b801561092b5780601f106109005761010080835404028352916020019161092b565b820191906000526020600020905b81548152906001019060200180831161090e57829003601f168201915b505050505081565b60008084511161098a5760405162461bcd60e51b815260206004820152601960248201527f4d65746164617461206d7573742062652070726f76696465640000000000000060448201526064015b60405180910390fd5b600083116109da5760405162461bcd60e51b815260206004820152601b60248201527f457870657269656e6365206d7573742062652070726f766964656400000000006044820152606401610981565b6001600160a01b038516610a305760405162461bcd60e51b815260206004820152601860248201527f4163636f756e74206d7573742062652070726f766964656400000000000000006044820152606401610981565b600e548210610a815760405162461bcd60e51b815260206004820152601360248201527f4964206d7573742062652070726f7669646564000000000000000000000000006044820152606401610981565b6000610a8c600e5490565b9050610a9b868487600161179f565b6000818152600f60205260409020849055610aba600e80546001019055565b95945050505050565b600081815260046020526040812080546060929190610ae190613eb1565b80601f0160208091040260200160405190810160405280929190818152602001828054610b0d90613eb1565b8015610b5a5780601f10610b2f57610100808354040283529160200191610b5a565b820191906000526020600020905b815481529060010190602001808311610b3d57829003601f168201915b50505050509050600081511115610b715792915050565b6000610b7c84611cb8565b905080610b8885611e62565b604051602001610b99929190613eeb565b60405160208183030381529060405292505050919050565b610bb9611f9f565b610bf65760405162461bcd60e51b815260206004820152600e60248201526d139bdd08185d5d1a1bdc9a5e995960921b6044820152606401610981565b610bff81611fcc565b50565b6000610c0d60095490565b8210610c5b5760405162461bcd60e51b815260206004820152600d60248201527f496e76616c696420696e646578000000000000000000000000000000000000006044820152606401610981565b60098281548110610c6e57610c6e613e9b565b90600052602060002001549050919050565b6000828152600f602052604081208054839290610c9e908490613f1a565b90915550505050565b600080600080610cb686610d96565b90945084925061ffff169050612710610ccf8287613f2d565b610cd99190613f5a565b925050509250929050565b846001600160a01b0381163314610cfe57610cfe3361202b565b610d0b8686868686612121565b505050505050565b610d1b611f9f565b610d8d5760405162461bcd60e51b815260206004820152602b60248201527f4e6f7420617574686f72697a656420746f20736574206f70657261746f72207260448201527f65737472696374696f6e2e0000000000000000000000000000000000000000006064820152608401610981565b610bff816121bb565b6000818152600860209081526040808320815180830190925280546001600160a01b031680835260019091015492820192909252829115610ddd5780516020820151610df7565b6007546001600160a01b03811690600160a01b900461ffff165b9250925050915091565b60608151835114610e465760405162461bcd60e51b815260206004820152600f60248201526e0988a9c8ea890be9a92a69a82a8869608b1b6044820152606401610981565b6000835167ffffffffffffffff811115610e6257610e62613616565b604051908082528060200260200182016040528015610e8b578160200160208202803683370190505b50905060005b8451811015610f305760026000868381518110610eb057610eb0613e9b565b60200260200101516001600160a01b03166001600160a01b031681526020019081526020016000206000858381518110610eec57610eec613e9b565b6020026020010151815260200190815260200160002054828281518110610f1557610f15613e9b565b6020908102919091010152610f2981613e82565b9050610e91565b509392505050565b610f40611f9f565b610f7d5760405162461bcd60e51b815260206004820152600e60248201526d139bdd08185d5d1a1bdc9a5e995960921b6044820152606401610981565b610f878282612202565b5050565b336001600160a01b038416811480610fc857506001600160a01b0380851660009081526003602090815260408083209385168352929052205460ff165b6110145760405162461bcd60e51b815260206004820152601160248201527f556e617070726f7665642063616c6c65720000000000000000000000000000006044820152606401610981565b81518351146110655760405162461bcd60e51b815260206004820152600f60248201527f4c656e677468206d69736d6174636800000000000000000000000000000000006044820152606401610981565b60005b835181101561113b5782818151811061108357611083613e9b565b602002602001015160026000876001600160a01b03166001600160a01b0316815260200190815260200160002060008684815181106110c4576110c4613e9b565b602002602001015181526020019081526020016000205410156111295760405162461bcd60e51b815260206004820152601760248201527f4e6f7420656e6f75676820746f6b656e73206f776e65640000000000000000006044820152606401610981565b611134600182613f1a565b9050611068565b506111478484846122ce565b50505050565b611155611f9f565b6111925760405162461bcd60e51b815260206004820152600e60248201526d139bdd08185d5d1a1bdc9a5e995960921b6044820152606401610981565b610bff816124d7565b6111a3611f9f565b6111ef5760405162461bcd60e51b815260206004820152601760248201527f4e6f7420617574686f72697a656420746f206d696e742e0000000000000000006044820152606401610981565b60008251116112405760405162461bcd60e51b815260206004820152601460248201527f4d696e74696e67207a65726f20746f6b656e732e0000000000000000000000006044820152606401610981565b81518351146112915760405162461bcd60e51b815260206004820152601060248201527f4c656e677468206d69736d617463682e000000000000000000000000000000006044820152606401610981565b600061129c600c5490565b9050806000805b8651811015611372576000198782815181106112c1576112c1613e9b565b60200260200101510361130b57838782815181106112e1576112e1613e9b565b60209081029190910101526112f7600185613f1a565b9350611304600183613f1a565b9150611360565b8387828151811061131e5761131e613e9b565b6020026020010151106113605760405162461bcd60e51b815260206004820152600a6024820152691a5b9d985b1a59081a5960b21b6044820152606401610981565b61136b600182613f1a565b90506112a3565b508015611387576113848282866125b3565b50505b82600c819055506113a987878760405180602001604052806000815250612617565b50505050505050565b600180546108b290613eb1565b6113c7611f9f565b6114045760405162461bcd60e51b815260206004820152600e60248201526d139bdd08185d5d1a1bdc9a5e995960921b6044820152606401610981565b61140f8383836127b3565b505050565b8161141e8161202b565b61140f8383612898565b60008151116114795760405162461bcd60e51b815260206004820152601560248201527f436f6465206d7573742062652070726f766964656400000000000000000000006044820152606401610981565b6010816040516114899190613f6e565b9081526020016040518091039020546000036114e75760405162461bcd60e51b815260206004820152601360248201527f436f646520646f6573206e6f74206578697374000000000000000000000000006044820152606401610981565b601360006010836040516114fb9190613f6e565b908152604080516020928190038301902054835290820192909252016000205460ff161561156b5760405162461bcd60e51b815260206004820152601560248201527f4974656d20616c72656164792072656465656d656400000000000000000000006044820152606401610981565b6001601360006010846040516115819190613f6e565b908152602001604051809103902054815260200190815260200160002060006101000a81548160ff021916908315150217905550610f8733601160006010856040516115cd9190613f6e565b908152602001604051809103902054815260200190815260200160002080546115f590613eb1565b80601f016020809104026020016040519081016040528092919081815260200182805461162190613eb1565b801561166e5780601f106116435761010080835404028352916020019161166e565b820191906000526020600020905b81548152906001019060200180831161165157829003601f168201915b5050505050601260006010866040516116879190613f6e565b9081526020016040518091039020548152602001908152602001600020546118b5565b60608167ffffffffffffffff8111156116c5576116c5613616565b6040519080825280602002602001820160405280156116f857816020015b60608152602001906001900390816116e35790505b50905060005b82811015611798576117683085858481811061171c5761171c613e9b565b905060200281019061172e9190613f8a565b8080601f01602080910402602001604051908101604052809392919081815260200183838082843760009201919091525061295692505050565b82828151811061177a5761177a613e9b565b6020026020010181905250808061179090613e82565b9150506116fe565b5092915050565b6000806117ab600c5490565b905060001985036117e1578091506001600c60008282546117cc9190613f1a565b909155506117dc9050818561297b565b611821565b80851061181d5760405162461bcd60e51b815260206004820152600a6024820152691a5b9d985b1a59081a5960b21b6044820152606401610981565b8491505b610d0b86838560405180602001604052806000815250612993565b60005b825181101561140f5781818151811061185a5761185a613e9b565b6020026020010151600f600085848151811061187857611878613e9b565b60200260200101518152602001908152602001600020600082825461189d9190613f1a565b909155508190506118ad81613e82565b91505061183f565b6000808351116119075760405162461bcd60e51b815260206004820152601960248201527f4d65746164617461206d7573742062652070726f7669646564000000000000006044820152606401610981565b600082116119575760405162461bcd60e51b815260206004820152601b60248201527f457870657269656e6365206d7573742062652070726f766964656400000000006044820152606401610981565b6001600160a01b0384166119ad5760405162461bcd60e51b815260206004820152601860248201527f4163636f756e74206d7573742062652070726f766964656400000000000000006044820152606401610981565b60006119b8600e5490565b90506119c98560001986600161179f565b6000818152600f602052604090208390556119e8600e80546001019055565b90505b9392505050565b606060006119ff83610ac3565b6000938452600f6020526040909320549293915050565b600580546108b290613eb1565b846001600160a01b0381163314611a3d57611a3d3361202b565b610d0b8686868686612a8b565b336001600160a01b038416811480611a8757506001600160a01b0380851660009081526003602090815260408083209385168352929052205460ff165b611ad35760405162461bcd60e51b815260206004820152601160248201527f556e617070726f7665642063616c6c65720000000000000000000000000000006044820152606401610981565b6001600160a01b0384166000908152600260209081526040808320868452909152902054821115611b465760405162461bcd60e51b815260206004820152601760248201527f4e6f7420656e6f75676820746f6b656e73206f776e65640000000000000000006044820152606401610981565b611147848484612b1e565b606061089f82610ac3565b6000835111611bad5760405162461bcd60e51b815260206004820152601560248201527f436f6465206d7573742062652070726f766964656400000000000000000000006044820152606401610981565b6000825111611bfe5760405162461bcd60e51b815260206004820152601960248201527f4d65746164617461206d7573742062652070726f7669646564000000000000006044820152606401610981565b60008111611c4e5760405162461bcd60e51b815260206004820152601b60248201527f457870657269656e6365206d7573742062652070726f766964656400000000006044820152606401610981565b611c5c601480546001019055565b6000611c6760145490565b905080601085604051611c7a9190613f6e565b9081526040805160209281900383019020929092556000838152601190915220611ca4848261401e565b506000908152601260205260409020555050565b60606000611cc560095490565b905060006009805480602002602001604051908101604052809291908181526020018280548015611d1557602002820191906000526020600020905b815481526020019060010190808311611d01575b5050505050905060005b82811015611e1957818181518110611d3957611d39613e9b565b6020026020010151851015611e0757600a6000838381518110611d5e57611d5e613e9b565b602002602001015181526020019081526020016000208054611d7f90613eb1565b80601f0160208091040260200160405190810160405280929190818152602001828054611dab90613eb1565b8015611df85780601f10611dcd57610100808354040283529160200191611df8565b820191906000526020600020905b815481529060010190602001808311611ddb57829003601f168201915b50505050509350505050919050565b611e12600182613f1a565b9050611d1f565b5060405162461bcd60e51b815260206004820152600f60248201527f496e76616c696420746f6b656e496400000000000000000000000000000000006044820152606401610981565b606081600003611ea557505060408051808201909152600181527f3000000000000000000000000000000000000000000000000000000000000000602082015290565b8160005b8115611ecf5780611eb981613e82565b9150611ec89050600a83613f5a565b9150611ea9565b60008167ffffffffffffffff811115611eea57611eea613616565b6040519080825280601f01601f191660200182016040528015611f14576020820181803683370190505b5090505b8415611f9757611f296001836140de565b9150611f36600a866140f1565b611f41906030613f1a565b60f81b818381518110611f5657611f56613e9b565b60200101907effffffffffffffffffffffffffffffffffffffffffffffffffffffffffffff1916908160001a905350611f90600a86613f5a565b9450611f18565b949350505050565b6000611fb36006546001600160a01b031690565b6001600160a01b0316336001600160a01b031614905090565b600680546001600160a01b0383811673ffffffffffffffffffffffffffffffffffffffff19831681179093556040519116919082907f8292fce18fa69edf4db7b94ea2e58241df0ae57f97e0a6c9b29067028bf92d7690600090a35050565b600b5460ff1615610bff576daaeb6d7670e522a718067333cd4e3b15610bff576040517fc61711340000000000000000000000000000000000000000000000000000000081523060048201526001600160a01b03821660248201526daaeb6d7670e522a718067333cd4e9063c617113490604401602060405180830381865afa1580156120bc573d6000803e3d6000fd5b505050506040513d601f19601f820116820180604052508101906120e09190614105565b610bff576040517fede71dcc0000000000000000000000000000000000000000000000000000000081526001600160a01b0382166004820152602401610981565b6001600160a01b03851633148061215b57506001600160a01b038516600090815260036020908152604080832033845290915290205460ff165b6121a75760405162461bcd60e51b815260206004820152601260248201527f214f574e45525f4f525f415050524f56454400000000000000000000000000006044820152606401610981565b6121b48585858585612c75565b5050505050565b600b805460ff19168215159081179091556040519081527f38475885990d8dfe9ca01f0ef160a1b5514426eab9ddbc953a3353410ba780969060200160405180910390a150565b6127108111156122545760405162461bcd60e51b815260206004820152600f60248201527f45786365656473206d61782062707300000000000000000000000000000000006044820152606401610981565b600780546001600160a01b0384167fffffffffffffffffffff000000000000000000000000000000000000000000009091168117600160a01b61ffff851602179091556040518281527f90d7ec04bcb8978719414f82e52e4cb651db41d0e6f8cea6118c2191e6183adb9060200160405180910390a25050565b6001600160a01b0383166123245760405162461bcd60e51b815260206004820152600e60248201527f46524f4d5f5a45524f5f414444520000000000000000000000000000000000006044820152606401610981565b80518251146123675760405162461bcd60e51b815260206004820152600f60248201526e0988a9c8ea890be9a92a69a82a8869608b1b6044820152606401610981565b600033905061238a81856000868660405180602001604052806000815250612e8c565b60005b83518110156124785760008482815181106123aa576123aa613e9b565b6020026020010151905060008483815181106123c8576123c8613e9b565b6020908102919091018101516001600160a01b038916600090815260028352604080822086835290935291909120549091508181101561243d5760405162461bcd60e51b815260206004820152601060248201526f125394d551919250d251539517d0905360821b6044820152606401610981565b6001600160a01b038816600090815260026020908152604080832095835294905292909220910390558061247081613e82565b91505061238d565b5060006001600160a01b0316846001600160a01b0316826001600160a01b03167f4a39dc06d4c0dbc64b70af90fd698a233a518aa5d07e595d983b8c0526c8f7fb86866040516124c9929190614122565b60405180910390a450505050565b6000600580546124e690613eb1565b80601f016020809104026020016040519081016040528092919081815260200182805461251290613eb1565b801561255f5780601f106125345761010080835404028352916020019161255f565b820191906000526020600020905b81548152906001019060200180831161254257829003601f168201915b505050505090508160059081612575919061401e565b507fc9c7c3fe08b88b4df9d4d47ef47d2c43d55c025a0ba88ca442580ed9e7348a1681836040516125a7929190614147565b60405180910390a15050565b6000806125c08486613f1a565b60098054600181019091557f6e1540171b6c0c960b71a7020d9f60077f6af931a8bbf590da0223dacf75c7af018190556000818152600a6020526040902090925082915061260e848261401e565b50935093915050565b6001600160a01b03841661265c5760405162461bcd60e51b815260206004820152600c60248201526b2a27afad22a927afa0a2222960a11b6044820152606401610981565b815183511461269f5760405162461bcd60e51b815260206004820152600f60248201526e0988a9c8ea890be9a92a69a82a8869608b1b6044820152606401610981565b336126af81600087878787612e8c565b60005b845181101561274b578381815181106126cd576126cd613e9b565b602002602001015160026000886001600160a01b03166001600160a01b03168152602001908152602001600020600087848151811061270e5761270e613e9b565b6020026020010151815260200190815260200160002060008282546127339190613f1a565b9091555081905061274381613e82565b9150506126b2565b50846001600160a01b031660006001600160a01b0316826001600160a01b03167f4a39dc06d4c0dbc64b70af90fd698a233a518aa5d07e595d983b8c0526c8f7fb878760405161279c929190614122565b60405180910390a46121b481600087878787612f98565b6127108111156128055760405162461bcd60e51b815260206004820152600f60248201527f45786365656473206d61782062707300000000000000000000000000000000006044820152606401610981565b6040805180820182526001600160a01b0384811680835260208084018681526000898152600883528690209451855473ffffffffffffffffffffffffffffffffffffffff1916941693909317845591516001909301929092559151838152909185917f7365cf4122f072a3365c20d54eff9b38d73c096c28e1892ec8f5b0e403a0f12d91015b60405180910390a3505050565b336001600160a01b03831681036128f15760405162461bcd60e51b815260206004820152600e60248201527f415050524f56494e475f53454c460000000000000000000000000000000000006044820152606401610981565b6001600160a01b03818116600081815260036020908152604080832094881680845294825291829020805460ff191687151590811790915591519182527f17307eab39ab6107e8899845ad3d59bd9653f200f220920489ca2b5937696c31910161288b565b60606119eb83836040518060600160405280602781526020016142d160279139613106565b600082815260046020526040902061140f828261401e565b6001600160a01b0384166129d85760405162461bcd60e51b815260206004820152600c60248201526b2a27afad22a927afa0a2222960a11b6044820152606401610981565b336129f8816000876129e9886131fa565b6129f2886131fa565b87612e8c565b6001600160a01b038516600090815260026020908152604080832087845290915281208054859290612a2b908490613f1a565b909155505060408051858152602081018590526001600160a01b0380881692600092918516917fc3d58168c5ae7397731d063d5bbf3d657854427343f4c083240f7aacaa2d0f62910160405180910390a46121b481600087878787613245565b6001600160a01b038516331480612ac557506001600160a01b038516600090815260036020908152604080832033845290915290205460ff165b612b115760405162461bcd60e51b815260206004820152601260248201527f214f574e45525f4f525f415050524f56454400000000000000000000000000006044820152606401610981565b6121b48585858585613330565b6001600160a01b038316612b745760405162461bcd60e51b815260206004820152600e60248201527f46524f4d5f5a45524f5f414444520000000000000000000000000000000000006044820152606401610981565b33612ba381856000612b85876131fa565b612b8e876131fa565b60405180602001604052806000815250612e8c565b6001600160a01b038416600090815260026020908152604080832086845290915290205482811015612c0a5760405162461bcd60e51b815260206004820152601060248201526f125394d551919250d251539517d0905360821b6044820152606401610981565b6001600160a01b03858116600081815260026020908152604080832089845282528083208887039055805189815291820188905291938616917fc3d58168c5ae7397731d063d5bbf3d657854427343f4c083240f7aacaa2d0f62910160405180910390a45050505050565b8151835114612cb85760405162461bcd60e51b815260206004820152600f60248201526e0988a9c8ea890be9a92a69a82a8869608b1b6044820152606401610981565b6001600160a01b038416612cfd5760405162461bcd60e51b815260206004820152600c60248201526b2a27afad22a927afa0a2222960a11b6044820152606401610981565b33612d0c818787878787612e8c565b60005b8451811015612e26576000858281518110612d2c57612d2c613e9b565b602002602001015190506000858381518110612d4a57612d4a613e9b565b6020908102919091018101516001600160a01b038b166000908152600283526040808220868352909352919091205490915081811015612dbf5760405162461bcd60e51b815260206004820152601060248201526f125394d551919250d251539517d0905360821b6044820152606401610981565b6001600160a01b03808b16600090815260026020818152604080842088855282528084208787039055938d16835290815282822086835290529081208054849290612e0b908490613f1a565b9250508190555050505080612e1f90613e82565b9050612d0f565b50846001600160a01b0316866001600160a01b0316826001600160a01b03167f4a39dc06d4c0dbc64b70af90fd698a233a518aa5d07e595d983b8c0526c8f7fb8787604051612e76929190614122565b60405180910390a4610d0b818787878787612f98565b6001600160a01b038516612f135760005b8351811015612f1157828181518110612eb857612eb8613e9b565b6020026020010151600d6000868481518110612ed657612ed6613e9b565b602002602001015181526020019081526020016000206000828254612efb9190613f1a565b90915550612f0a905081613e82565b9050612e9d565b505b6001600160a01b038416610d0b5760005b83518110156113a957828181518110612f3f57612f3f613e9b565b6020026020010151600d6000868481518110612f5d57612f5d613e9b565b602002602001015181526020019081526020016000206000828254612f8291906140de565b90915550612f91905081613e82565b9050612f24565b6001600160a01b0384163b15610d0b5760405163bc197c8160e01b81526001600160a01b0385169063bc197c8190612fdc908990899088908890889060040161416c565b6020604051808303816000875af1925050508015613017575060408051601f3d908101601f19168201909252613014918101906141ca565b60015b6130a6576130236141e7565b806308c379a00361305c5750613037614203565b80613042575061305e565b8060405162461bcd60e51b81526004016109819190613603565b505b60405162461bcd60e51b815260206004820152601060248201527f21455243313135355245434549564552000000000000000000000000000000006044820152606401610981565b6001600160e01b0319811663bc197c8160e01b146113a95760405162461bcd60e51b815260206004820152600f60248201527f544f4b454e535f52454a454354454400000000000000000000000000000000006044820152606401610981565b60606001600160a01b0384163b6131855760405162461bcd60e51b815260206004820152602660248201527f416464726573733a2064656c65676174652063616c6c20746f206e6f6e2d636f60448201527f6e747261637400000000000000000000000000000000000000000000000000006064820152608401610981565b600080856001600160a01b0316856040516131a09190613f6e565b600060405180830381855af49150503d80600081146131db576040519150601f19603f3d011682016040523d82523d6000602084013e6131e0565b606091505b50915091506131f0828286613498565b9695505050505050565b6040805160018082528183019092526060916000919060208083019080368337019050509050828160008151811061323457613234613e9b565b602090810291909101015292915050565b6001600160a01b0384163b15610d0b5760405163f23a6e6160e01b81526001600160a01b0385169063f23a6e6190613289908990899088908890889060040161428d565b6020604051808303816000875af19250505080156132c4575060408051601f3d908101601f191682019092526132c1918101906141ca565b60015b6132d0576130236141e7565b6001600160e01b0319811663f23a6e6160e01b146113a95760405162461bcd60e51b815260206004820152600f60248201527f544f4b454e535f52454a454354454400000000000000000000000000000000006044820152606401610981565b6001600160a01b0384166133755760405162461bcd60e51b815260206004820152600c60248201526b2a27afad22a927afa0a2222960a11b6044820152606401610981565b336133858187876129e9886131fa565b6001600160a01b0386166000908152600260209081526040808320878452909152902054838110156133ec5760405162461bcd60e51b815260206004820152601060248201526f125394d551919250d251539517d0905360821b6044820152606401610981565b6001600160a01b0380881660009081526002602081815260408084208a855282528084208987039055938a16835290815282822088835290529081208054869290613438908490613f1a565b909155505060408051868152602081018690526001600160a01b03808916928a821692918616917fc3d58168c5ae7397731d063d5bbf3d657854427343f4c083240f7aacaa2d0f62910160405180910390a46113a9828888888888613245565b606083156134a75750816119eb565b8251156134b75782518084602001fd5b8160405162461bcd60e51b81526004016109819190613603565b80356001600160a01b03811681146134e857600080fd5b919050565b6000806040838503121561350057600080fd5b613509836134d1565b946020939093013593505050565b60006020828403121561352957600080fd5b6119eb826134d1565b600081518084526020808501945080840160005b8381101561356257815187529582019590820190600101613546565b509495945050505050565b6020815260006119eb6020830184613532565b6001600160e01b031981168114610bff57600080fd5b6000602082840312156135a857600080fd5b81356119eb81613580565b60005b838110156135ce5781810151838201526020016135b6565b50506000910152565b600081518084526135ef8160208601602086016135b3565b601f01601f19169290920160200192915050565b6020815260006119eb60208301846135d7565b634e487b7160e01b600052604160045260246000fd5b601f8201601f1916810167ffffffffffffffff8111828210171561365257613652613616565b6040525050565b600082601f83011261366a57600080fd5b813567ffffffffffffffff81111561368457613684613616565b60405161369b601f8301601f19166020018261362c565b8181528460208386010111156136b057600080fd5b816020850160208301376000918101602001919091529392505050565b600080600080608085870312156136e357600080fd5b6136ec856134d1565b9350602085013567ffffffffffffffff81111561370857600080fd5b61371487828801613659565b949794965050505060408301359260600135919050565b60006020828403121561373d57600080fd5b5035919050565b6000806040838503121561375757600080fd5b50508035926020909101359150565b600067ffffffffffffffff82111561378057613780613616565b5060051b60200190565b600082601f83011261379b57600080fd5b813560206137a882613766565b6040516137b5828261362c565b83815260059390931b85018201928281019150868411156137d557600080fd5b8286015b848110156137f057803583529183019183016137d9565b509695505050505050565b600080600080600060a0868803121561381357600080fd5b61381c866134d1565b945061382a602087016134d1565b9350604086013567ffffffffffffffff8082111561384757600080fd5b61385389838a0161378a565b9450606088013591508082111561386957600080fd5b61387589838a0161378a565b9350608088013591508082111561388b57600080fd5b5061389888828901613659565b9150509295509295909350565b8015158114610bff57600080fd5b6000602082840312156138c557600080fd5b81356119eb816138a5565b600080604083850312156138e357600080fd5b823567ffffffffffffffff808211156138fb57600080fd5b818501915085601f83011261390f57600080fd5b8135602061391c82613766565b604051613929828261362c565b83815260059390931b850182019282810191508984111561394957600080fd5b948201945b8386101561396e5761395f866134d1565b8252948201949082019061394e565b9650508601359250508082111561398457600080fd5b506139918582860161378a565b9150509250929050565b6000806000606084860312156139b057600080fd5b6139b9846134d1565b9250602084013567ffffffffffffffff808211156139d657600080fd5b6139e28783880161378a565b935060408601359150808211156139f857600080fd5b50613a058682870161378a565b9150509250925092565b600060208284031215613a2157600080fd5b813567ffffffffffffffff811115613a3857600080fd5b611f9784828501613659565b60008060008060808587031215613a5a57600080fd5b613a63856134d1565b9350602085013567ffffffffffffffff80821115613a8057600080fd5b613a8c8883890161378a565b94506040870135915080821115613aa257600080fd5b613aae8883890161378a565b93506060870135915080821115613ac457600080fd5b50613ad187828801613659565b91505092959194509250565b600080600060608486031215613af257600080fd5b83359250613b02602085016134d1565b9150604084013590509250925092565b60008060408385031215613b2557600080fd5b613b2e836134d1565b91506020830135613b3e816138a5565b809150509250929050565b60008060208385031215613b5c57600080fd5b823567ffffffffffffffff80821115613b7457600080fd5b818501915085601f830112613b8857600080fd5b813581811115613b9757600080fd5b8660208260051b8501011115613bac57600080fd5b60209290920196919550909350505050565b6000602080830181845280855180835260408601915060408160051b870101925083870160005b82811015613c1357603f19888603018452613c018583516135d7565b94509285019290850190600101613be5565b5092979650505050505050565b60008060008060808587031215613c3657600080fd5b613c3f856134d1565b935060208501359250604085013567ffffffffffffffff811115613c6257600080fd5b613c6e87828801613659565b949793965093946060013593505050565b60008060408385031215613c9257600080fd5b823567ffffffffffffffff80821115613caa57600080fd5b613cb68683870161378a565b9350602085013591508082111561398457600080fd5b600080600060608486031215613ce157600080fd5b613cea846134d1565b9250602084013567ffffffffffffffff811115613d0657600080fd5b613d1286828701613659565b925050604084013590509250925092565b604081526000613d3660408301856135d7565b90508260208301529392505050565b60008060408385031215613d5857600080fd5b613d61836134d1565b9150613d6f602084016134d1565b90509250929050565b600080600080600060a08688031215613d9057600080fd5b613d99866134d1565b9450613da7602087016134d1565b93506040860135925060608601359150608086013567ffffffffffffffff811115613dd157600080fd5b61389888828901613659565b600080600060608486031215613df257600080fd5b613dfb846134d1565b95602085013595506040909401359392505050565b600080600060608486031215613e2557600080fd5b833567ffffffffffffffff80821115613e3d57600080fd5b613e4987838801613659565b94506020860135915080821115613e5f57600080fd5b50613d1286828701613659565b634e487b7160e01b600052601160045260246000fd5b600060018201613e9457613e94613e6c565b5060010190565b634e487b7160e01b600052603260045260246000fd5b600181811c90821680613ec557607f821691505b602082108103613ee557634e487b7160e01b600052602260045260246000fd5b50919050565b60008351613efd8184602088016135b3565b835190830190613f118183602088016135b3565b01949350505050565b8082018082111561089f5761089f613e6c565b808202811582820484141761089f5761089f613e6c565b634e487b7160e01b600052601260045260246000fd5b600082613f6957613f69613f44565b500490565b60008251613f808184602087016135b3565b9190910192915050565b6000808335601e19843603018112613fa157600080fd5b83018035915067ffffffffffffffff821115613fbc57600080fd5b602001915036819003821315613fd157600080fd5b9250929050565b601f82111561140f57600081815260208120601f850160051c81016020861015613fff5750805b601f850160051c820191505b81811015610d0b5782815560010161400b565b815167ffffffffffffffff81111561403857614038613616565b61404c816140468454613eb1565b84613fd8565b602080601f83116001811461408157600084156140695750858301515b600019600386901b1c1916600185901b178555610d0b565b600085815260208120601f198616915b828110156140b057888601518255948401946001909101908401614091565b50858210156140ce5787850151600019600388901b60f8161c191681555b5050505050600190811b01905550565b8181038181111561089f5761089f613e6c565b60008261410057614100613f44565b500690565b60006020828403121561411757600080fd5b81516119eb816138a5565b6040815260006141356040830185613532565b8281036020840152610aba8185613532565b60408152600061415a60408301856135d7565b8281036020840152610aba81856135d7565b60006001600160a01b03808816835280871660208401525060a0604083015261419860a0830186613532565b82810360608401526141aa8186613532565b905082810360808401526141be81856135d7565b98975050505050505050565b6000602082840312156141dc57600080fd5b81516119eb81613580565b600060033d11156142005760046000803e5060005160e01c5b90565b600060443d10156142115790565b6040516003193d81016004833e81513d67ffffffffffffffff816024840111818411171561424157505050505090565b82850191508151818111156142595750505050505090565b843d87010160208285010111156142735750505050505090565b6142826020828601018761362c565b509095945050505050565b60006001600160a01b03808816835280871660208401525084604083015283606083015260a060808301526142c560a08301846135d7565b97965050505050505056fe416464726573733a206c6f772d6c6576656c2064656c65676174652063616c6c206661696c6564a2646970667358221220b7dd7547c95c7c482b6ec668fd8166fa46706646ae63774ef7d20822d71cd01b64736f6c63430008110033",
  "linkReferences": {},
  "deployedLinkReferences": {}
}