{
  "_format": "hh-sol-artifact-1",
  "contractName": "web3GAME",
  "sourceName": "contracts/web3GAME.sol",
  "abi": [
    {
      "inputs": [
        {
          "internalType": "string",
          "name": "_name",
          "type": "string"
        },
        {
          "internalType": "string",
          "name": "_symbol",
          "type": "string"
        },
        {
          "internalType": "address",
          "name": "_royaltyRecipient",
          "type": "address"
        },
        {
          "internalType": "uint128",
          "name": "_royaltyBps",
          "type": "uint128"
        }
      ],
      "stateMutability": "nonpayable",
      "type": "constructor"
    },
    {
      "inputs": [
        {
          "internalType": "address",
          "name": "operator",
          "type": "address"
        }
      ],
      "name": "OperatorNotAllowed",
      "type": "error"
    },
    {
      "anonymous": false,
      "inputs": [
        {
          "indexed": true,
          "internalType": "address",
          "name": "_owner",
          "type": "address"
        },
        {
          "indexed": true,
          "internalType": "address",
          "name": "_operator",
          "type": "address"
        },
        {
          "indexed": false,
          "internalType": "bool",
          "name": "_approved",
          "type": "bool"
        }
      ],
      "name": "ApprovalForAll",
      "type": "event"
    },
    {
      "anonymous": false,
      "inputs": [
        {
          "indexed": false,
          "internalType": "string",
          "name": "prevURI",
          "type": "string"
        },
        {
          "indexed": false,
          "internalType": "string",
          "name": "newURI",
          "type": "string"
        }
      ],
      "name": "ContractURIUpdated",
      "type": "event"
    },
    {
      "anonymous": false,
      "inputs": [
        {
          "indexed": true,
          "internalType": "address",
          "name": "newRoyaltyRecipient",
          "type": "address"
        },
        {
          "indexed": false,
          "internalType": "uint256",
          "name": "newRoyaltyBps",
          "type": "uint256"
        }
      ],
      "name": "DefaultRoyalty",
      "type": "event"
    },
    {
      "anonymous": false,
      "inputs": [
        {
          "indexed": false,
          "internalType": "bool",
          "name": "restriction",
          "type": "bool"
        }
      ],
      "name": "OperatorRestriction",
      "type": "event"
    },
    {
      "anonymous": false,
      "inputs": [
        {
          "indexed": true,
          "internalType": "address",
          "name": "prevOwner",
          "type": "address"
        },
        {
          "indexed": true,
          "internalType": "address",
          "name": "newOwner",
          "type": "address"
        }
      ],
      "name": "OwnerUpdated",
      "type": "event"
    },
    {
      "anonymous": false,
      "inputs": [
        {
          "indexed": true,
          "internalType": "uint256",
          "name": "tokenId",
          "type": "uint256"
        },
        {
          "indexed": true,
          "internalType": "address",
          "name": "royaltyRecipient",
          "type": "address"
        },
        {
          "indexed": false,
          "internalType": "uint256",
          "name": "royaltyBps",
          "type": "uint256"
        }
      ],
      "name": "RoyaltyForToken",
      "type": "event"
    },
    {
      "anonymous": false,
      "inputs": [
        {
          "indexed": true,
          "internalType": "address",
          "name": "_operator",
          "type": "address"
        },
        {
          "indexed": true,
          "internalType": "address",
          "name": "_from",
          "type": "address"
        },
        {
          "indexed": true,
          "internalType": "address",
          "name": "_to",
          "type": "address"
        },
        {
          "indexed": false,
          "internalType": "uint256[]",
          "name": "_ids",
          "type": "uint256[]"
        },
        {
          "indexed": false,
          "internalType": "uint256[]",
          "name": "_values",
          "type": "uint256[]"
        }
      ],
      "name": "TransferBatch",
      "type": "event"
    },
    {
      "anonymous": false,
      "inputs": [
        {
          "indexed": true,
          "internalType": "address",
          "name": "_operator",
          "type": "address"
        },
        {
          "indexed": true,
          "internalType": "address",
          "name": "_from",
          "type": "address"
        },
        {
          "indexed": true,
          "internalType": "address",
          "name": "_to",
          "type": "address"
        },
        {
          "indexed": false,
          "internalType": "uint256",
          "name": "_id",
          "type": "uint256"
        },
        {
          "indexed": false,
          "internalType": "uint256",
          "name": "_value",
          "type": "uint256"
        }
      ],
      "name": "TransferSingle",
      "type": "event"
    },
    {
      "anonymous": false,
      "inputs": [
        {
          "indexed": false,
          "internalType": "string",
          "name": "_value",
          "type": "string"
        },
        {
          "indexed": true,
          "internalType": "uint256",
          "name": "_id",
          "type": "uint256"
        }
      ],
      "name": "URI",
      "type": "event"
    },
    {
      "inputs": [],
      "name": "OPERATOR_FILTER_REGISTRY",
      "outputs": [
        {
          "internalType": "contract IOperatorFilterRegistry",
          "name": "",
          "type": "address"
        }
      ],
      "stateMutability": "view",
      "type": "function"
    },
    {
      "inputs": [
        {
          "internalType": "address",
          "name": "",
          "type": "address"
        },
        {
          "internalType": "uint256",
          "name": "",
          "type": "uint256"
        }
      ],
      "name": "balanceOf",
      "outputs": [
        {
          "internalType": "uint256",
          "name": "",
          "type": "uint256"
        }
      ],
      "stateMutability": "view",
      "type": "function"
    },
    {
      "inputs": [
        {
          "internalType": "address[]",
          "name": "accounts",
          "type": "address[]"
        },
        {
          "internalType": "uint256[]",
          "name": "ids",
          "type": "uint256[]"
        }
      ],
      "name": "balanceOfBatch",
      "outputs": [
        {
          "internalType": "uint256[]",
          "name": "",
          "type": "uint256[]"
        }
      ],
      "stateMutability": "view",
      "type": "function"
    },
    {
      "inputs": [
        {
          "internalType": "address",
          "name": "_to",
          "type": "address"
        },
        {
          "internalType": "uint256[]",
          "name": "_tokenIds",
          "type": "uint256[]"
        },
        {
          "internalType": "uint256[]",
          "name": "_amounts",
          "type": "uint256[]"
        },
        {
          "internalType": "string",
          "name": "_baseURI",
          "type": "string"
        }
      ],
      "name": "batchMintTo",
      "outputs": [],
      "stateMutability": "nonpayable",
      "type": "function"
    },
    {
      "inputs": [
        {
          "internalType": "address",
          "name": "_owner",
          "type": "address"
        },
        {
          "internalType": "uint256",
          "name": "_tokenId",
          "type": "uint256"
        },
        {
          "internalType": "uint256",
          "name": "_amount",
          "type": "uint256"
        }
      ],
      "name": "burn",
      "outputs": [],
      "stateMutability": "nonpayable",
      "type": "function"
    },
    {
      "inputs": [
        {
          "internalType": "address",
          "name": "_owner",
          "type": "address"
        },
        {
          "internalType": "uint256[]",
          "name": "_tokenIds",
          "type": "uint256[]"
        },
        {
          "internalType": "uint256[]",
          "name": "_amounts",
          "type": "uint256[]"
        }
      ],
      "name": "burnBatch",
      "outputs": [],
      "stateMutability": "nonpayable",
      "type": "function"
    },
    {
      "inputs": [],
      "name": "contractURI",
      "outputs": [
        {
          "internalType": "string",
          "name": "",
          "type": "string"
        }
      ],
      "stateMutability": "view",
      "type": "function"
    },
    {
      "inputs": [
        {
          "internalType": "string",
          "name": "_code",
          "type": "string"
        },
        {
          "internalType": "string",
          "name": "_uri",
          "type": "string"
        },
        {
          "internalType": "uint256",
          "name": "_experience",
          "type": "uint256"
        }
      ],
      "name": "createRedeemableItem",
      "outputs": [],
      "stateMutability": "nonpayable",
      "type": "function"
    },
    {
      "inputs": [
        {
          "internalType": "uint256",
          "name": "",
          "type": "uint256"
        }
      ],
      "name": "experience",
      "outputs": [
        {
          "internalType": "uint256",
          "name": "",
          "type": "uint256"
        }
      ],
      "stateMutability": "view",
      "type": "function"
    },
    {
      "inputs": [],
      "name": "getBaseURICount",
      "outputs": [
        {
          "internalType": "uint256",
          "name": "",
          "type": "uint256"
        }
      ],
      "stateMutability": "view",
      "type": "function"
    },
    {
      "inputs": [
        {
          "internalType": "uint256",
          "name": "_index",
          "type": "uint256"
        }
      ],
      "name": "getBatchIdAtIndex",
      "outputs": [
        {
          "internalType": "uint256",
          "name": "",
          "type": "uint256"
        }
      ],
      "stateMutability": "view",
      "type": "function"
    },
    {
      "inputs": [
        {
          "internalType": "uint256",
          "name": "_id",
          "type": "uint256"
        }
      ],
      "name": "getBokemon",
      "outputs": [
        {
          "internalType": "string",
          "name": "",
          "type": "string"
        },
        {
          "internalType": "uint256",
          "name": "",
          "type": "uint256"
        }
      ],
      "stateMutability": "view",
      "type": "function"
    },
    {
      "inputs": [
        {
          "internalType": "address",
          "name": "_user",
          "type": "address"
        }
      ],
      "name": "getBokemonPerUser",
      "outputs": [
        {
          "internalType": "uint256[]",
          "name": "",
          "type": "uint256[]"
        }
      ],
      "stateMutability": "view",
      "type": "function"
    },
    {
      "inputs": [
        {
          "internalType": "uint256",
          "name": "_id",
          "type": "uint256"
        }
      ],
      "name": "getBokemonUri",
      "outputs": [
        {
          "internalType": "string",
          "name": "",
          "type": "string"
        }
      ],
      "stateMutability": "view",
      "type": "function"
    },
    {
      "inputs": [],
      "name": "getDefaultRoyaltyInfo",
      "outputs": [
        {
          "internalType": "address",
          "name": "",
          "type": "address"
        },
        {
          "internalType": "uint16",
          "name": "",
          "type": "uint16"
        }
      ],
      "stateMutability": "view",
      "type": "function"
    },
    {
      "inputs": [
        {
          "internalType": "uint256",
          "name": "_tokenId",
          "type": "uint256"
        }
      ],
      "name": "getRoyaltyInfoForToken",
      "outputs": [
        {
          "internalType": "address",
          "name": "",
          "type": "address"
        },
        {
          "internalType": "uint16",
          "name": "",
          "type": "uint16"
        }
      ],
      "stateMutability": "view",
      "type": "function"
    },
    {
      "inputs": [
        {
          "internalType": "uint256",
          "name": "_id",
          "type": "uint256"
        },
        {
          "internalType": "uint256",
          "name": "_experience",
          "type": "uint256"
        }
      ],
      "name": "increaseExperience",
      "outputs": [],
      "stateMutability": "nonpayable",
      "type": "function"
    },
    {
      "inputs": [
        {
          "internalType": "address",
          "name": "",
          "type": "address"
        },
        {
          "internalType": "address",
          "name": "",
          "type": "address"
        }
      ],
      "name": "isApprovedForAll",
      "outputs": [
        {
          "internalType": "bool",
          "name": "",
          "type": "bool"
        }
      ],
      "stateMutability": "view",
      "type": "function"
    },
    {
      "inputs": [
        {
          "internalType": "address",
          "name": "account",
          "type": "address"
        },
        {
          "internalType": "string",
          "name": "uri",
          "type": "string"
        },
        {
          "internalType": "uint256",
          "name": "_experience",
          "type": "uint256"
        }
      ],
      "name": "mint",
      "outputs": [
        {
          "internalType": "uint256",
          "name": "",
          "type": "uint256"
        }
      ],
      "stateMutability": "nonpayable",
      "type": "function"
    },
    {
      "inputs": [
        {
          "internalType": "address",
          "name": "account",
          "type": "address"
        },
        {
          "internalType": "string",
          "name": "uri",
          "type": "string"
        },
        {
          "internalType": "uint256",
          "name": "_experience",
          "type": "uint256"
        },
        {
          "internalType": "uint256",
          "name": "_id",
          "type": "uint256"
        }
      ],
      "name": "mintSimilar",
      "outputs": [
        {
          "internalType": "uint256",
          "name": "",
          "type": "uint256"
        }
      ],
      "stateMutability": "nonpayable",
      "type": "function"
    },
    {
      "inputs": [
        {
          "internalType": "address",
          "name": "_to",
          "type": "address"
        },
        {
          "internalType": "uint256",
          "name": "_tokenId",
          "type": "uint256"
        },
        {
          "internalType": "string",
          "name": "_tokenURI",
          "type": "string"
        },
        {
          "internalType": "uint256",
          "name": "_amount",
          "type": "uint256"
        }
      ],
      "name": "mintTo",
      "outputs": [],
      "stateMutability": "nonpayable",
      "type": "function"
    },
    {
      "inputs": [
        {
          "internalType": "bytes[]",
          "name": "data",
          "type": "bytes[]"
        }
      ],
      "name": "multicall",
      "outputs": [
        {
          "internalType": "bytes[]",
          "name": "results",
          "type": "bytes[]"
        }
      ],
      "stateMutability": "nonpayable",
      "type": "function"
    },
    {
      "inputs": [],
      "name": "name",
      "outputs": [
        {
          "internalType": "string",
          "name": "",
          "type": "string"
        }
      ],
      "stateMutability": "view",
      "type": "function"
    },
    {
      "inputs": [],
      "name": "nextTokenIdToMint",
      "outputs": [
        {
          "internalType": "uint256",
          "name": "",
          "type": "uint256"
        }
      ],
      "stateMutability": "view",
      "type": "function"
    },
    {
      "inputs": [],
      "name": "operatorRestriction",
      "outputs": [
        {
          "internalType": "bool",
          "name": "",
          "type": "bool"
        }
      ],
      "stateMutability": "view",
      "type": "function"
    },
    {
      "inputs": [],
      "name": "owner",
      "outputs": [
        {
          "internalType": "address",
          "name": "",
          "type": "address"
        }
      ],
      "stateMutability": "view",
      "type": "function"
    },
    {
      "inputs": [
        {
          "internalType": "string",
          "name": "_code",
          "type": "string"
        }
      ],
      "name": "redeemItem",
      "outputs": [],
      "stateMutability": "nonpayable",
      "type": "function"
    },
    {
      "inputs": [
        {
          "internalType": "uint256",
          "name": "tokenId",
          "type": "uint256"
        },
        {
          "internalType": "uint256",
          "name": "salePrice",
          "type": "uint256"
        }
      ],
      "name": "royaltyInfo",
      "outputs": [
        {
          "internalType": "address",
          "name": "receiver",
          "type": "address"
        },
        {
          "internalType": "uint256",
          "name": "royaltyAmount",
          "type": "uint256"
        }
      ],
      "stateMutability": "view",
      "type": "function"
    },
    {
      "inputs": [
        {
          "internalType": "address",
          "name": "from",
          "type": "address"
        },
        {
          "internalType": "address",
          "name": "to",
          "type": "address"
        },
        {
          "internalType": "uint256[]",
          "name": "ids",
          "type": "uint256[]"
        },
        {
          "internalType": "uint256[]",
          "name": "amounts",
          "type": "uint256[]"
        },
        {
          "internalType": "bytes",
          "name": "data",
          "type": "bytes"
        }
      ],
      "name": "safeBatchTransferFrom",
      "outputs": [],
      "stateMutability": "nonpayable",
      "type": "function"
    },
    {
      "inputs": [
        {
          "internalType": "address",
          "name": "from",
          "type": "address"
        },
        {
          "internalType": "address",
          "name": "to",
          "type": "address"
        },
        {
          "internalType": "uint256",
          "name": "id",
          "type": "uint256"
        },
        {
          "internalType": "uint256",
          "name": "amount",
          "type": "uint256"
        },
        {
          "internalType": "bytes",
          "name": "data",
          "type": "bytes"
        }
      ],
      "name": "safeTransferFrom",
      "outputs": [],
      "stateMutability": "nonpayable",
      "type": "function"
    },
    {
      "inputs": [
        {
          "internalType": "address",
          "name": "operator",
          "type": "address"
        },
        {
          "internalType": "bool",
          "name": "approved",
          "type": "bool"
        }
      ],
      "name": "setApprovalForAll",
      "outputs": [],
      "stateMutability": "nonpayable",
      "type": "function"
    },
    {
      "inputs": [
        {
          "internalType": "string",
          "name": "_uri",
          "type": "string"
        }
      ],
      "name": "setContractURI",
      "outputs": [],
      "stateMutability": "nonpayable",
      "type": "function"
    },
    {
      "inputs": [
        {
          "internalType": "address",
          "name": "_royaltyRecipient",
          "type": "address"
        },
        {
          "internalType": "uint256",
          "name": "_royaltyBps",
          "type": "uint256"
        }
      ],
      "name": "setDefaultRoyaltyInfo",
      "outputs": [],
      "stateMutability": "nonpayable",
      "type": "function"
    },
    {
      "inputs": [
        {
          "internalType": "bool",
          "name": "_restriction",
          "type": "bool"
        }
      ],
      "name": "setOperatorRestriction",
      "outputs": [],
      "stateMutability": "nonpayable",
      "type": "function"
    },
    {
      "inputs": [
        {
          "internalType": "address",
          "name": "_newOwner",
          "type": "address"
        }
      ],
      "name": "setOwner",
      "outputs": [],
      "stateMutability": "nonpayable",
      "type": "function"
    },
    {
      "inputs": [
        {
          "internalType": "uint256",
          "name": "_tokenId",
          "type": "uint256"
        },
        {
          "internalType": "address",
          "name": "_recipient",
          "type": "address"
        },
        {
          "internalType": "uint256",
          "name": "_bps",
          "type": "uint256"
        }
      ],
      "name": "setRoyaltyInfoForToken",
      "outputs": [],
      "stateMutability": "nonpayable",
      "type": "function"
    },
    {
      "inputs": [
        {
          "internalType": "bytes4",
          "name": "interfaceId",
          "type": "bytes4"
        }
      ],
      "name": "supportsInterface",
      "outputs": [
        {
          "internalType": "bool",
          "name": "",
          "type": "bool"
        }
      ],
      "stateMutability": "view",
      "type": "function"
    },
    {
      "inputs": [],
      "name": "symbol",
      "outputs": [
        {
          "internalType": "string",
          "name": "",
          "type": "string"
        }
      ],
      "stateMutability": "view",
      "type": "function"
    },
    {
      "inputs": [
        {
          "internalType": "uint256",
          "name": "",
          "type": "uint256"
        }
      ],
      "name": "totalSupply",
      "outputs": [
        {
          "internalType": "uint256",
          "name": "",
          "type": "uint256"
        }
      ],
      "stateMutability": "view",
      "type": "function"
    },
    {
      "inputs": [
        {
          "internalType": "uint256",
          "name": "_tokenId",
          "type": "uint256"
        }
      ],
      "name": "uri",
      "outputs": [
        {
          "internalType": "string",
          "name": "",
          "type": "string"
        }
      ],
      "stateMutability": "view",
      "type": "function"
    }
  ],
  "bytecode": "0x60806040523480156200001157600080fd5b506040516200485c3803806200485c8339810160408190526200003491620003fc565b83838383733cc6cdda760b79bafa08df41ecfa224f810dceb66001858560006200005f838262000537565b5060016200006e828262000537565b5050506daaeb6d7670e522a718067333cd4e3b15620001b65780156200010457604051633e9f1edf60e11b81523060048201526001600160a01b03831660248201526daaeb6d7670e522a718067333cd4e90637d3e3dbe906044015b600060405180830381600087803b158015620000e557600080fd5b505af1158015620000fa573d6000803e3d6000fd5b50505050620001b6565b6001600160a01b03821615620001555760405163a0af290360e01b81523060048201526001600160a01b03831660248201526daaeb6d7670e522a718067333cd4e9063a0af290390604401620000ca565b604051632210724360e11b81523060048201526daaeb6d7670e522a718067333cd4e90634420e48690602401600060405180830381600087803b1580156200019c57600080fd5b505af1158015620001b1573d6000803e3d6000fd5b505050505b50620001c4905033620001f3565b620001d9826001600160801b03831662000245565b620001e56001620002f0565b505050505050505062000603565b600680546001600160a01b038381166001600160a01b0319831681179093556040519116919082907f8292fce18fa69edf4db7b94ea2e58241df0ae57f97e0a6c9b29067028bf92d7690600090a35050565b6127108111156200028e5760405162461bcd60e51b815260206004820152600f60248201526e45786365656473206d61782062707360881b604482015260640160405180910390fd5b600780546001600160a01b0384166001600160b01b03199091168117600160a01b61ffff851602179091556040518281527f90d7ec04bcb8978719414f82e52e4cb651db41d0e6f8cea6118c2191e6183adb9060200160405180910390a25050565b600b805460ff19168215159081179091556040519081527f38475885990d8dfe9ca01f0ef160a1b5514426eab9ddbc953a3353410ba780969060200160405180910390a150565b634e487b7160e01b600052604160045260246000fd5b600082601f8301126200035f57600080fd5b81516001600160401b03808211156200037c576200037c62000337565b604051601f8301601f19908116603f01168101908282118183101715620003a757620003a762000337565b81604052838152602092508683858801011115620003c457600080fd5b600091505b83821015620003e85785820183015181830184015290820190620003c9565b600093810190920192909252949350505050565b600080600080608085870312156200041357600080fd5b84516001600160401b03808211156200042b57600080fd5b62000439888389016200034d565b955060208701519150808211156200045057600080fd5b506200045f878288016200034d565b604087015190945090506001600160a01b03811681146200047f57600080fd5b60608601519092506001600160801b03811681146200049d57600080fd5b939692955090935050565b600181811c90821680620004bd57607f821691505b602082108103620004de57634e487b7160e01b600052602260045260246000fd5b50919050565b601f8211156200053257600081815260208120601f850160051c810160208610156200050d5750805b601f850160051c820191505b818110156200052e5782815560010162000519565b5050505b505050565b81516001600160401b0381111562000553576200055362000337565b6200056b81620005648454620004a8565b84620004e4565b602080601f831160018114620005a357600084156200058a5750858301515b600019600386901b1c1916600185901b1785556200052e565b600085815260208120601f198616915b82811015620005d457888601518255948401946001909101908401620005b3565b5085821015620005f35787850151600019600388901b60f8161c191681555b5050505050600190811b01905550565b61424980620006136000396000f3fe608060405234801561001057600080fd5b50600436106102c75760003560e01c80638da5cb5b1161017b578063ba7aef43116100d8578063e985e9c51161008c578063f5298aca11610071578063f5298aca14610659578063f8508a0b1461066c578063fc2c738d1461067f57600080fd5b8063e985e9c514610618578063f242432a1461064657600080fd5b8063ce5f036a116100bd578063ce5f036a146105cf578063d3e97165146105f0578063e8a3d4851461061057600080fd5b8063ba7aef431461059c578063bd85b039146105af57600080fd5b8063a22cb4651161012f578063ac9650d811610114578063ac9650d81461054b578063b03f45281461056b578063b24f2d391461057e57600080fd5b8063a22cb46514610525578063ac60345b1461053857600080fd5b8063949c09f711610160578063949c09f7146104f757806395d89b411461050a5780639bcf7a151461051257600080fd5b80638da5cb5b146104d3578063938e3d7b146104e457600080fd5b80632eb2c2d6116102295780634e1273f4116101dd578063600dd5ea116101c2578063600dd5ea146104a557806363b45e2d146104b85780636b20c454146104c057600080fd5b80634e1273f414610485578063504c6e011461049857600080fd5b80633b1475a71161020e5780633b1475a71461041b57806341f43434146104235780634cc157df1461045057600080fd5b80632eb2c2d6146103f557806332f0cd641461040857600080fd5b80630e89341c116102805780632419f51b116102655780632419f51b1461039d578063243a7c7b146103b05780632a55205a146103c357600080fd5b80630e89341c1461037557806313af40351461038857600080fd5b806301ffc9a7116102b157806301ffc9a71461032a57806306fdde031461034d5780630cb0fc4d1461036257600080fd5b8062fdd58e146102cc5780630134671b1461030a575b600080fd5b6102f76102da366004613456565b600260209081526000928352604080842090915290825290205481565b6040519081526020015b60405180910390f35b61031d610318366004613480565b610692565b60405161030191906134d6565b61033d6103383660046134ff565b6107b6565b6040519015158152602001610301565b610355610887565b604051610301919061356c565b6102f7610370366004613636565b610915565b610355610383366004613694565b610aa5565b61039b610396366004613480565b610b93565b005b6102f76103ab366004613694565b610be4565b61039b6103be3660046136ad565b610c62565b6103d66103d13660046136ad565b610c89565b604080516001600160a01b039093168352602083019190915201610301565b61039b610403366004613764565b610cc6565b61039b61041636600461381c565b610cf5565b600c546102f7565b6104386daaeb6d7670e522a718067333cd4e81565b6040516001600160a01b039091168152602001610301565b61046361045e366004613694565b610d78565b604080516001600160a01b03909316835261ffff909116602083015201610301565b61031d610493366004613839565b610de3565b600b5461033d9060ff1681565b61039b6104b3366004613456565b610f1a565b6009546102f7565b61039b6104ce366004613904565b610f6d565b6006546001600160a01b0316610438565b61039b6104f2366004613978565b61112f565b61039b6105053660046139ad565b61117d565b610355611394565b61039b610520366004613a46565b6113a1565b61039b610533366004613a7b565b6113f6565b61039b610546366004613978565b61140a565b61055e610559366004613ab2565b61168c565b6040516103019190613b27565b61039b610579366004613b89565b611781565b6007546001600160a01b03811690600160a01b900461ffff16610463565b6102f76105aa366004613be8565b61181e565b6102f76105bd366004613694565b600d6020526000908152604090205481565b6105e26105dd366004613694565b61195b565b604051610301929190613c3f565b6102f76105fe366004613694565b600f6020526000908152604090205481565b61035561197f565b61033d610626366004613c61565b600360209081526000928352604080842090915290825290205460ff1681565b61039b610654366004613c94565b61198c565b61039b610667366004613cf9565b6119b3565b61035561067a366004613694565b611aba565b61039b61068d366004613d2c565b611ac5565b60606000805b600e548110156106ed576001600160a01b03841660009081526002602090815260408083208484529091529020546001036106db57816106d781613d9e565b9250505b806106e581613d9e565b915050610698565b5060008167ffffffffffffffff8111156107095761070961357f565b604051908082528060200260200182016040528015610732578160200160208202803683370190505b5090506000805b600e548110156107ac576001600160a01b038616600090815260026020908152604080832084845290915290205460010361079a578083838151811061078157610781613db7565b60209081029190910101528161079681613d9e565b9250505b806107a481613d9e565b915050610739565b5090949350505050565b60007f01ffc9a7000000000000000000000000000000000000000000000000000000006001600160e01b03198316148061081957507fd9b67a26000000000000000000000000000000000000000000000000000000006001600160e01b03198316145b8061084d57507f0e89341c000000000000000000000000000000000000000000000000000000006001600160e01b03198316145b8061088157506001600160e01b031982167f2a55205a00000000000000000000000000000000000000000000000000000000145b92915050565b6000805461089490613dcd565b80601f01602080910402602001604051908101604052809291908181526020018280546108c090613dcd565b801561090d5780601f106108e25761010080835404028352916020019161090d565b820191906000526020600020905b8154815290600101906020018083116108f057829003601f168201915b505050505081565b60008084511161096c5760405162461bcd60e51b815260206004820152601960248201527f4d65746164617461206d7573742062652070726f76696465640000000000000060448201526064015b60405180910390fd5b600083116109bc5760405162461bcd60e51b815260206004820152601b60248201527f457870657269656e6365206d7573742062652070726f766964656400000000006044820152606401610963565b6001600160a01b038516610a125760405162461bcd60e51b815260206004820152601860248201527f4163636f756e74206d7573742062652070726f766964656400000000000000006044820152606401610963565b600e548210610a635760405162461bcd60e51b815260206004820152601360248201527f4964206d7573742062652070726f7669646564000000000000000000000000006044820152606401610963565b6000610a6e600e5490565b9050610a7d8684876001611781565b6000818152600f60205260409020849055610a9c600e80546001019055565b95945050505050565b600081815260046020526040812080546060929190610ac390613dcd565b80601f0160208091040260200160405190810160405280929190818152602001828054610aef90613dcd565b8015610b3c5780601f10610b1157610100808354040283529160200191610b3c565b820191906000526020600020905b815481529060010190602001808311610b1f57829003601f168201915b50505050509050600081511115610b535792915050565b6000610b5e84611c21565b905080610b6a85611dcb565b604051602001610b7b929190613e07565b60405160208183030381529060405292505050919050565b610b9b611f08565b610bd85760405162461bcd60e51b815260206004820152600e60248201526d139bdd08185d5d1a1bdc9a5e995960921b6044820152606401610963565b610be181611f35565b50565b6000610bef60095490565b8210610c3d5760405162461bcd60e51b815260206004820152600d60248201527f496e76616c696420696e646578000000000000000000000000000000000000006044820152606401610963565b60098281548110610c5057610c50613db7565b90600052602060002001549050919050565b6000828152600f602052604081208054839290610c80908490613e36565b90915550505050565b600080600080610c9886610d78565b90945084925061ffff169050612710610cb18287613e49565b610cbb9190613e76565b925050509250929050565b846001600160a01b0381163314610ce057610ce033611f94565b610ced868686868661208a565b505050505050565b610cfd611f08565b610d6f5760405162461bcd60e51b815260206004820152602b60248201527f4e6f7420617574686f72697a656420746f20736574206f70657261746f72207260448201527f65737472696374696f6e2e0000000000000000000000000000000000000000006064820152608401610963565b610be181612124565b6000818152600860209081526040808320815180830190925280546001600160a01b031680835260019091015492820192909252829115610dbf5780516020820151610dd9565b6007546001600160a01b03811690600160a01b900461ffff165b9250925050915091565b60608151835114610e285760405162461bcd60e51b815260206004820152600f60248201526e0988a9c8ea890be9a92a69a82a8869608b1b6044820152606401610963565b6000835167ffffffffffffffff811115610e4457610e4461357f565b604051908082528060200260200182016040528015610e6d578160200160208202803683370190505b50905060005b8451811015610f125760026000868381518110610e9257610e92613db7565b60200260200101516001600160a01b03166001600160a01b031681526020019081526020016000206000858381518110610ece57610ece613db7565b6020026020010151815260200190815260200160002054828281518110610ef757610ef7613db7565b6020908102919091010152610f0b81613d9e565b9050610e73565b509392505050565b610f22611f08565b610f5f5760405162461bcd60e51b815260206004820152600e60248201526d139bdd08185d5d1a1bdc9a5e995960921b6044820152606401610963565b610f69828261216b565b5050565b336001600160a01b038416811480610faa57506001600160a01b0380851660009081526003602090815260408083209385168352929052205460ff165b610ff65760405162461bcd60e51b815260206004820152601160248201527f556e617070726f7665642063616c6c65720000000000000000000000000000006044820152606401610963565b81518351146110475760405162461bcd60e51b815260206004820152600f60248201527f4c656e677468206d69736d6174636800000000000000000000000000000000006044820152606401610963565b60005b835181101561111d5782818151811061106557611065613db7565b602002602001015160026000876001600160a01b03166001600160a01b0316815260200190815260200160002060008684815181106110a6576110a6613db7565b6020026020010151815260200190815260200160002054101561110b5760405162461bcd60e51b815260206004820152601760248201527f4e6f7420656e6f75676820746f6b656e73206f776e65640000000000000000006044820152606401610963565b611116600182613e36565b905061104a565b50611129848484612237565b50505050565b611137611f08565b6111745760405162461bcd60e51b815260206004820152600e60248201526d139bdd08185d5d1a1bdc9a5e995960921b6044820152606401610963565b610be181612440565b611185611f08565b6111d15760405162461bcd60e51b815260206004820152601760248201527f4e6f7420617574686f72697a656420746f206d696e742e0000000000000000006044820152606401610963565b60008251116112225760405162461bcd60e51b815260206004820152601460248201527f4d696e74696e67207a65726f20746f6b656e732e0000000000000000000000006044820152606401610963565b81518351146112735760405162461bcd60e51b815260206004820152601060248201527f4c656e677468206d69736d617463682e000000000000000000000000000000006044820152606401610963565b600061127e600c5490565b9050806000805b8651811015611354576000198782815181106112a3576112a3613db7565b6020026020010151036112ed57838782815181106112c3576112c3613db7565b60209081029190910101526112d9600185613e36565b93506112e6600183613e36565b9150611342565b8387828151811061130057611300613db7565b6020026020010151106113425760405162461bcd60e51b815260206004820152600a6024820152691a5b9d985b1a59081a5960b21b6044820152606401610963565b61134d600182613e36565b9050611285565b5080156113695761136682828661251c565b50505b82600c8190555061138b87878760405180602001604052806000815250612580565b50505050505050565b6001805461089490613dcd565b6113a9611f08565b6113e65760405162461bcd60e51b815260206004820152600e60248201526d139bdd08185d5d1a1bdc9a5e995960921b6044820152606401610963565b6113f183838361271c565b505050565b8161140081611f94565b6113f18383612801565b600081511161145b5760405162461bcd60e51b815260206004820152601560248201527f436f6465206d7573742062652070726f766964656400000000000000000000006044820152606401610963565b60108160405161146b9190613e8a565b9081526020016040518091039020546000036114c95760405162461bcd60e51b815260206004820152601360248201527f436f646520646f6573206e6f74206578697374000000000000000000000000006044820152606401610963565b601360006010836040516114dd9190613e8a565b908152604080516020928190038301902054835290820192909252016000205460ff161561154d5760405162461bcd60e51b815260206004820152601560248201527f4974656d20616c72656164792072656465656d656400000000000000000000006044820152606401610963565b6001601360006010846040516115639190613e8a565b908152602001604051809103902054815260200190815260200160002060006101000a81548160ff021916908315150217905550610f6933601160006010856040516115af9190613e8a565b908152602001604051809103902054815260200190815260200160002080546115d790613dcd565b80601f016020809104026020016040519081016040528092919081815260200182805461160390613dcd565b80156116505780601f1061162557610100808354040283529160200191611650565b820191906000526020600020905b81548152906001019060200180831161163357829003601f168201915b5050505050601260006010866040516116699190613e8a565b90815260200160405180910390205481526020019081526020016000205461181e565b60608167ffffffffffffffff8111156116a7576116a761357f565b6040519080825280602002602001820160405280156116da57816020015b60608152602001906001900390816116c55790505b50905060005b8281101561177a5761174a308585848181106116fe576116fe613db7565b90506020028101906117109190613ea6565b8080601f0160208091040260200160405190810160405280939291908181526020018383808284376000920191909152506128bf92505050565b82828151811061175c5761175c613db7565b6020026020010181905250808061177290613d9e565b9150506116e0565b5092915050565b60008061178d600c5490565b905060001985036117c3578091506001600c60008282546117ae9190613e36565b909155506117be905081856128e4565b611803565b8085106117ff5760405162461bcd60e51b815260206004820152600a6024820152691a5b9d985b1a59081a5960b21b6044820152606401610963565b8491505b610ced868385604051806020016040528060008152506128fc565b6000808351116118705760405162461bcd60e51b815260206004820152601960248201527f4d65746164617461206d7573742062652070726f7669646564000000000000006044820152606401610963565b600082116118c05760405162461bcd60e51b815260206004820152601b60248201527f457870657269656e6365206d7573742062652070726f766964656400000000006044820152606401610963565b6001600160a01b0384166119165760405162461bcd60e51b815260206004820152601860248201527f4163636f756e74206d7573742062652070726f766964656400000000000000006044820152606401610963565b6000611921600e5490565b905061193285600019866001611781565b6000818152600f60205260409020839055611951600e80546001019055565b90505b9392505050565b6060600061196883610aa5565b6000938452600f6020526040909320549293915050565b6005805461089490613dcd565b846001600160a01b03811633146119a6576119a633611f94565b610ced86868686866129f4565b336001600160a01b0384168114806119f057506001600160a01b0380851660009081526003602090815260408083209385168352929052205460ff165b611a3c5760405162461bcd60e51b815260206004820152601160248201527f556e617070726f7665642063616c6c65720000000000000000000000000000006044820152606401610963565b6001600160a01b0384166000908152600260209081526040808320868452909152902054821115611aaf5760405162461bcd60e51b815260206004820152601760248201527f4e6f7420656e6f75676820746f6b656e73206f776e65640000000000000000006044820152606401610963565b611129848484612a87565b606061088182610aa5565b6000835111611b165760405162461bcd60e51b815260206004820152601560248201527f436f6465206d7573742062652070726f766964656400000000000000000000006044820152606401610963565b6000825111611b675760405162461bcd60e51b815260206004820152601960248201527f4d65746164617461206d7573742062652070726f7669646564000000000000006044820152606401610963565b60008111611bb75760405162461bcd60e51b815260206004820152601b60248201527f457870657269656e6365206d7573742062652070726f766964656400000000006044820152606401610963565b611bc5601480546001019055565b6000611bd060145490565b905080601085604051611be39190613e8a565b9081526040805160209281900383019020929092556000838152601190915220611c0d8482613f3a565b506000908152601260205260409020555050565b60606000611c2e60095490565b905060006009805480602002602001604051908101604052809291908181526020018280548015611c7e57602002820191906000526020600020905b815481526020019060010190808311611c6a575b5050505050905060005b82811015611d8257818181518110611ca257611ca2613db7565b6020026020010151851015611d7057600a6000838381518110611cc757611cc7613db7565b602002602001015181526020019081526020016000208054611ce890613dcd565b80601f0160208091040260200160405190810160405280929190818152602001828054611d1490613dcd565b8015611d615780601f10611d3657610100808354040283529160200191611d61565b820191906000526020600020905b815481529060010190602001808311611d4457829003601f168201915b50505050509350505050919050565b611d7b600182613e36565b9050611c88565b5060405162461bcd60e51b815260206004820152600f60248201527f496e76616c696420746f6b656e496400000000000000000000000000000000006044820152606401610963565b606081600003611e0e57505060408051808201909152600181527f3000000000000000000000000000000000000000000000000000000000000000602082015290565b8160005b8115611e385780611e2281613d9e565b9150611e319050600a83613e76565b9150611e12565b60008167ffffffffffffffff811115611e5357611e5361357f565b6040519080825280601f01601f191660200182016040528015611e7d576020820181803683370190505b5090505b8415611f0057611e92600183613ffa565b9150611e9f600a8661400d565b611eaa906030613e36565b60f81b818381518110611ebf57611ebf613db7565b60200101907effffffffffffffffffffffffffffffffffffffffffffffffffffffffffffff1916908160001a905350611ef9600a86613e76565b9450611e81565b949350505050565b6000611f1c6006546001600160a01b031690565b6001600160a01b0316336001600160a01b031614905090565b600680546001600160a01b0383811673ffffffffffffffffffffffffffffffffffffffff19831681179093556040519116919082907f8292fce18fa69edf4db7b94ea2e58241df0ae57f97e0a6c9b29067028bf92d7690600090a35050565b600b5460ff1615610be1576daaeb6d7670e522a718067333cd4e3b15610be1576040517fc61711340000000000000000000000000000000000000000000000000000000081523060048201526001600160a01b03821660248201526daaeb6d7670e522a718067333cd4e9063c617113490604401602060405180830381865afa158015612025573d6000803e3d6000fd5b505050506040513d601f19601f820116820180604052508101906120499190614021565b610be1576040517fede71dcc0000000000000000000000000000000000000000000000000000000081526001600160a01b0382166004820152602401610963565b6001600160a01b0385163314806120c457506001600160a01b038516600090815260036020908152604080832033845290915290205460ff165b6121105760405162461bcd60e51b815260206004820152601260248201527f214f574e45525f4f525f415050524f56454400000000000000000000000000006044820152606401610963565b61211d8585858585612bde565b5050505050565b600b805460ff19168215159081179091556040519081527f38475885990d8dfe9ca01f0ef160a1b5514426eab9ddbc953a3353410ba780969060200160405180910390a150565b6127108111156121bd5760405162461bcd60e51b815260206004820152600f60248201527f45786365656473206d61782062707300000000000000000000000000000000006044820152606401610963565b600780546001600160a01b0384167fffffffffffffffffffff000000000000000000000000000000000000000000009091168117600160a01b61ffff851602179091556040518281527f90d7ec04bcb8978719414f82e52e4cb651db41d0e6f8cea6118c2191e6183adb9060200160405180910390a25050565b6001600160a01b03831661228d5760405162461bcd60e51b815260206004820152600e60248201527f46524f4d5f5a45524f5f414444520000000000000000000000000000000000006044820152606401610963565b80518251146122d05760405162461bcd60e51b815260206004820152600f60248201526e0988a9c8ea890be9a92a69a82a8869608b1b6044820152606401610963565b60003390506122f381856000868660405180602001604052806000815250612df5565b60005b83518110156123e157600084828151811061231357612313613db7565b60200260200101519050600084838151811061233157612331613db7565b6020908102919091018101516001600160a01b03891660009081526002835260408082208683529093529190912054909150818110156123a65760405162461bcd60e51b815260206004820152601060248201526f125394d551919250d251539517d0905360821b6044820152606401610963565b6001600160a01b03881660009081526002602090815260408083209583529490529290922091039055806123d981613d9e565b9150506122f6565b5060006001600160a01b0316846001600160a01b0316826001600160a01b03167f4a39dc06d4c0dbc64b70af90fd698a233a518aa5d07e595d983b8c0526c8f7fb868660405161243292919061403e565b60405180910390a450505050565b60006005805461244f90613dcd565b80601f016020809104026020016040519081016040528092919081815260200182805461247b90613dcd565b80156124c85780601f1061249d576101008083540402835291602001916124c8565b820191906000526020600020905b8154815290600101906020018083116124ab57829003601f168201915b5050505050905081600590816124de9190613f3a565b507fc9c7c3fe08b88b4df9d4d47ef47d2c43d55c025a0ba88ca442580ed9e7348a168183604051612510929190614063565b60405180910390a15050565b6000806125298486613e36565b60098054600181019091557f6e1540171b6c0c960b71a7020d9f60077f6af931a8bbf590da0223dacf75c7af018190556000818152600a602052604090209092508291506125778482613f3a565b50935093915050565b6001600160a01b0384166125c55760405162461bcd60e51b815260206004820152600c60248201526b2a27afad22a927afa0a2222960a11b6044820152606401610963565b81518351146126085760405162461bcd60e51b815260206004820152600f60248201526e0988a9c8ea890be9a92a69a82a8869608b1b6044820152606401610963565b3361261881600087878787612df5565b60005b84518110156126b45783818151811061263657612636613db7565b602002602001015160026000886001600160a01b03166001600160a01b03168152602001908152602001600020600087848151811061267757612677613db7565b60200260200101518152602001908152602001600020600082825461269c9190613e36565b909155508190506126ac81613d9e565b91505061261b565b50846001600160a01b031660006001600160a01b0316826001600160a01b03167f4a39dc06d4c0dbc64b70af90fd698a233a518aa5d07e595d983b8c0526c8f7fb878760405161270592919061403e565b60405180910390a461211d81600087878787612f01565b61271081111561276e5760405162461bcd60e51b815260206004820152600f60248201527f45786365656473206d61782062707300000000000000000000000000000000006044820152606401610963565b6040805180820182526001600160a01b0384811680835260208084018681526000898152600883528690209451855473ffffffffffffffffffffffffffffffffffffffff1916941693909317845591516001909301929092559151838152909185917f7365cf4122f072a3365c20d54eff9b38d73c096c28e1892ec8f5b0e403a0f12d91015b60405180910390a3505050565b336001600160a01b038316810361285a5760405162461bcd60e51b815260206004820152600e60248201527f415050524f56494e475f53454c460000000000000000000000000000000000006044820152606401610963565b6001600160a01b03818116600081815260036020908152604080832094881680845294825291829020805460ff191687151590811790915591519182527f17307eab39ab6107e8899845ad3d59bd9653f200f220920489ca2b5937696c3191016127f4565b606061195483836040518060600160405280602781526020016141ed6027913961306f565b60008281526004602052604090206113f18282613f3a565b6001600160a01b0384166129415760405162461bcd60e51b815260206004820152600c60248201526b2a27afad22a927afa0a2222960a11b6044820152606401610963565b336129618160008761295288613163565b61295b88613163565b87612df5565b6001600160a01b038516600090815260026020908152604080832087845290915281208054859290612994908490613e36565b909155505060408051858152602081018590526001600160a01b0380881692600092918516917fc3d58168c5ae7397731d063d5bbf3d657854427343f4c083240f7aacaa2d0f62910160405180910390a461211d816000878787876131ae565b6001600160a01b038516331480612a2e57506001600160a01b038516600090815260036020908152604080832033845290915290205460ff165b612a7a5760405162461bcd60e51b815260206004820152601260248201527f214f574e45525f4f525f415050524f56454400000000000000000000000000006044820152606401610963565b61211d8585858585613299565b6001600160a01b038316612add5760405162461bcd60e51b815260206004820152600e60248201527f46524f4d5f5a45524f5f414444520000000000000000000000000000000000006044820152606401610963565b33612b0c81856000612aee87613163565b612af787613163565b60405180602001604052806000815250612df5565b6001600160a01b038416600090815260026020908152604080832086845290915290205482811015612b735760405162461bcd60e51b815260206004820152601060248201526f125394d551919250d251539517d0905360821b6044820152606401610963565b6001600160a01b03858116600081815260026020908152604080832089845282528083208887039055805189815291820188905291938616917fc3d58168c5ae7397731d063d5bbf3d657854427343f4c083240f7aacaa2d0f62910160405180910390a45050505050565b8151835114612c215760405162461bcd60e51b815260206004820152600f60248201526e0988a9c8ea890be9a92a69a82a8869608b1b6044820152606401610963565b6001600160a01b038416612c665760405162461bcd60e51b815260206004820152600c60248201526b2a27afad22a927afa0a2222960a11b6044820152606401610963565b33612c75818787878787612df5565b60005b8451811015612d8f576000858281518110612c9557612c95613db7565b602002602001015190506000858381518110612cb357612cb3613db7565b6020908102919091018101516001600160a01b038b166000908152600283526040808220868352909352919091205490915081811015612d285760405162461bcd60e51b815260206004820152601060248201526f125394d551919250d251539517d0905360821b6044820152606401610963565b6001600160a01b03808b16600090815260026020818152604080842088855282528084208787039055938d16835290815282822086835290529081208054849290612d74908490613e36565b9250508190555050505080612d8890613d9e565b9050612c78565b50846001600160a01b0316866001600160a01b0316826001600160a01b03167f4a39dc06d4c0dbc64b70af90fd698a233a518aa5d07e595d983b8c0526c8f7fb8787604051612ddf92919061403e565b60405180910390a4610ced818787878787612f01565b6001600160a01b038516612e7c5760005b8351811015612e7a57828181518110612e2157612e21613db7565b6020026020010151600d6000868481518110612e3f57612e3f613db7565b602002602001015181526020019081526020016000206000828254612e649190613e36565b90915550612e73905081613d9e565b9050612e06565b505b6001600160a01b038416610ced5760005b835181101561138b57828181518110612ea857612ea8613db7565b6020026020010151600d6000868481518110612ec657612ec6613db7565b602002602001015181526020019081526020016000206000828254612eeb9190613ffa565b90915550612efa905081613d9e565b9050612e8d565b6001600160a01b0384163b15610ced5760405163bc197c8160e01b81526001600160a01b0385169063bc197c8190612f459089908990889088908890600401614088565b6020604051808303816000875af1925050508015612f80575060408051601f3d908101601f19168201909252612f7d918101906140e6565b60015b61300f57612f8c614103565b806308c379a003612fc55750612fa061411f565b80612fab5750612fc7565b8060405162461bcd60e51b8152600401610963919061356c565b505b60405162461bcd60e51b815260206004820152601060248201527f21455243313135355245434549564552000000000000000000000000000000006044820152606401610963565b6001600160e01b0319811663bc197c8160e01b1461138b5760405162461bcd60e51b815260206004820152600f60248201527f544f4b454e535f52454a454354454400000000000000000000000000000000006044820152606401610963565b60606001600160a01b0384163b6130ee5760405162461bcd60e51b815260206004820152602660248201527f416464726573733a2064656c65676174652063616c6c20746f206e6f6e2d636f60448201527f6e747261637400000000000000000000000000000000000000000000000000006064820152608401610963565b600080856001600160a01b0316856040516131099190613e8a565b600060405180830381855af49150503d8060008114613144576040519150601f19603f3d011682016040523d82523d6000602084013e613149565b606091505b5091509150613159828286613401565b9695505050505050565b6040805160018082528183019092526060916000919060208083019080368337019050509050828160008151811061319d5761319d613db7565b602090810291909101015292915050565b6001600160a01b0384163b15610ced5760405163f23a6e6160e01b81526001600160a01b0385169063f23a6e61906131f290899089908890889088906004016141a9565b6020604051808303816000875af192505050801561322d575060408051601f3d908101601f1916820190925261322a918101906140e6565b60015b61323957612f8c614103565b6001600160e01b0319811663f23a6e6160e01b1461138b5760405162461bcd60e51b815260206004820152600f60248201527f544f4b454e535f52454a454354454400000000000000000000000000000000006044820152606401610963565b6001600160a01b0384166132de5760405162461bcd60e51b815260206004820152600c60248201526b2a27afad22a927afa0a2222960a11b6044820152606401610963565b336132ee81878761295288613163565b6001600160a01b0386166000908152600260209081526040808320878452909152902054838110156133555760405162461bcd60e51b815260206004820152601060248201526f125394d551919250d251539517d0905360821b6044820152606401610963565b6001600160a01b0380881660009081526002602081815260408084208a855282528084208987039055938a168352908152828220888352905290812080548692906133a1908490613e36565b909155505060408051868152602081018690526001600160a01b03808916928a821692918616917fc3d58168c5ae7397731d063d5bbf3d657854427343f4c083240f7aacaa2d0f62910160405180910390a461138b8288888888886131ae565b60608315613410575081611954565b8251156134205782518084602001fd5b8160405162461bcd60e51b8152600401610963919061356c565b80356001600160a01b038116811461345157600080fd5b919050565b6000806040838503121561346957600080fd5b6134728361343a565b946020939093013593505050565b60006020828403121561349257600080fd5b6119548261343a565b600081518084526020808501945080840160005b838110156134cb578151875295820195908201906001016134af565b509495945050505050565b602081526000611954602083018461349b565b6001600160e01b031981168114610be157600080fd5b60006020828403121561351157600080fd5b8135611954816134e9565b60005b8381101561353757818101518382015260200161351f565b50506000910152565b6000815180845261355881602086016020860161351c565b601f01601f19169290920160200192915050565b6020815260006119546020830184613540565b634e487b7160e01b600052604160045260246000fd5b601f8201601f1916810167ffffffffffffffff811182821017156135bb576135bb61357f565b6040525050565b600082601f8301126135d357600080fd5b813567ffffffffffffffff8111156135ed576135ed61357f565b604051613604601f8301601f191660200182613595565b81815284602083860101111561361957600080fd5b816020850160208301376000918101602001919091529392505050565b6000806000806080858703121561364c57600080fd5b6136558561343a565b9350602085013567ffffffffffffffff81111561367157600080fd5b61367d878288016135c2565b949794965050505060408301359260600135919050565b6000602082840312156136a657600080fd5b5035919050565b600080604083850312156136c057600080fd5b50508035926020909101359150565b600067ffffffffffffffff8211156136e9576136e961357f565b5060051b60200190565b600082601f83011261370457600080fd5b81356020613711826136cf565b60405161371e8282613595565b83815260059390931b850182019282810191508684111561373e57600080fd5b8286015b848110156137595780358352918301918301613742565b509695505050505050565b600080600080600060a0868803121561377c57600080fd5b6137858661343a565b94506137936020870161343a565b9350604086013567ffffffffffffffff808211156137b057600080fd5b6137bc89838a016136f3565b945060608801359150808211156137d257600080fd5b6137de89838a016136f3565b935060808801359150808211156137f457600080fd5b50613801888289016135c2565b9150509295509295909350565b8015158114610be157600080fd5b60006020828403121561382e57600080fd5b81356119548161380e565b6000806040838503121561384c57600080fd5b823567ffffffffffffffff8082111561386457600080fd5b818501915085601f83011261387857600080fd5b81356020613885826136cf565b6040516138928282613595565b83815260059390931b85018201928281019150898411156138b257600080fd5b948201945b838610156138d7576138c88661343a565b825294820194908201906138b7565b965050860135925050808211156138ed57600080fd5b506138fa858286016136f3565b9150509250929050565b60008060006060848603121561391957600080fd5b6139228461343a565b9250602084013567ffffffffffffffff8082111561393f57600080fd5b61394b878388016136f3565b9350604086013591508082111561396157600080fd5b5061396e868287016136f3565b9150509250925092565b60006020828403121561398a57600080fd5b813567ffffffffffffffff8111156139a157600080fd5b611f00848285016135c2565b600080600080608085870312156139c357600080fd5b6139cc8561343a565b9350602085013567ffffffffffffffff808211156139e957600080fd5b6139f5888389016136f3565b94506040870135915080821115613a0b57600080fd5b613a17888389016136f3565b93506060870135915080821115613a2d57600080fd5b50613a3a878288016135c2565b91505092959194509250565b600080600060608486031215613a5b57600080fd5b83359250613a6b6020850161343a565b9150604084013590509250925092565b60008060408385031215613a8e57600080fd5b613a978361343a565b91506020830135613aa78161380e565b809150509250929050565b60008060208385031215613ac557600080fd5b823567ffffffffffffffff80821115613add57600080fd5b818501915085601f830112613af157600080fd5b813581811115613b0057600080fd5b8660208260051b8501011115613b1557600080fd5b60209290920196919550909350505050565b6000602080830181845280855180835260408601915060408160051b870101925083870160005b82811015613b7c57603f19888603018452613b6a858351613540565b94509285019290850190600101613b4e565b5092979650505050505050565b60008060008060808587031215613b9f57600080fd5b613ba88561343a565b935060208501359250604085013567ffffffffffffffff811115613bcb57600080fd5b613bd7878288016135c2565b949793965093946060013593505050565b600080600060608486031215613bfd57600080fd5b613c068461343a565b9250602084013567ffffffffffffffff811115613c2257600080fd5b613c2e868287016135c2565b925050604084013590509250925092565b604081526000613c526040830185613540565b90508260208301529392505050565b60008060408385031215613c7457600080fd5b613c7d8361343a565b9150613c8b6020840161343a565b90509250929050565b600080600080600060a08688031215613cac57600080fd5b613cb58661343a565b9450613cc36020870161343a565b93506040860135925060608601359150608086013567ffffffffffffffff811115613ced57600080fd5b613801888289016135c2565b600080600060608486031215613d0e57600080fd5b613d178461343a565b95602085013595506040909401359392505050565b600080600060608486031215613d4157600080fd5b833567ffffffffffffffff80821115613d5957600080fd5b613d65878388016135c2565b94506020860135915080821115613d7b57600080fd5b50613c2e868287016135c2565b634e487b7160e01b600052601160045260246000fd5b600060018201613db057613db0613d88565b5060010190565b634e487b7160e01b600052603260045260246000fd5b600181811c90821680613de157607f821691505b602082108103613e0157634e487b7160e01b600052602260045260246000fd5b50919050565b60008351613e1981846020880161351c565b835190830190613e2d81836020880161351c565b01949350505050565b8082018082111561088157610881613d88565b808202811582820484141761088157610881613d88565b634e487b7160e01b600052601260045260246000fd5b600082613e8557613e85613e60565b500490565b60008251613e9c81846020870161351c565b9190910192915050565b6000808335601e19843603018112613ebd57600080fd5b83018035915067ffffffffffffffff821115613ed857600080fd5b602001915036819003821315613eed57600080fd5b9250929050565b601f8211156113f157600081815260208120601f850160051c81016020861015613f1b5750805b601f850160051c820191505b81811015610ced57828155600101613f27565b815167ffffffffffffffff811115613f5457613f5461357f565b613f6881613f628454613dcd565b84613ef4565b602080601f831160018114613f9d5760008415613f855750858301515b600019600386901b1c1916600185901b178555610ced565b600085815260208120601f198616915b82811015613fcc57888601518255948401946001909101908401613fad565b5085821015613fea5787850151600019600388901b60f8161c191681555b5050505050600190811b01905550565b8181038181111561088157610881613d88565b60008261401c5761401c613e60565b500690565b60006020828403121561403357600080fd5b81516119548161380e565b604081526000614051604083018561349b565b8281036020840152610a9c818561349b565b6040815260006140766040830185613540565b8281036020840152610a9c8185613540565b60006001600160a01b03808816835280871660208401525060a060408301526140b460a083018661349b565b82810360608401526140c6818661349b565b905082810360808401526140da8185613540565b98975050505050505050565b6000602082840312156140f857600080fd5b8151611954816134e9565b600060033d111561411c5760046000803e5060005160e01c5b90565b600060443d101561412d5790565b6040516003193d81016004833e81513d67ffffffffffffffff816024840111818411171561415d57505050505090565b82850191508151818111156141755750505050505090565b843d870101602082850101111561418f5750505050505090565b61419e60208286010187613595565b509095945050505050565b60006001600160a01b03808816835280871660208401525084604083015283606083015260a060808301526141e160a0830184613540565b97965050505050505056fe416464726573733a206c6f772d6c6576656c2064656c65676174652063616c6c206661696c6564a2646970667358221220e4ae527efe7023a312beb7250a42bd49b4764166b83a0c92834cba0e2f6cd92564736f6c63430008110033",
  "linkReferences": {},
  "deployedLinkReferences": {}
}