{
  "_format": "hh-sol-artifact-1",
  "contractName": "ERC1155",
  "sourceName": "@thirdweb-dev/contracts/eip/ERC1155.sol",
  "abi": [
    {
      "inputs": [
        {
          "internalType": "string",
          "name": "_name",
          "type": "string"
        },
        {
          "internalType": "string",
          "name": "_symbol",
          "type": "string"
        }
      ],
      "stateMutability": "nonpayable",
      "type": "constructor"
    },
    {
      "anonymous": false,
      "inputs": [
        {
          "indexed": true,
          "internalType": "address",
          "name": "_owner",
          "type": "address"
        },
        {
          "indexed": true,
          "internalType": "address",
          "name": "_operator",
          "type": "address"
        },
        {
          "indexed": false,
          "internalType": "bool",
          "name": "_approved",
          "type": "bool"
        }
      ],
      "name": "ApprovalForAll",
      "type": "event"
    },
    {
      "anonymous": false,
      "inputs": [
        {
          "indexed": true,
          "internalType": "address",
          "name": "_operator",
          "type": "address"
        },
        {
          "indexed": true,
          "internalType": "address",
          "name": "_from",
          "type": "address"
        },
        {
          "indexed": true,
          "internalType": "address",
          "name": "_to",
          "type": "address"
        },
        {
          "indexed": false,
          "internalType": "uint256[]",
          "name": "_ids",
          "type": "uint256[]"
        },
        {
          "indexed": false,
          "internalType": "uint256[]",
          "name": "_values",
          "type": "uint256[]"
        }
      ],
      "name": "TransferBatch",
      "type": "event"
    },
    {
      "anonymous": false,
      "inputs": [
        {
          "indexed": true,
          "internalType": "address",
          "name": "_operator",
          "type": "address"
        },
        {
          "indexed": true,
          "internalType": "address",
          "name": "_from",
          "type": "address"
        },
        {
          "indexed": true,
          "internalType": "address",
          "name": "_to",
          "type": "address"
        },
        {
          "indexed": false,
          "internalType": "uint256",
          "name": "_id",
          "type": "uint256"
        },
        {
          "indexed": false,
          "internalType": "uint256",
          "name": "_value",
          "type": "uint256"
        }
      ],
      "name": "TransferSingle",
      "type": "event"
    },
    {
      "anonymous": false,
      "inputs": [
        {
          "indexed": false,
          "internalType": "string",
          "name": "_value",
          "type": "string"
        },
        {
          "indexed": true,
          "internalType": "uint256",
          "name": "_id",
          "type": "uint256"
        }
      ],
      "name": "URI",
      "type": "event"
    },
    {
      "inputs": [
        {
          "internalType": "address",
          "name": "",
          "type": "address"
        },
        {
          "internalType": "uint256",
          "name": "",
          "type": "uint256"
        }
      ],
      "name": "balanceOf",
      "outputs": [
        {
          "internalType": "uint256",
          "name": "",
          "type": "uint256"
        }
      ],
      "stateMutability": "view",
      "type": "function"
    },
    {
      "inputs": [
        {
          "internalType": "address[]",
          "name": "accounts",
          "type": "address[]"
        },
        {
          "internalType": "uint256[]",
          "name": "ids",
          "type": "uint256[]"
        }
      ],
      "name": "balanceOfBatch",
      "outputs": [
        {
          "internalType": "uint256[]",
          "name": "",
          "type": "uint256[]"
        }
      ],
      "stateMutability": "view",
      "type": "function"
    },
    {
      "inputs": [
        {
          "internalType": "address",
          "name": "",
          "type": "address"
        },
        {
          "internalType": "address",
          "name": "",
          "type": "address"
        }
      ],
      "name": "isApprovedForAll",
      "outputs": [
        {
          "internalType": "bool",
          "name": "",
          "type": "bool"
        }
      ],
      "stateMutability": "view",
      "type": "function"
    },
    {
      "inputs": [],
      "name": "name",
      "outputs": [
        {
          "internalType": "string",
          "name": "",
          "type": "string"
        }
      ],
      "stateMutability": "view",
      "type": "function"
    },
    {
      "inputs": [
        {
          "internalType": "address",
          "name": "from",
          "type": "address"
        },
        {
          "internalType": "address",
          "name": "to",
          "type": "address"
        },
        {
          "internalType": "uint256[]",
          "name": "ids",
          "type": "uint256[]"
        },
        {
          "internalType": "uint256[]",
          "name": "amounts",
          "type": "uint256[]"
        },
        {
          "internalType": "bytes",
          "name": "data",
          "type": "bytes"
        }
      ],
      "name": "safeBatchTransferFrom",
      "outputs": [],
      "stateMutability": "nonpayable",
      "type": "function"
    },
    {
      "inputs": [
        {
          "internalType": "address",
          "name": "from",
          "type": "address"
        },
        {
          "internalType": "address",
          "name": "to",
          "type": "address"
        },
        {
          "internalType": "uint256",
          "name": "id",
          "type": "uint256"
        },
        {
          "internalType": "uint256",
          "name": "amount",
          "type": "uint256"
        },
        {
          "internalType": "bytes",
          "name": "data",
          "type": "bytes"
        }
      ],
      "name": "safeTransferFrom",
      "outputs": [],
      "stateMutability": "nonpayable",
      "type": "function"
    },
    {
      "inputs": [
        {
          "internalType": "address",
          "name": "operator",
          "type": "address"
        },
        {
          "internalType": "bool",
          "name": "approved",
          "type": "bool"
        }
      ],
      "name": "setApprovalForAll",
      "outputs": [],
      "stateMutability": "nonpayable",
      "type": "function"
    },
    {
      "inputs": [
        {
          "internalType": "bytes4",
          "name": "interfaceId",
          "type": "bytes4"
        }
      ],
      "name": "supportsInterface",
      "outputs": [
        {
          "internalType": "bool",
          "name": "",
          "type": "bool"
        }
      ],
      "stateMutability": "view",
      "type": "function"
    },
    {
      "inputs": [],
      "name": "symbol",
      "outputs": [
        {
          "internalType": "string",
          "name": "",
          "type": "string"
        }
      ],
      "stateMutability": "view",
      "type": "function"
    },
    {
      "inputs": [
        {
          "internalType": "uint256",
          "name": "tokenId",
          "type": "uint256"
        }
      ],
      "name": "uri",
      "outputs": [
        {
          "internalType": "string",
          "name": "",
          "type": "string"
        }
      ],
      "stateMutability": "view",
      "type": "function"
    }
  ],
  "bytecode": "0x60806040523480156200001157600080fd5b50604051620017703803806200177083398101604081905262000034916200011f565b600062000042838262000218565b50600162000051828262000218565b505050620002e4565b634e487b7160e01b600052604160045260246000fd5b600082601f8301126200008257600080fd5b81516001600160401b03808211156200009f576200009f6200005a565b604051601f8301601f19908116603f01168101908282118183101715620000ca57620000ca6200005a565b81604052838152602092508683858801011115620000e757600080fd5b600091505b838210156200010b5785820183015181830184015290820190620000ec565b600093810190920192909252949350505050565b600080604083850312156200013357600080fd5b82516001600160401b03808211156200014b57600080fd5b620001598683870162000070565b935060208501519150808211156200017057600080fd5b506200017f8582860162000070565b9150509250929050565b600181811c908216806200019e57607f821691505b602082108103620001bf57634e487b7160e01b600052602260045260246000fd5b50919050565b601f8211156200021357600081815260208120601f850160051c81016020861015620001ee5750805b601f850160051c820191505b818110156200020f57828155600101620001fa565b5050505b505050565b81516001600160401b038111156200023457620002346200005a565b6200024c8162000245845462000189565b84620001c5565b602080601f8311600181146200028457600084156200026b5750858301515b600019600386901b1c1916600185901b1785556200020f565b600085815260208120601f198616915b82811015620002b55788860151825594840194600190910190840162000294565b5085821015620002d45787850151600019600388901b60f8161c191681555b5050505050600190811b01905550565b61147c80620002f46000396000f3fe608060405234801561001057600080fd5b50600436106100bd5760003560e01c80634e1273f411610076578063a22cb4651161005b578063a22cb46514610188578063e985e9c51461019b578063f242432a146101c957600080fd5b80634e1273f41461016057806395d89b411461018057600080fd5b806306fdde03116100a757806306fdde03146101235780630e89341c146101385780632eb2c2d61461014b57600080fd5b8062fdd58e146100c257806301ffc9a714610100575b600080fd5b6100ed6100d0366004610d66565b600260209081526000928352604080842090915290825290205481565b6040519081526020015b60405180910390f35b61011361010e366004610da9565b6101dc565b60405190151581526020016100f7565b61012b610279565b6040516100f79190610e13565b61012b610146366004610e26565b610307565b61015e610159366004610f8b565b6103a9565b005b61017361016e366004611035565b610448565b6040516100f7919061113b565b61012b61058d565b61015e61019636600461114e565b61059a565b6101136101a936600461118a565b600360209081526000928352604080842090915290825290205460ff1681565b61015e6101d73660046111bd565b610660565b60007f01ffc9a7000000000000000000000000000000000000000000000000000000006001600160e01b03198316148061023f57507fd9b67a26000000000000000000000000000000000000000000000000000000006001600160e01b03198316145b8061027357507f0e89341c000000000000000000000000000000000000000000000000000000006001600160e01b03198316145b92915050565b6000805461028690611222565b80601f01602080910402602001604051908101604052809291908181526020018280546102b290611222565b80156102ff5780601f106102d4576101008083540402835291602001916102ff565b820191906000526020600020905b8154815290600101906020018083116102e257829003601f168201915b505050505081565b600081815260046020526040902080546060919061032490611222565b80601f016020809104026020016040519081016040528092919081815260200182805461035090611222565b801561039d5780601f106103725761010080835404028352916020019161039d565b820191906000526020600020905b81548152906001019060200180831161038057829003601f168201915b50505050509050919050565b6001600160a01b0385163314806103e357506001600160a01b038516600090815260036020908152604080832033845290915290205460ff165b6104345760405162461bcd60e51b815260206004820152601260248201527f214f574e45525f4f525f415050524f564544000000000000000000000000000060448201526064015b60405180910390fd5b61044185858585856106f3565b5050505050565b6060815183511461049b5760405162461bcd60e51b815260206004820152600f60248201527f4c454e4754485f4d49534d415443480000000000000000000000000000000000604482015260640161042b565b6000835167ffffffffffffffff8111156104b7576104b7610e3f565b6040519080825280602002602001820160405280156104e0578160200160208202803683370190505b50905060005b845181101561058557600260008683815181106105055761050561125c565b60200260200101516001600160a01b03166001600160a01b0316815260200190815260200160002060008583815181106105415761054161125c565b602002602001015181526020019081526020016000205482828151811061056a5761056a61125c565b602090810291909101015261057e81611288565b90506104e6565b509392505050565b6001805461028690611222565b336001600160a01b03831681036105f35760405162461bcd60e51b815260206004820152600e60248201527f415050524f56494e475f53454c46000000000000000000000000000000000000604482015260640161042b565b6001600160a01b03818116600081815260036020908152604080832094881680845294825291829020805460ff191687151590811790915591519182527f17307eab39ab6107e8899845ad3d59bd9653f200f220920489ca2b5937696c31910160405180910390a3505050565b6001600160a01b03851633148061069a57506001600160a01b038516600090815260036020908152604080832033845290915290205460ff165b6106e65760405162461bcd60e51b815260206004820152601260248201527f214f574e45525f4f525f415050524f5645440000000000000000000000000000604482015260640161042b565b610441858585858561091f565b81518351146107445760405162461bcd60e51b815260206004820152600f60248201527f4c454e4754485f4d49534d415443480000000000000000000000000000000000604482015260640161042b565b6001600160a01b0384166107895760405162461bcd60e51b815260206004820152600c60248201526b2a27afad22a927afa0a2222960a11b604482015260640161042b565b3360005b84518110156108b15760008582815181106107aa576107aa61125c565b6020026020010151905060008583815181106107c8576107c861125c565b6020908102919091018101516001600160a01b038b16600090815260028352604080822086835290935291909120549091508181101561084a5760405162461bcd60e51b815260206004820152601060248201527f494e53554646494349454e545f42414c00000000000000000000000000000000604482015260640161042b565b6001600160a01b03808b16600090815260026020818152604080842088855282528084208787039055938d168352908152828220868352905290812080548492906108969084906112a1565b92505081905550505050806108aa90611288565b905061078d565b50846001600160a01b0316866001600160a01b0316826001600160a01b03167f4a39dc06d4c0dbc64b70af90fd698a233a518aa5d07e595d983b8c0526c8f7fb87876040516109019291906112b4565b60405180910390a4610917818787878787610aa6565b505050505050565b6001600160a01b0384166109645760405162461bcd60e51b815260206004820152600c60248201526b2a27afad22a927afa0a2222960a11b604482015260640161042b565b3361097d81878761097488610c14565b61044188610c14565b6001600160a01b0386166000908152600260209081526040808320878452909152902054838110156109f15760405162461bcd60e51b815260206004820152601060248201527f494e53554646494349454e545f42414c00000000000000000000000000000000604482015260640161042b565b6001600160a01b0380881660009081526002602081815260408084208a855282528084208987039055938a16835290815282822088835290529081208054869290610a3d9084906112a1565b909155505060408051868152602081018690526001600160a01b03808916928a821692918616917fc3d58168c5ae7397731d063d5bbf3d657854427343f4c083240f7aacaa2d0f62910160405180910390a4610a9d828888888888610c5f565b50505050505050565b6001600160a01b0384163b156109175760405163bc197c8160e01b81526001600160a01b0385169063bc197c8190610aea90899089908890889088906004016112e2565b6020604051808303816000875af1925050508015610b25575060408051601f3d908101601f19168201909252610b2291810190611340565b60015b610bb457610b3161135d565b806308c379a003610b6a5750610b45611379565b80610b505750610b6c565b8060405162461bcd60e51b815260040161042b9190610e13565b505b60405162461bcd60e51b815260206004820152601060248201527f2145524331313535524543454956455200000000000000000000000000000000604482015260640161042b565b6001600160e01b0319811663bc197c8160e01b14610a9d5760405162461bcd60e51b815260206004820152600f60248201527f544f4b454e535f52454a45435445440000000000000000000000000000000000604482015260640161042b565b60408051600180825281830190925260609160009190602080830190803683370190505090508281600081518110610c4e57610c4e61125c565b602090810291909101015292915050565b6001600160a01b0384163b156109175760405163f23a6e6160e01b81526001600160a01b0385169063f23a6e6190610ca39089908990889088908890600401611403565b6020604051808303816000875af1925050508015610cde575060408051601f3d908101601f19168201909252610cdb91810190611340565b60015b610cea57610b3161135d565b6001600160e01b0319811663f23a6e6160e01b14610a9d5760405162461bcd60e51b815260206004820152600f60248201527f544f4b454e535f52454a45435445440000000000000000000000000000000000604482015260640161042b565b80356001600160a01b0381168114610d6157600080fd5b919050565b60008060408385031215610d7957600080fd5b610d8283610d4a565b946020939093013593505050565b6001600160e01b031981168114610da657600080fd5b50565b600060208284031215610dbb57600080fd5b8135610dc681610d90565b9392505050565b6000815180845260005b81811015610df357602081850181015186830182015201610dd7565b506000602082860101526020601f19601f83011685010191505092915050565b602081526000610dc66020830184610dcd565b600060208284031215610e3857600080fd5b5035919050565b634e487b7160e01b600052604160045260246000fd5b601f8201601f1916810167ffffffffffffffff81118282101715610e7b57610e7b610e3f565b6040525050565b600067ffffffffffffffff821115610e9c57610e9c610e3f565b5060051b60200190565b600082601f830112610eb757600080fd5b81356020610ec482610e82565b604051610ed18282610e55565b83815260059390931b8501820192828101915086841115610ef157600080fd5b8286015b84811015610f0c5780358352918301918301610ef5565b509695505050505050565b600082601f830112610f2857600080fd5b813567ffffffffffffffff811115610f4257610f42610e3f565b604051610f59601f8301601f191660200182610e55565b818152846020838601011115610f6e57600080fd5b816020850160208301376000918101602001919091529392505050565b600080600080600060a08688031215610fa357600080fd5b610fac86610d4a565b9450610fba60208701610d4a565b9350604086013567ffffffffffffffff80821115610fd757600080fd5b610fe389838a01610ea6565b94506060880135915080821115610ff957600080fd5b61100589838a01610ea6565b9350608088013591508082111561101b57600080fd5b5061102888828901610f17565b9150509295509295909350565b6000806040838503121561104857600080fd5b823567ffffffffffffffff8082111561106057600080fd5b818501915085601f83011261107457600080fd5b8135602061108182610e82565b60405161108e8282610e55565b83815260059390931b85018201928281019150898411156110ae57600080fd5b948201945b838610156110d3576110c486610d4a565b825294820194908201906110b3565b965050860135925050808211156110e957600080fd5b506110f685828601610ea6565b9150509250929050565b600081518084526020808501945080840160005b8381101561113057815187529582019590820190600101611114565b509495945050505050565b602081526000610dc66020830184611100565b6000806040838503121561116157600080fd5b61116a83610d4a565b91506020830135801515811461117f57600080fd5b809150509250929050565b6000806040838503121561119d57600080fd5b6111a683610d4a565b91506111b460208401610d4a565b90509250929050565b600080600080600060a086880312156111d557600080fd5b6111de86610d4a565b94506111ec60208701610d4a565b93506040860135925060608601359150608086013567ffffffffffffffff81111561121657600080fd5b61102888828901610f17565b600181811c9082168061123657607f821691505b60208210810361125657634e487b7160e01b600052602260045260246000fd5b50919050565b634e487b7160e01b600052603260045260246000fd5b634e487b7160e01b600052601160045260246000fd5b60006001820161129a5761129a611272565b5060010190565b8082018082111561027357610273611272565b6040815260006112c76040830185611100565b82810360208401526112d98185611100565b95945050505050565b60006001600160a01b03808816835280871660208401525060a0604083015261130e60a0830186611100565b82810360608401526113208186611100565b905082810360808401526113348185610dcd565b98975050505050505050565b60006020828403121561135257600080fd5b8151610dc681610d90565b600060033d11156113765760046000803e5060005160e01c5b90565b600060443d10156113875790565b6040516003193d81016004833e81513d67ffffffffffffffff81602484011181841117156113b757505050505090565b82850191508151818111156113cf5750505050505090565b843d87010160208285010111156113e95750505050505090565b6113f860208286010187610e55565b509095945050505050565b60006001600160a01b03808816835280871660208401525084604083015283606083015260a0608083015261143b60a0830184610dcd565b97965050505050505056fea264697066735822122049469593d76ea3a8ee0b293614253e2665f8982090bb832062217f9b306838d064736f6c63430008110033",
  "linkReferences": {},
  "deployedLinkReferences": {}
}